{
  "abi": [
    {
      "inputs": [
        {
          "internalType": "contract IMasterChefV2",
          "name": "_v2",
          "type": "address"
        },
        {
          "internalType": "contract IMasterChefV3",
          "name": "_v3",
          "type": "address"
        },
        {
          "internalType": "contract IERC20",
          "name": "_cake",
          "type": "address"
        },
        {
          "internalType": "uint256",
          "name": "_v2Pid",
          "type": "uint256"
        }
      ],
      "stateMutability": "nonpayable",
      "type": "constructor"
    },
    {
      "inputs": [],
      "name": "NoBalance",
      "type": "error"
    },
    {
      "inputs": [],
      "name": "NotOwnerOrOperator",
      "type": "error"
    },
    {
      "inputs": [],
      "name": "ZeroAddress",
      "type": "error"
    },
    {
      "anonymous": false,
      "inputs": [
        {
          "indexed": true,
          "internalType": "address",
          "name": "from",
          "type": "address"
        },
        {
          "indexed": true,
          "internalType": "address",
          "name": "to",
          "type": "address"
        },
        {
          "indexed": false,
          "internalType": "uint256",
          "name": "amount",
          "type": "uint256"
        },
        {
          "indexed": false,
          "internalType": "uint256",
          "name": "pid",
          "type": "uint256"
        }
      ],
      "name": "Deposit",
      "type": "event"
    },
    {
      "anonymous": false,
      "inputs": [
        {
          "indexed": true,
          "internalType": "address",
          "name": "operatorAddress",
          "type": "address"
        }
      ],
      "name": "NewOperator",
      "type": "event"
    },
    {
      "anonymous": false,
      "inputs": [
        {
          "indexed": true,
          "internalType": "address",
          "name": "previousOwner",
          "type": "address"
        },
        {
          "indexed": true,
          "internalType": "address",
          "name": "newOwner",
          "type": "address"
        }
      ],
      "name": "OwnershipTransferred",
      "type": "event"
    },
    {
      "anonymous": false,
      "inputs": [
        {
          "indexed": true,
          "internalType": "address",
          "name": "to",
          "type": "address"
        },
        {
          "indexed": false,
          "internalType": "uint256",
          "name": "amount",
          "type": "uint256"
        },
        {
          "indexed": false,
          "internalType": "bool",
          "name": "withUpdate",
          "type": "bool"
        }
      ],
      "name": "Upkeep",
      "type": "event"
    },
    {
      "anonymous": false,
      "inputs": [
        {
          "indexed": true,
          "internalType": "address",
          "name": "token",
          "type": "address"
        },
        {
          "indexed": true,
          "internalType": "address",
          "name": "to",
          "type": "address"
        },
        {
          "indexed": false,
          "internalType": "uint256",
          "name": "amount",
          "type": "uint256"
        }
      ],
      "name": "Withdraw",
      "type": "event"
    },
    {
      "inputs": [],
      "name": "Cake",
      "outputs": [
        {
          "internalType": "contract IERC20",
          "name": "",
          "type": "address"
        }
      ],
      "stateMutability": "view",
      "type": "function"
    },
    {
      "inputs": [],
      "name": "MasterChefV2",
      "outputs": [
        {
          "internalType": "contract IMasterChefV2",
          "name": "",
          "type": "address"
        }
      ],
      "stateMutability": "view",
      "type": "function"
    },
    {
      "inputs": [],
      "name": "MasterChefV3",
      "outputs": [
        {
          "internalType": "contract IMasterChefV3",
          "name": "",
          "type": "address"
        }
      ],
      "stateMutability": "view",
      "type": "function"
    },
    {
      "inputs": [],
      "name": "V2_Pid",
      "outputs": [
        {
          "internalType": "uint256",
          "name": "",
          "type": "uint256"
        }
      ],
      "stateMutability": "view",
      "type": "function"
    },
    {
      "inputs": [
        {
          "internalType": "contract IERC20",
          "name": "_dummyToken",
          "type": "address"
        }
      ],
      "name": "depositForMasterChefV2Pool",
      "outputs": [],
      "stateMutability": "nonpayable",
      "type": "function"
    },
    {
      "inputs": [],
      "name": "operatorAddress",
      "outputs": [
        {
          "internalType": "address",
          "name": "",
          "type": "address"
        }
      ],
      "stateMutability": "view",
      "type": "function"
    },
    {
      "inputs": [],
      "name": "owner",
      "outputs": [
        {
          "internalType": "address",
          "name": "",
          "type": "address"
        }
      ],
      "stateMutability": "view",
      "type": "function"
    },
    {
      "inputs": [],
      "name": "renounceOwnership",
      "outputs": [],
      "stateMutability": "nonpayable",
      "type": "function"
    },
    {
      "inputs": [
        {
          "internalType": "address",
          "name": "_operatorAddress",
          "type": "address"
        }
      ],
      "name": "setOperator",
      "outputs": [],
      "stateMutability": "nonpayable",
      "type": "function"
    },
    {
      "inputs": [
        {
          "internalType": "address",
          "name": "newOwner",
          "type": "address"
        }
      ],
      "name": "transferOwnership",
      "outputs": [],
      "stateMutability": "nonpayable",
      "type": "function"
    },
    {
      "inputs": [
        {
          "internalType": "uint256",
          "name": "_amount",
          "type": "uint256"
        },
        {
          "internalType": "uint256",
          "name": "_duration",
          "type": "uint256"
        },
        {
          "internalType": "bool",
          "name": "_withUpdate",
          "type": "bool"
        }
      ],
      "name": "upkeep",
      "outputs": [],
      "stateMutability": "nonpayable",
      "type": "function"
    },
    {
      "inputs": [
        {
          "internalType": "contract IERC20",
          "name": "_token",
          "type": "address"
        }
      ],
      "name": "withdraw",
      "outputs": [],
      "stateMutability": "nonpayable",
      "type": "function"
    }
  ],
  "bytecode": {
    "object": "0x6101006040523480156200001257600080fd5b506040516200141b3803806200141b8339810160408190526200003591620004aa565b620000403362000079565b6001600160a01b0380851660a05283811660e0528216608081905260c08290526200006f9084600019620000c9565b50505050620005c2565b600080546001600160a01b038381166001600160a01b0319831681178455604051919092169283917f8be0079c531659141344cd1fd0a4f28419497f9722a3daafe3b4186f6b6457e09190a35050565b801580620001475750604051636eb1769f60e11b81523060048201526001600160a01b03838116602483015284169063dd62ed3e90604401602060405180830381865afa1580156200011f573d6000803e3d6000fd5b505050506040513d601f19601f8201168201806040525081019062000145919062000504565b155b620001bf5760405162461bcd60e51b815260206004820152603660248201527f5361666545524332303a20617070726f76652066726f6d206e6f6e2d7a65726f60448201527f20746f206e6f6e2d7a65726f20616c6c6f77616e63650000000000000000000060648201526084015b60405180910390fd5b604080516001600160a01b038416602482015260448082018490528251808303909101815260649091019091526020810180516001600160e01b0390811663095ea7b360e01b17909152620002179185916200021c16565b505050565b6040805180820190915260208082527f5361666545524332303a206c6f772d6c6576656c2063616c6c206661696c6564908201526000906200026b906001600160a01b038516908490620002ed565b8051909150156200021757808060200190518101906200028c91906200051e565b620002175760405162461bcd60e51b815260206004820152602a60248201527f5361666545524332303a204552433230206f7065726174696f6e20646964206e6044820152691bdd081cdd58d8d9595960b21b6064820152608401620001b6565b6060620002fe848460008562000306565b949350505050565b606082471015620003695760405162461bcd60e51b815260206004820152602660248201527f416464726573733a20696e73756666696369656e742062616c616e636520666f6044820152651c8818d85b1b60d21b6064820152608401620001b6565b600080866001600160a01b031685876040516200038791906200056f565b60006040518083038185875af1925050503d8060008114620003c6576040519150601f19603f3d011682016040523d82523d6000602084013e620003cb565b606091505b509092509050620003df87838387620003ea565b979650505050505050565b606083156200045e57825160000362000456576001600160a01b0385163b620004565760405162461bcd60e51b815260206004820152601d60248201527f416464726573733a2063616c6c20746f206e6f6e2d636f6e74726163740000006044820152606401620001b6565b5081620002fe565b620002fe8383815115620004755781518083602001fd5b8060405162461bcd60e51b8152600401620001b691906200058d565b6001600160a01b0381168114620004a757600080fd5b50565b60008060008060808587031215620004c157600080fd5b8451620004ce8162000491565b6020860151909450620004e18162000491565b6040860151909350620004f48162000491565b6060959095015193969295505050565b6000602082840312156200051757600080fd5b5051919050565b6000602082840312156200053157600080fd5b815180151581146200054257600080fd5b9392505050565b60005b83811015620005665781810151838201526020016200054c565b50506000910152565b600082516200058381846020870162000549565b9190910192915050565b6020815260008251806020840152620005ae81604085016020870162000549565b601f01601f19169190910160400192915050565b60805160a05160c05160e051610dd9620006426000396000818161010301528181610322015261039d01526000818161012a01528181610622015281816106ba015261083b0152600081816101d8015281816105960152818161064f015281816106e8015261086801526000818161017201526102730152610dd96000f3fe608060405234801561001057600080fd5b50600436106100b45760003560e01c8063715018a611610071578063715018a6146101945780638da5cb5b1461019c5780639d9e97d9146101ad578063b3ab15fb146101c0578063e5653aa1146101d3578063f2fde38b146101fa57600080fd5b80630ce5d4cc146100b9578063127effb2146100ce5780631ad8c1e4146100fe5780634d88ad791461012557806351cff8d91461015a57806360911f2a1461016d575b600080fd5b6100cc6100c7366004610c88565b61020d565b005b6001546100e1906001600160a01b031681565b6040516001600160a01b0390911681526020015b60405180910390f35b6100e17f000000000000000000000000000000000000000000000000000000000000000081565b61014c7f000000000000000000000000000000000000000000000000000000000000000081565b6040519081526020016100f5565b6100cc610168366004610cd6565b6103f2565b6100e17f000000000000000000000000000000000000000000000000000000000000000081565b6100cc6104c0565b6000546001600160a01b03166100e1565b6100cc6101bb366004610cd6565b6104d4565b6100cc6101ce366004610cd6565b610735565b6100e17f000000000000000000000000000000000000000000000000000000000000000081565b6100cc610208366004610cd6565b6107ae565b6001546001600160a01b0316331480159061023357506000546001600160a01b03163314155b1561025157604051634c7bb68760e11b815260040160405180910390fd5b61025961082c565b6040516370a0823160e01b815230600482015283906000907f00000000000000000000000000000000000000000000000000000000000000006001600160a01b0316906370a0823190602401602060405180830381865afa1580156102c2573d6000803e3d6000fd5b505050506040513d601f19601f820116820180604052508101906102e69190610cfa565b90508415806102f457508085115b156102fd578091505b604051630339753360e21b8152600481018390526024810185905283151560448201527f00000000000000000000000000000000000000000000000000000000000000006001600160a01b031690630ce5d4cc90606401600060405180830381600087803b15801561036e57600080fd5b505af1158015610382573d6000803e3d6000fd5b50506040805185815286151560208201526001600160a01b037f00000000000000000000000000000000000000000000000000000000000000001693507f9bc0a7d1ea34f5c0b59023cff769f5d2cc8860bf24be25254ce420e658d48a7c92500160405180910390a25050505050565b6103fa6108ce565b6040516370a0823160e01b81523060048201526000906001600160a01b038316906370a0823190602401602060405180830381865afa158015610441573d6000803e3d6000fd5b505050506040513d601f19601f820116820180604052508101906104659190610cfa565b905061047b6001600160a01b0383163383610928565b60405181815233906001600160a01b038416907f9b1bfa7fa9ee420a16e124f794c35ac9f90472acc99140eb2f6447c714cad8eb906020015b60405180910390a35050565b6104c86108ce565b6104d26000610990565b565b6104dc6108ce565b6040516370a0823160e01b81523360048201526000906001600160a01b038316906370a0823190602401602060405180830381865afa158015610523573d6000803e3d6000fd5b505050506040513d601f19601f820116820180604052508101906105479190610cfa565b90508060000361056a57604051636165515360e11b815260040160405180910390fd5b61057f6001600160a01b0383163330846109e0565b60405163095ea7b360e01b81526001600160a01b037f0000000000000000000000000000000000000000000000000000000000000000811660048301526024820183905283169063095ea7b3906044016020604051808303816000875af11580156105ee573d6000803e3d6000fd5b505050506040513d601f19601f820116820180604052508101906106129190610d13565b50604051631c57762b60e31b81527f00000000000000000000000000000000000000000000000000000000000000006004820152602481018290527f00000000000000000000000000000000000000000000000000000000000000006001600160a01b03169063e2bbb15890604401600060405180830381600087803b15801561069b57600080fd5b505af11580156106af573d6000803e3d6000fd5b5050604080518481527f000000000000000000000000000000000000000000000000000000000000000060208201526001600160a01b037f00000000000000000000000000000000000000000000000000000000000000001693503392507fdcbc1c05240f31ff3ad067ef1ee35ce4997762752e3a095284754544f4c709d791016104b4565b61073d6108ce565b6001600160a01b0381166107645760405163d92e233d60e01b815260040160405180910390fd5b600180546001600160a01b0319166001600160a01b0383169081179091556040517fda12ee837e6978172aaf54b16145ffe08414fd8710092ef033c71b8eb6ec189a90600090a250565b6107b66108ce565b6001600160a01b0381166108205760405162461bcd60e51b815260206004820152602660248201527f4f776e61626c653a206e6577206f776e657220697320746865207a65726f206160448201526564647265737360d01b60648201526084015b60405180910390fd5b61082981610990565b50565b604051630441a3e760e41b81527f00000000000000000000000000000000000000000000000000000000000000006004820152600060248201527f00000000000000000000000000000000000000000000000000000000000000006001600160a01b03169063441a3e7090604401600060405180830381600087803b1580156108b457600080fd5b505af11580156108c8573d6000803e3d6000fd5b50505050565b6000546001600160a01b031633146104d25760405162461bcd60e51b815260206004820181905260248201527f4f776e61626c653a2063616c6c6572206973206e6f7420746865206f776e65726044820152606401610817565b6040516001600160a01b03831660248201526044810182905261098b90849063a9059cbb60e01b906064015b60408051601f198184030181529190526020810180516001600160e01b03166001600160e01b031990931692909217909152610a18565b505050565b600080546001600160a01b038381166001600160a01b0319831681178455604051919092169283917f8be0079c531659141344cd1fd0a4f28419497f9722a3daafe3b4186f6b6457e09190a35050565b6040516001600160a01b03808516602483015283166044820152606481018290526108c89085906323b872dd60e01b90608401610954565b6000610a6d826040518060400160405280602081526020017f5361666545524332303a206c6f772d6c6576656c2063616c6c206661696c6564815250856001600160a01b0316610aea9092919063ffffffff16565b80519091501561098b5780806020019051810190610a8b9190610d13565b61098b5760405162461bcd60e51b815260206004820152602a60248201527f5361666545524332303a204552433230206f7065726174696f6e20646964206e6044820152691bdd081cdd58d8d9595960b21b6064820152608401610817565b6060610af98484600085610b01565b949350505050565b606082471015610b625760405162461bcd60e51b815260206004820152602660248201527f416464726573733a20696e73756666696369656e742062616c616e636520666f6044820152651c8818d85b1b60d21b6064820152608401610817565b600080866001600160a01b03168587604051610b7e9190610d54565b60006040518083038185875af1925050503d8060008114610bbb576040519150601f19603f3d011682016040523d82523d6000602084013e610bc0565b606091505b5091509150610bd187838387610bdc565b979650505050505050565b60608315610c4b578251600003610c44576001600160a01b0385163b610c445760405162461bcd60e51b815260206004820152601d60248201527f416464726573733a2063616c6c20746f206e6f6e2d636f6e74726163740000006044820152606401610817565b5081610af9565b610af98383815115610c605781518083602001fd5b8060405162461bcd60e51b81526004016108179190610d70565b801515811461082957600080fd5b600080600060608486031215610c9d57600080fd5b83359250602084013591506040840135610cb681610c7a565b809150509250925092565b6001600160a01b038116811461082957600080fd5b600060208284031215610ce857600080fd5b8135610cf381610cc1565b9392505050565b600060208284031215610d0c57600080fd5b5051919050565b600060208284031215610d2557600080fd5b8151610cf381610c7a565b60005b83811015610d4b578181015183820152602001610d33565b50506000910152565b60008251610d66818460208701610d30565b9190910192915050565b6020815260008251806020840152610d8f816040850160208701610d30565b601f01601f1916919091016040019291505056fea26469706673582212202d44607a622412ab56759ab94516c3f9be1f885c036767ceac18e2e02553d85d64736f6c63430008150033",
    "linkReferences": {}
  },
  "methodIdentifiers": {
    "Cake()": "60911f2a",
    "MasterChefV2()": "e5653aa1",
    "MasterChefV3()": "1ad8c1e4",
    "V2_Pid()": "4d88ad79",
    "depositForMasterChefV2Pool(address)": "9d9e97d9",
    "operatorAddress()": "127effb2",
    "owner()": "8da5cb5b",
    "renounceOwnership()": "715018a6",
    "setOperator(address)": "b3ab15fb",
    "transferOwnership(address)": "f2fde38b",
    "upkeep(uint256,uint256,bool)": "0ce5d4cc",
    "withdraw(address)": "51cff8d9"
  },
  "id": 45
}