{
  "abi": [
    {
      "inputs": [
        {
          "internalType": "address",
          "name": "_deployer",
          "type": "address"
        },
        {
          "internalType": "address",
          "name": "_factory",
          "type": "address"
        },
        {
          "internalType": "address",
          "name": "_WETH9",
          "type": "address"
        }
      ],
      "stateMutability": "nonpayable",
      "type": "constructor"
    },
    {
      "inputs": [],
      "name": "WETH9",
      "outputs": [
        {
          "internalType": "address",
          "name": "",
          "type": "address"
        }
      ],
      "stateMutability": "view",
      "type": "function"
    },
    {
      "inputs": [],
      "name": "deployer",
      "outputs": [
        {
          "internalType": "address",
          "name": "",
          "type": "address"
        }
      ],
      "stateMutability": "view",
      "type": "function"
    },
    {
      "inputs": [],
      "name": "factory",
      "outputs": [
        {
          "internalType": "address",
          "name": "",
          "type": "address"
        }
      ],
      "stateMutability": "view",
      "type": "function"
    },
    {
      "inputs": [
        {
          "internalType": "int256",
          "name": "amount0Delta",
          "type": "int256"
        },
        {
          "internalType": "int256",
          "name": "amount1Delta",
          "type": "int256"
        },
        {
          "internalType": "bytes",
          "name": "path",
          "type": "bytes"
        }
      ],
      "name": "pancakeV3SwapCallback",
      "outputs": [],
      "stateMutability": "view",
      "type": "function"
    },
    {
      "inputs": [
        {
          "internalType": "bytes",
          "name": "path",
          "type": "bytes"
        },
        {
          "internalType": "uint256",
          "name": "amountIn",
          "type": "uint256"
        }
      ],
      "name": "quoteExactInput",
      "outputs": [
        {
          "internalType": "uint256",
          "name": "amountOut",
          "type": "uint256"
        },
        {
          "internalType": "uint160[]",
          "name": "sqrtPriceX96AfterList",
          "type": "uint160[]"
        },
        {
          "internalType": "uint32[]",
          "name": "initializedTicksCrossedList",
          "type": "uint32[]"
        },
        {
          "internalType": "uint256",
          "name": "gasEstimate",
          "type": "uint256"
        }
      ],
      "stateMutability": "nonpayable",
      "type": "function"
    },
    {
      "inputs": [
        {
          "components": [
            {
              "internalType": "address",
              "name": "tokenIn",
              "type": "address"
            },
            {
              "internalType": "address",
              "name": "tokenOut",
              "type": "address"
            },
            {
              "internalType": "uint256",
              "name": "amountIn",
              "type": "uint256"
            },
            {
              "internalType": "uint24",
              "name": "fee",
              "type": "uint24"
            },
            {
              "internalType": "uint160",
              "name": "sqrtPriceLimitX96",
              "type": "uint160"
            }
          ],
          "internalType": "struct IQuoterV2.QuoteExactInputSingleParams",
          "name": "params",
          "type": "tuple"
        }
      ],
      "name": "quoteExactInputSingle",
      "outputs": [
        {
          "internalType": "uint256",
          "name": "amountOut",
          "type": "uint256"
        },
        {
          "internalType": "uint160",
          "name": "sqrtPriceX96After",
          "type": "uint160"
        },
        {
          "internalType": "uint32",
          "name": "initializedTicksCrossed",
          "type": "uint32"
        },
        {
          "internalType": "uint256",
          "name": "gasEstimate",
          "type": "uint256"
        }
      ],
      "stateMutability": "nonpayable",
      "type": "function"
    },
    {
      "inputs": [
        {
          "internalType": "bytes",
          "name": "path",
          "type": "bytes"
        },
        {
          "internalType": "uint256",
          "name": "amountOut",
          "type": "uint256"
        }
      ],
      "name": "quoteExactOutput",
      "outputs": [
        {
          "internalType": "uint256",
          "name": "amountIn",
          "type": "uint256"
        },
        {
          "internalType": "uint160[]",
          "name": "sqrtPriceX96AfterList",
          "type": "uint160[]"
        },
        {
          "internalType": "uint32[]",
          "name": "initializedTicksCrossedList",
          "type": "uint32[]"
        },
        {
          "internalType": "uint256",
          "name": "gasEstimate",
          "type": "uint256"
        }
      ],
      "stateMutability": "nonpayable",
      "type": "function"
    },
    {
      "inputs": [
        {
          "components": [
            {
              "internalType": "address",
              "name": "tokenIn",
              "type": "address"
            },
            {
              "internalType": "address",
              "name": "tokenOut",
              "type": "address"
            },
            {
              "internalType": "uint256",
              "name": "amount",
              "type": "uint256"
            },
            {
              "internalType": "uint24",
              "name": "fee",
              "type": "uint24"
            },
            {
              "internalType": "uint160",
              "name": "sqrtPriceLimitX96",
              "type": "uint160"
            }
          ],
          "internalType": "struct IQuoterV2.QuoteExactOutputSingleParams",
          "name": "params",
          "type": "tuple"
        }
      ],
      "name": "quoteExactOutputSingle",
      "outputs": [
        {
          "internalType": "uint256",
          "name": "amountIn",
          "type": "uint256"
        },
        {
          "internalType": "uint160",
          "name": "sqrtPriceX96After",
          "type": "uint160"
        },
        {
          "internalType": "uint32",
          "name": "initializedTicksCrossed",
          "type": "uint32"
        },
        {
          "internalType": "uint256",
          "name": "gasEstimate",
          "type": "uint256"
        }
      ],
      "stateMutability": "nonpayable",
      "type": "function"
    }
  ],
  "bytecode": {
    "object": "0x60e06040523480156200001157600080fd5b5060405162001d3938038062001d39833981016040819052620000349162000079565b6001600160601b0319606093841b811660805291831b821660a05290911b1660c052620000c2565b80516001600160a01b03811681146200007457600080fd5b919050565b6000806000606084860312156200008e578283fd5b62000099846200005c565b9250620000a9602085016200005c565b9150620000b9604085016200005c565b90509250925092565b60805160601c60a05160601c60c05160601c611c2d6200010c600039806105915250806108285250806101845280610280528061060952806108a05280610bf95250611c2d6000f3fe608060405234801561001057600080fd5b50600436106100885760003560e01c8063c45a01551161005b578063c45a015514610106578063c6a5026a1461010e578063cdca175314610121578063d5f394881461013457610088565b806323a69e751461008d5780632f80bb1d146100a25780634aa4a4fc146100ce578063bd21704a146100e3575b600080fd5b6100a061009b3660046117c5565b61013c565b005b6100b56100b036600461173c565b6103da565b6040516100c59493929190611aa4565b60405180910390f35b6100d661058f565b6040516100c591906119df565b6100f66100f1366004611886565b6105b3565b6040516100c59493929190611b3f565b6100d6610826565b6100f661011c366004611886565b61084a565b6100b561012f36600461173c565b610a60565b6100d6610bf7565b600083138061014b5750600082135b61015457600080fd5b600080600061016284610c1b565b92509250925073__$708233afd6c8f5dd23d33a215fb048c749$__638bdb19257f00000000000000000000000000000000000000000000000000000000000000008585856040518563ffffffff1660e01b81526004016101c594939291906119f3565b60206040518083038186803b1580156101dd57600080fd5b505af41580156101f1573d6000803e3d6000fd5b505050506040513d601f19601f82011682018060405250810190610215919061177f565b50600080600080891361024157856001600160a01b0316856001600160a01b031610888a60000361025c565b846001600160a01b0316866001600160a01b03161089896000035b925092509250600073__$708233afd6c8f5dd23d33a215fb048c749$__634e6c8ed87f00000000000000000000000000000000000000000000000000000000000000008989896040518563ffffffff1660e01b81526004016102c194939291906119f3565b60206040518083038186803b1580156102d957600080fd5b505af41580156102ed573d6000803e3d6000fd5b505050506040513d601f19601f82011682018060405250810190610311919061177f565b9050600080826001600160a01b0316633850c7bd6040518163ffffffff1660e01b815260040160e06040518083038186803b15801561034f57600080fd5b505afa158015610363573d6000803e3d6000fd5b505050506040513d601f19601f8201168201806040525081019061038791906118a1565b50505050509150915085156103ad57604051848152826020820152816040820152606081fd5b600054156103c35760005484146103c357600080fd5b604051858152826020820152816040820152606081fd5b600060608060006103ea86610c4c565b67ffffffffffffffff8111801561040057600080fd5b5060405190808252806020026020018201604052801561042a578160200160208202803683370190505b50925061043686610c4c565b67ffffffffffffffff8111801561044c57600080fd5b50604051908082528060200260200182016040528015610476578160200160208202803683370190505b50915060005b600080600061048a8a610c1b565b9250925092506000806000806104e66040518060a00160405280886001600160a01b03168152602001896001600160a01b031681526020018f81526020018762ffffff16815260200160006001600160a01b03168152506105b3565b9350935093509350828b89815181106104fb57fe5b60200260200101906001600160a01b031690816001600160a01b031681525050818a898151811061052857fe5b63ffffffff90921660209283029190910190910152929b50968201966001909601958b926105558e610c5d565b1561056a576105638e610c65565b9d5061057a565b8c9b505050505050505050610586565b5050505050505061047c565b92959194509250565b7f000000000000000000000000000000000000000000000000000000000000000081565b6020810151815160608301516040516309cd91db60e31b81526000938493849384936001600160a01b038085169084161093859373__$708233afd6c8f5dd23d33a215fb048c749$__93634e6c8ed893610634937f0000000000000000000000000000000000000000000000000000000000000000939290916004016119f3565b60206040518083038186803b15801561064c57600080fd5b505af4158015610660573d6000803e3d6000fd5b505050506040513d601f19601f82011682018060405250810190610684919061177f565b905086608001516001600160a01b0316600014156106a55760408701516000555b60005a9050816001600160a01b031663128acb0830856106c88c60400151610c82565b6000038c608001516001600160a01b03166000146106ea578c60800151610710565b876107095773fffd8963efd1fc6a506488495d951d5263988d25610710565b6401000276a45b8d602001518e606001518f60000151604051602001610731939291906119a4565b6040516020818303038152906040526040518663ffffffff1660e01b8152600401610760959493929190611a21565b6040805180830381600087803b15801561077957600080fd5b505af19250505080156107a9575060408051601f3d908101601f191682019092526107a6918101906117a2565b60015b610819573d8080156107d7576040519150601f19603f3d011682016040523d82523d6000602084013e6107dc565b606091505b505a8203945088608001516001600160a01b0316600014156107fd57600080555b610808818487610c98565b97509750975097505050505061081f565b50505050505b9193509193565b7f000000000000000000000000000000000000000000000000000000000000000081565b6020810151815160608301516040516309cd91db60e31b81526000938493849384936001600160a01b038085169084161093859373__$708233afd6c8f5dd23d33a215fb048c749$__93634e6c8ed8936108cb937f0000000000000000000000000000000000000000000000000000000000000000939290916004016119f3565b60206040518083038186803b1580156108e357600080fd5b505af41580156108f7573d6000803e3d6000fd5b505050506040513d601f19601f8201168201806040525081019061091b919061177f565b905060005a9050816001600160a01b031663128acb0830856109408c60400151610c82565b60808d01516001600160a01b03161561095d578c60800151610983565b8761097c5773fffd8963efd1fc6a506488495d951d5263988d25610983565b6401000276a45b8d600001518e606001518f602001516040516020016109a4939291906119a4565b6040516020818303038152906040526040518663ffffffff1660e01b81526004016109d3959493929190611a21565b6040805180830381600087803b1580156109ec57600080fd5b505af1925050508015610a1c575060408051601f3d908101601f19168201909252610a19918101906117a2565b60015b610819573d808015610a4a576040519150601f19603f3d011682016040523d82523d6000602084013e610a4f565b606091505b505a82039450610808818487610c98565b60006060806000610a7086610c4c565b67ffffffffffffffff81118015610a8657600080fd5b50604051908082528060200260200182016040528015610ab0578160200160208202803683370190505b509250610abc86610c4c565b67ffffffffffffffff81118015610ad257600080fd5b50604051908082528060200260200182016040528015610afc578160200160208202803683370190505b50915060005b6000806000610b108a610c1b565b925092509250600080600080610b6c6040518060a00160405280896001600160a01b03168152602001886001600160a01b031681526020018f81526020018762ffffff16815260200160006001600160a01b031681525061084a565b9350935093509350828b8981518110610b8157fe5b60200260200101906001600160a01b031690816001600160a01b031681525050818a8981518110610bae57fe5b63ffffffff90921660209283029190910190910152929b50968201966001909601958b92610bdb8e610c5d565b1561056a57610be98e610c65565b9d5050505050505050610b02565b7f000000000000000000000000000000000000000000000000000000000000000081565b60008080610c298482610d52565b9250610c36846014610e02565b9050610c43846017610d52565b91509193909250565b80516017601319909101045b919050565b516042111590565b8051606090610c7c90839060179060161901610ea9565b92915050565b6000600160ff1b8210610c9457600080fd5b5090565b600080600080600080876001600160a01b0316633850c7bd6040518163ffffffff1660e01b815260040160e06040518083038186803b158015610cda57600080fd5b505afa158015610cee573d6000803e3d6000fd5b505050506040513d601f19601f82011682018060405250810190610d1291906118a1565b50939650610d2794508d9350610ffa92505050565b91975095509050610d426001600160a01b0389168383611087565b9350869250505093509350935093565b600081826014011015610da1576040805162461bcd60e51b8152602060048201526012602482015271746f416464726573735f6f766572666c6f7760701b604482015290519081900360640190fd5b8160140183511015610df2576040805162461bcd60e51b8152602060048201526015602482015274746f416464726573735f6f75744f66426f756e647360581b604482015290519081900360640190fd5b500160200151600160601b900490565b600081826003011015610e50576040805162461bcd60e51b8152602060048201526011602482015270746f55696e7432345f6f766572666c6f7760781b604482015290519081900360640190fd5b8160030183511015610ea0576040805162461bcd60e51b8152602060048201526014602482015273746f55696e7432345f6f75744f66426f756e647360601b604482015290519081900360640190fd5b50016003015190565b60608182601f011015610ef4576040805162461bcd60e51b815260206004820152600e60248201526d736c6963655f6f766572666c6f7760901b604482015290519081900360640190fd5b828284011015610f3c576040805162461bcd60e51b815260206004820152600e60248201526d736c6963655f6f766572666c6f7760901b604482015290519081900360640190fd5b81830184511015610f88576040805162461bcd60e51b8152602060048201526011602482015270736c6963655f6f75744f66426f756e647360781b604482015290519081900360640190fd5b606082158015610fa75760405191506000825260208201604052610ff1565b6040519150601f8416801560200281840101858101878315602002848b0101015b81831015610fe0578051835260209283019201610fc8565b5050858452601f01601f1916604052505b50949350505050565b60008060008351606014611066576044845110156110335760405162461bcd60e51b815260040161102a90611a7a565b60405180910390fd5b6004840193508380602001905181019061104d9190611813565b60405162461bcd60e51b815260040161102a9190611a67565b8380602001905181019061107a919061193b565b9250925092509193909250565b60008060008060008060008060088b6001600160a01b031663d0c93a7c6040518163ffffffff1660e01b815260040160206040518083038186803b1580156110ce57600080fd5b505afa1580156110e2573d6000803e3d6000fd5b505050506040513d60208110156110f857600080fd5b5051600290810b908c900b8161110a57fe5b0560020b901d905060006101008c6001600160a01b031663d0c93a7c6040518163ffffffff1660e01b815260040160206040518083038186803b15801561115057600080fd5b505afa158015611164573d6000803e3d6000fd5b505050506040513d602081101561117a57600080fd5b5051600290810b908d900b8161118c57fe5b0560020b8161119757fe5b079050600060088d6001600160a01b031663d0c93a7c6040518163ffffffff1660e01b815260040160206040518083038186803b1580156111d757600080fd5b505afa1580156111eb573d6000803e3d6000fd5b505050506040513d602081101561120157600080fd5b5051600290810b908d900b8161121357fe5b0560020b901d905060006101008e6001600160a01b031663d0c93a7c6040518163ffffffff1660e01b815260040160206040518083038186803b15801561125957600080fd5b505afa15801561126d573d6000803e3d6000fd5b505050506040513d602081101561128357600080fd5b5051600290810b908e900b8161129557fe5b0560020b816112a057fe5b07905060008160ff166001901b8f6001600160a01b0316635339c296856040518263ffffffff1660e01b8152600401808260010b815260200191505060206040518083038186803b1580156112f457600080fd5b505afa158015611308573d6000803e3d6000fd5b505050506040513d602081101561131e57600080fd5b5051161180156113a457508d6001600160a01b031663d0c93a7c6040518163ffffffff1660e01b815260040160206040518083038186803b15801561136257600080fd5b505afa158015611376573d6000803e3d6000fd5b505050506040513d602081101561138c57600080fd5b5051600290810b908d900b8161139e57fe5b0760020b155b80156113b557508b60020b8d60020b135b945060008360ff166001901b8f6001600160a01b0316635339c296876040518263ffffffff1660e01b8152600401808260010b815260200191505060206040518083038186803b15801561140857600080fd5b505afa15801561141c573d6000803e3d6000fd5b505050506040513d602081101561143257600080fd5b5051161180156114b857508d6001600160a01b031663d0c93a7c6040518163ffffffff1660e01b815260040160206040518083038186803b15801561147657600080fd5b505afa15801561148a573d6000803e3d6000fd5b505050506040513d60208110156114a057600080fd5b5051600290810b908e900b816114b257fe5b0760020b155b80156114c957508b60020b8d60020b125b95508160010b8460010b12806114f557508160010b8460010b1480156114f557508060ff168360ff1611155b1561150b57839950829750819850809650611518565b8199508097508398508296505b505060001960ff87161b9150505b8560010b8760010b136115e8578560010b8760010b141561154d5760001960ff858103161c165b6000818c6001600160a01b0316635339c2968a6040518263ffffffff1660e01b8152600401808260010b815260200191505060206040518083038186803b15801561159757600080fd5b505afa1580156115ab573d6000803e3d6000fd5b505050506040513d60208110156115c157600080fd5b50511690506115cf81611610565b61ffff1698909801975050600190950194600019611526565b81156115f5576001880397505b8215611602576001880397505b505050505050509392505050565b6000805b8215610c7c57600019830190921691600101611614565b600082601f83011261163b578081fd5b813561164e61164982611b8d565b611b69565b818152846020838601011115611662578283fd5b816020850160208301379081016020019190915292915050565b8051600281900b8114610c5857600080fd5b600060a0828403121561169f578081fd5b60405160a0810181811067ffffffffffffffff821117156116bc57fe5b60405290508082356116cd81611bdf565b815260208301356116dd81611bdf565b602082015260408381013590820152606083013562ffffff8116811461170257600080fd5b60608201526117136080840161171f565b60808201525092915050565b8035610c5881611bdf565b805161ffff81168114610c5857600080fd5b6000806040838503121561174e578182fd5b823567ffffffffffffffff811115611764578283fd5b6117708582860161162b565b95602094909401359450505050565b600060208284031215611790578081fd5b815161179b81611bdf565b9392505050565b600080604083850312156117b4578182fd5b505080516020909101519092909150565b6000806000606084860312156117d9578081fd5b8335925060208401359150604084013567ffffffffffffffff8111156117fd578182fd5b6118098682870161162b565b9150509250925092565b600060208284031215611824578081fd5b815167ffffffffffffffff81111561183a578182fd5b8201601f8101841361184a578182fd5b805161185861164982611b8d565b81815285602083850101111561186c578384fd5b61187d826020830160208601611baf565b95945050505050565b600060a08284031215611897578081fd5b61179b838361168e565b600080600080600080600060e0888a0312156118bb578485fd5b87516118c681611bdf565b96506118d46020890161167c565b95506118e26040890161172a565b94506118f06060890161172a565b93506118fe6080890161172a565b925060a088015163ffffffff81168114611916578283fd5b60c0890151909250801515811461192b578182fd5b8091505092959891949750929550565b60008060006060848603121561194f578081fd5b83519250602084015161196181611bdf565b915061196f6040850161167c565b90509250925092565b60008151808452611990816020860160208601611baf565b601f01601f19169290920160200192915050565b606093841b6bffffffffffffffffffffffff19908116825260e89390931b6001600160e81b0319166014820152921b166017820152602b0190565b6001600160a01b0391909116815260200190565b6001600160a01b03948516815292841660208401529216604082015262ffffff909116606082015260800190565b6001600160a01b0386811682528515156020830152604082018590528316606082015260a060808201819052600090611a5c90830184611978565b979650505050505050565b60006020825261179b6020830184611978565b60208082526010908201526f2ab732bc3832b1ba32b21032b93937b960811b604082015260600190565b600060808201868352602060808185015281875180845260a0860191508289019350845b81811015611aed5784516001600160a01b031683529383019391830191600101611ac8565b505084810360408601528651808252908201925081870190845b81811015611b2957825163ffffffff1685529383019391830191600101611b07565b5050505060609290920192909252949350505050565b9384526001600160a01b0392909216602084015263ffffffff166040830152606082015260800190565b60405181810167ffffffffffffffff81118282101715611b8557fe5b604052919050565b600067ffffffffffffffff821115611ba157fe5b50601f01601f191660200190565b60005b83811015611bca578181015183820152602001611bb2565b83811115611bd9576000848401525b50505050565b6001600160a01b0381168114611bf457600080fd5b5056fea26469706673582212201433d2293248d1c9380d958ac67e07622cadbdfe6c2d92b78dfaed85f06d520964736f6c63430007060033",
    "linkReferences": {
      "src/router/contracts/libraries/SmartRouterHelper.sol": {
        "SmartRouterHelper": [
          {
            "start": 630,
            "length": 20
          },
          {
            "start": 882,
            "length": 20
          },
          {
            "start": 1781,
            "length": 20
          },
          {
            "start": 2444,
            "length": 20
          }
        ]
      }
    }
  },
  "methodIdentifiers": {
    "WETH9()": "4aa4a4fc",
    "deployer()": "d5f39488",
    "factory()": "c45a0155",
    "pancakeV3SwapCallback(int256,int256,bytes)": "23a69e75",
    "quoteExactInput(bytes,uint256)": "cdca1753",
    "quoteExactInputSingle((address,address,uint256,uint24,uint160))": "c6a5026a",
    "quoteExactOutput(bytes,uint256)": "2f80bb1d",
    "quoteExactOutputSingle((address,address,uint256,uint24,uint160))": "bd21704a"
  },
  "id": 62
}