{
  "abi": [
    {
      "inputs": [
        {
          "internalType": "bytes[]",
          "name": "data",
          "type": "bytes[]"
        }
      ],
      "name": "multicall",
      "outputs": [
        {
          "internalType": "bytes[]",
          "name": "results",
          "type": "bytes[]"
        }
      ],
      "stateMutability": "payable",
      "type": "function"
    }
  ],
  "bytecode": {
    "object": "0x608060405234801561001057600080fd5b50610482806100206000396000f3fe60806040526004361061001e5760003560e01c8063ac9650d814610023575b600080fd5b6100366100313660046101ad565b61004c565b6040516100439190610272565b60405180910390f35b60608167ffffffffffffffff811115610067576100676102d4565b60405190808252806020026020018201604052801561009a57816020015b60608152602001906001900390816100855790505b50905060005b828110156101a657600080308686858181106100be576100be6102ea565b90506020028101906100d09190610300565b6040516100de92919061034e565b600060405180830381855af49150503d8060008114610119576040519150601f19603f3d011682016040523d82523d6000602084013e61011e565b606091505b5091509150816101735760448151101561013757600080fd5b60048101905080806020019051810190610151919061035e565b60405162461bcd60e51b815260040161016a919061040b565b60405180910390fd5b80848481518110610186576101866102ea565b60200260200101819052505050808061019e90610425565b9150506100a0565b5092915050565b600080602083850312156101c057600080fd5b823567ffffffffffffffff808211156101d857600080fd5b818501915085601f8301126101ec57600080fd5b8135818111156101fb57600080fd5b8660208260051b850101111561021057600080fd5b60209290920196919550909350505050565b60005b8381101561023d578181015183820152602001610225565b50506000910152565b6000815180845261025e816020860160208601610222565b601f01601f19169290920160200192915050565b6000602080830181845280855180835260408601915060408160051b870101925083870160005b828110156102c757603f198886030184526102b5858351610246565b94509285019290850190600101610299565b5092979650505050505050565b634e487b7160e01b600052604160045260246000fd5b634e487b7160e01b600052603260045260246000fd5b6000808335601e1984360301811261031757600080fd5b83018035915067ffffffffffffffff82111561033257600080fd5b60200191503681900382131561034757600080fd5b9250929050565b8183823760009101908152919050565b60006020828403121561037057600080fd5b815167ffffffffffffffff8082111561038857600080fd5b818401915084601f83011261039c57600080fd5b8151818111156103ae576103ae6102d4565b604051601f8201601f19908116603f011681019083821181831017156103d6576103d66102d4565b816040528281528760208487010111156103ef57600080fd5b610400836020830160208801610222565b979650505050505050565b60208152600061041e6020830184610246565b9392505050565b60006001820161044557634e487b7160e01b600052601160045260246000fd5b506001019056fea2646970667358221220efa5f677cabafad4b91a7df2b18a372b30b164e0c897e47d9f28c75f8a44bd0164736f6c63430008150033",
    "linkReferences": {}
  },
  "methodIdentifiers": {
    "multicall(bytes[])": "ac9650d8"
  },
  "id": 47
}