{
  "abi": [
    {
      "inputs": [
        {
          "internalType": "address",
          "name": "_deployer",
          "type": "address"
        },
        {
          "internalType": "address",
          "name": "_factory",
          "type": "address"
        },
        {
          "internalType": "address",
          "name": "_WETH9",
          "type": "address"
        },
        {
          "internalType": "address",
          "name": "_tokenDescriptor_",
          "type": "address"
        }
      ],
      "stateMutability": "nonpayable",
      "type": "constructor"
    },
    {
      "anonymous": false,
      "inputs": [
        {
          "indexed": true,
          "internalType": "address",
          "name": "owner",
          "type": "address"
        },
        {
          "indexed": true,
          "internalType": "address",
          "name": "approved",
          "type": "address"
        },
        {
          "indexed": true,
          "internalType": "uint256",
          "name": "tokenId",
          "type": "uint256"
        }
      ],
      "name": "Approval",
      "type": "event"
    },
    {
      "anonymous": false,
      "inputs": [
        {
          "indexed": true,
          "internalType": "address",
          "name": "owner",
          "type": "address"
        },
        {
          "indexed": true,
          "internalType": "address",
          "name": "operator",
          "type": "address"
        },
        {
          "indexed": false,
          "internalType": "bool",
          "name": "approved",
          "type": "bool"
        }
      ],
      "name": "ApprovalForAll",
      "type": "event"
    },
    {
      "anonymous": false,
      "inputs": [
        {
          "indexed": true,
          "internalType": "uint256",
          "name": "tokenId",
          "type": "uint256"
        },
        {
          "indexed": false,
          "internalType": "address",
          "name": "recipient",
          "type": "address"
        },
        {
          "indexed": false,
          "internalType": "uint256",
          "name": "amount0",
          "type": "uint256"
        },
        {
          "indexed": false,
          "internalType": "uint256",
          "name": "amount1",
          "type": "uint256"
        }
      ],
      "name": "Collect",
      "type": "event"
    },
    {
      "anonymous": false,
      "inputs": [
        {
          "indexed": true,
          "internalType": "uint256",
          "name": "tokenId",
          "type": "uint256"
        },
        {
          "indexed": false,
          "internalType": "uint128",
          "name": "liquidity",
          "type": "uint128"
        },
        {
          "indexed": false,
          "internalType": "uint256",
          "name": "amount0",
          "type": "uint256"
        },
        {
          "indexed": false,
          "internalType": "uint256",
          "name": "amount1",
          "type": "uint256"
        }
      ],
      "name": "DecreaseLiquidity",
      "type": "event"
    },
    {
      "anonymous": false,
      "inputs": [
        {
          "indexed": true,
          "internalType": "uint256",
          "name": "tokenId",
          "type": "uint256"
        },
        {
          "indexed": false,
          "internalType": "uint128",
          "name": "liquidity",
          "type": "uint128"
        },
        {
          "indexed": false,
          "internalType": "uint256",
          "name": "amount0",
          "type": "uint256"
        },
        {
          "indexed": false,
          "internalType": "uint256",
          "name": "amount1",
          "type": "uint256"
        }
      ],
      "name": "IncreaseLiquidity",
      "type": "event"
    },
    {
      "anonymous": false,
      "inputs": [
        {
          "indexed": true,
          "internalType": "address",
          "name": "from",
          "type": "address"
        },
        {
          "indexed": true,
          "internalType": "address",
          "name": "to",
          "type": "address"
        },
        {
          "indexed": true,
          "internalType": "uint256",
          "name": "tokenId",
          "type": "uint256"
        }
      ],
      "name": "Transfer",
      "type": "event"
    },
    {
      "inputs": [],
      "name": "DOMAIN_SEPARATOR",
      "outputs": [
        {
          "internalType": "bytes32",
          "name": "",
          "type": "bytes32"
        }
      ],
      "stateMutability": "view",
      "type": "function"
    },
    {
      "inputs": [],
      "name": "PERMIT_TYPEHASH",
      "outputs": [
        {
          "internalType": "bytes32",
          "name": "",
          "type": "bytes32"
        }
      ],
      "stateMutability": "view",
      "type": "function"
    },
    {
      "inputs": [],
      "name": "WETH9",
      "outputs": [
        {
          "internalType": "address",
          "name": "",
          "type": "address"
        }
      ],
      "stateMutability": "view",
      "type": "function"
    },
    {
      "inputs": [
        {
          "internalType": "address",
          "name": "to",
          "type": "address"
        },
        {
          "internalType": "uint256",
          "name": "tokenId",
          "type": "uint256"
        }
      ],
      "name": "approve",
      "outputs": [],
      "stateMutability": "nonpayable",
      "type": "function"
    },
    {
      "inputs": [
        {
          "internalType": "address",
          "name": "owner",
          "type": "address"
        }
      ],
      "name": "balanceOf",
      "outputs": [
        {
          "internalType": "uint256",
          "name": "",
          "type": "uint256"
        }
      ],
      "stateMutability": "view",
      "type": "function"
    },
    {
      "inputs": [],
      "name": "baseURI",
      "outputs": [
        {
          "internalType": "string",
          "name": "",
          "type": "string"
        }
      ],
      "stateMutability": "pure",
      "type": "function"
    },
    {
      "inputs": [
        {
          "internalType": "uint256",
          "name": "tokenId",
          "type": "uint256"
        }
      ],
      "name": "burn",
      "outputs": [],
      "stateMutability": "payable",
      "type": "function"
    },
    {
      "inputs": [
        {
          "components": [
            {
              "internalType": "uint256",
              "name": "tokenId",
              "type": "uint256"
            },
            {
              "internalType": "address",
              "name": "recipient",
              "type": "address"
            },
            {
              "internalType": "uint128",
              "name": "amount0Max",
              "type": "uint128"
            },
            {
              "internalType": "uint128",
              "name": "amount1Max",
              "type": "uint128"
            }
          ],
          "internalType": "struct INonfungiblePositionManager.CollectParams",
          "name": "params",
          "type": "tuple"
        }
      ],
      "name": "collect",
      "outputs": [
        {
          "internalType": "uint256",
          "name": "amount0",
          "type": "uint256"
        },
        {
          "internalType": "uint256",
          "name": "amount1",
          "type": "uint256"
        }
      ],
      "stateMutability": "payable",
      "type": "function"
    },
    {
      "inputs": [
        {
          "internalType": "address",
          "name": "token0",
          "type": "address"
        },
        {
          "internalType": "address",
          "name": "token1",
          "type": "address"
        },
        {
          "internalType": "uint24",
          "name": "fee",
          "type": "uint24"
        },
        {
          "internalType": "uint160",
          "name": "sqrtPriceX96",
          "type": "uint160"
        }
      ],
      "name": "createAndInitializePoolIfNecessary",
      "outputs": [
        {
          "internalType": "address",
          "name": "pool",
          "type": "address"
        }
      ],
      "stateMutability": "payable",
      "type": "function"
    },
    {
      "inputs": [
        {
          "components": [
            {
              "internalType": "uint256",
              "name": "tokenId",
              "type": "uint256"
            },
            {
              "internalType": "uint128",
              "name": "liquidity",
              "type": "uint128"
            },
            {
              "internalType": "uint256",
              "name": "amount0Min",
              "type": "uint256"
            },
            {
              "internalType": "uint256",
              "name": "amount1Min",
              "type": "uint256"
            },
            {
              "internalType": "uint256",
              "name": "deadline",
              "type": "uint256"
            }
          ],
          "internalType": "struct INonfungiblePositionManager.DecreaseLiquidityParams",
          "name": "params",
          "type": "tuple"
        }
      ],
      "name": "decreaseLiquidity",
      "outputs": [
        {
          "internalType": "uint256",
          "name": "amount0",
          "type": "uint256"
        },
        {
          "internalType": "uint256",
          "name": "amount1",
          "type": "uint256"
        }
      ],
      "stateMutability": "payable",
      "type": "function"
    },
    {
      "inputs": [],
      "name": "deployer",
      "outputs": [
        {
          "internalType": "address",
          "name": "",
          "type": "address"
        }
      ],
      "stateMutability": "view",
      "type": "function"
    },
    {
      "inputs": [],
      "name": "factory",
      "outputs": [
        {
          "internalType": "address",
          "name": "",
          "type": "address"
        }
      ],
      "stateMutability": "view",
      "type": "function"
    },
    {
      "inputs": [
        {
          "internalType": "uint256",
          "name": "tokenId",
          "type": "uint256"
        }
      ],
      "name": "getApproved",
      "outputs": [
        {
          "internalType": "address",
          "name": "",
          "type": "address"
        }
      ],
      "stateMutability": "view",
      "type": "function"
    },
    {
      "inputs": [
        {
          "components": [
            {
              "internalType": "uint256",
              "name": "tokenId",
              "type": "uint256"
            },
            {
              "internalType": "uint256",
              "name": "amount0Desired",
              "type": "uint256"
            },
            {
              "internalType": "uint256",
              "name": "amount1Desired",
              "type": "uint256"
            },
            {
              "internalType": "uint256",
              "name": "amount0Min",
              "type": "uint256"
            },
            {
              "internalType": "uint256",
              "name": "amount1Min",
              "type": "uint256"
            },
            {
              "internalType": "uint256",
              "name": "deadline",
              "type": "uint256"
            }
          ],
          "internalType": "struct INonfungiblePositionManager.IncreaseLiquidityParams",
          "name": "params",
          "type": "tuple"
        }
      ],
      "name": "increaseLiquidity",
      "outputs": [
        {
          "internalType": "uint128",
          "name": "liquidity",
          "type": "uint128"
        },
        {
          "internalType": "uint256",
          "name": "amount0",
          "type": "uint256"
        },
        {
          "internalType": "uint256",
          "name": "amount1",
          "type": "uint256"
        }
      ],
      "stateMutability": "payable",
      "type": "function"
    },
    {
      "inputs": [
        {
          "internalType": "address",
          "name": "owner",
          "type": "address"
        },
        {
          "internalType": "address",
          "name": "operator",
          "type": "address"
        }
      ],
      "name": "isApprovedForAll",
      "outputs": [
        {
          "internalType": "bool",
          "name": "",
          "type": "bool"
        }
      ],
      "stateMutability": "view",
      "type": "function"
    },
    {
      "inputs": [
        {
          "components": [
            {
              "internalType": "address",
              "name": "token0",
              "type": "address"
            },
            {
              "internalType": "address",
              "name": "token1",
              "type": "address"
            },
            {
              "internalType": "uint24",
              "name": "fee",
              "type": "uint24"
            },
            {
              "internalType": "int24",
              "name": "tickLower",
              "type": "int24"
            },
            {
              "internalType": "int24",
              "name": "tickUpper",
              "type": "int24"
            },
            {
              "internalType": "uint256",
              "name": "amount0Desired",
              "type": "uint256"
            },
            {
              "internalType": "uint256",
              "name": "amount1Desired",
              "type": "uint256"
            },
            {
              "internalType": "uint256",
              "name": "amount0Min",
              "type": "uint256"
            },
            {
              "internalType": "uint256",
              "name": "amount1Min",
              "type": "uint256"
            },
            {
              "internalType": "address",
              "name": "recipient",
              "type": "address"
            },
            {
              "internalType": "uint256",
              "name": "deadline",
              "type": "uint256"
            }
          ],
          "internalType": "struct INonfungiblePositionManager.MintParams",
          "name": "params",
          "type": "tuple"
        }
      ],
      "name": "mint",
      "outputs": [
        {
          "internalType": "uint256",
          "name": "tokenId",
          "type": "uint256"
        },
        {
          "internalType": "uint128",
          "name": "liquidity",
          "type": "uint128"
        },
        {
          "internalType": "uint256",
          "name": "amount0",
          "type": "uint256"
        },
        {
          "internalType": "uint256",
          "name": "amount1",
          "type": "uint256"
        }
      ],
      "stateMutability": "payable",
      "type": "function"
    },
    {
      "inputs": [
        {
          "internalType": "bytes[]",
          "name": "data",
          "type": "bytes[]"
        }
      ],
      "name": "multicall",
      "outputs": [
        {
          "internalType": "bytes[]",
          "name": "results",
          "type": "bytes[]"
        }
      ],
      "stateMutability": "payable",
      "type": "function"
    },
    {
      "inputs": [],
      "name": "name",
      "outputs": [
        {
          "internalType": "string",
          "name": "",
          "type": "string"
        }
      ],
      "stateMutability": "view",
      "type": "function"
    },
    {
      "inputs": [
        {
          "internalType": "uint256",
          "name": "tokenId",
          "type": "uint256"
        }
      ],
      "name": "ownerOf",
      "outputs": [
        {
          "internalType": "address",
          "name": "",
          "type": "address"
        }
      ],
      "stateMutability": "view",
      "type": "function"
    },
    {
      "inputs": [
        {
          "internalType": "uint256",
          "name": "amount0Owed",
          "type": "uint256"
        },
        {
          "internalType": "uint256",
          "name": "amount1Owed",
          "type": "uint256"
        },
        {
          "internalType": "bytes",
          "name": "data",
          "type": "bytes"
        }
      ],
      "name": "pancakeV3MintCallback",
      "outputs": [],
      "stateMutability": "nonpayable",
      "type": "function"
    },
    {
      "inputs": [
        {
          "internalType": "address",
          "name": "spender",
          "type": "address"
        },
        {
          "internalType": "uint256",
          "name": "tokenId",
          "type": "uint256"
        },
        {
          "internalType": "uint256",
          "name": "deadline",
          "type": "uint256"
        },
        {
          "internalType": "uint8",
          "name": "v",
          "type": "uint8"
        },
        {
          "internalType": "bytes32",
          "name": "r",
          "type": "bytes32"
        },
        {
          "internalType": "bytes32",
          "name": "s",
          "type": "bytes32"
        }
      ],
      "name": "permit",
      "outputs": [],
      "stateMutability": "payable",
      "type": "function"
    },
    {
      "inputs": [
        {
          "internalType": "uint256",
          "name": "tokenId",
          "type": "uint256"
        }
      ],
      "name": "positions",
      "outputs": [
        {
          "internalType": "uint96",
          "name": "nonce",
          "type": "uint96"
        },
        {
          "internalType": "address",
          "name": "operator",
          "type": "address"
        },
        {
          "internalType": "address",
          "name": "token0",
          "type": "address"
        },
        {
          "internalType": "address",
          "name": "token1",
          "type": "address"
        },
        {
          "internalType": "uint24",
          "name": "fee",
          "type": "uint24"
        },
        {
          "internalType": "int24",
          "name": "tickLower",
          "type": "int24"
        },
        {
          "internalType": "int24",
          "name": "tickUpper",
          "type": "int24"
        },
        {
          "internalType": "uint128",
          "name": "liquidity",
          "type": "uint128"
        },
        {
          "internalType": "uint256",
          "name": "feeGrowthInside0LastX128",
          "type": "uint256"
        },
        {
          "internalType": "uint256",
          "name": "feeGrowthInside1LastX128",
          "type": "uint256"
        },
        {
          "internalType": "uint128",
          "name": "tokensOwed0",
          "type": "uint128"
        },
        {
          "internalType": "uint128",
          "name": "tokensOwed1",
          "type": "uint128"
        }
      ],
      "stateMutability": "view",
      "type": "function"
    },
    {
      "inputs": [],
      "name": "refundETH",
      "outputs": [],
      "stateMutability": "payable",
      "type": "function"
    },
    {
      "inputs": [
        {
          "internalType": "address",
          "name": "from",
          "type": "address"
        },
        {
          "internalType": "address",
          "name": "to",
          "type": "address"
        },
        {
          "internalType": "uint256",
          "name": "tokenId",
          "type": "uint256"
        }
      ],
      "name": "safeTransferFrom",
      "outputs": [],
      "stateMutability": "nonpayable",
      "type": "function"
    },
    {
      "inputs": [
        {
          "internalType": "address",
          "name": "from",
          "type": "address"
        },
        {
          "internalType": "address",
          "name": "to",
          "type": "address"
        },
        {
          "internalType": "uint256",
          "name": "tokenId",
          "type": "uint256"
        },
        {
          "internalType": "bytes",
          "name": "_data",
          "type": "bytes"
        }
      ],
      "name": "safeTransferFrom",
      "outputs": [],
      "stateMutability": "nonpayable",
      "type": "function"
    },
    {
      "inputs": [
        {
          "internalType": "address",
          "name": "token",
          "type": "address"
        },
        {
          "internalType": "uint256",
          "name": "value",
          "type": "uint256"
        },
        {
          "internalType": "uint256",
          "name": "deadline",
          "type": "uint256"
        },
        {
          "internalType": "uint8",
          "name": "v",
          "type": "uint8"
        },
        {
          "internalType": "bytes32",
          "name": "r",
          "type": "bytes32"
        },
        {
          "internalType": "bytes32",
          "name": "s",
          "type": "bytes32"
        }
      ],
      "name": "selfPermit",
      "outputs": [],
      "stateMutability": "payable",
      "type": "function"
    },
    {
      "inputs": [
        {
          "internalType": "address",
          "name": "token",
          "type": "address"
        },
        {
          "internalType": "uint256",
          "name": "nonce",
          "type": "uint256"
        },
        {
          "internalType": "uint256",
          "name": "expiry",
          "type": "uint256"
        },
        {
          "internalType": "uint8",
          "name": "v",
          "type": "uint8"
        },
        {
          "internalType": "bytes32",
          "name": "r",
          "type": "bytes32"
        },
        {
          "internalType": "bytes32",
          "name": "s",
          "type": "bytes32"
        }
      ],
      "name": "selfPermitAllowed",
      "outputs": [],
      "stateMutability": "payable",
      "type": "function"
    },
    {
      "inputs": [
        {
          "internalType": "address",
          "name": "token",
          "type": "address"
        },
        {
          "internalType": "uint256",
          "name": "nonce",
          "type": "uint256"
        },
        {
          "internalType": "uint256",
          "name": "expiry",
          "type": "uint256"
        },
        {
          "internalType": "uint8",
          "name": "v",
          "type": "uint8"
        },
        {
          "internalType": "bytes32",
          "name": "r",
          "type": "bytes32"
        },
        {
          "internalType": "bytes32",
          "name": "s",
          "type": "bytes32"
        }
      ],
      "name": "selfPermitAllowedIfNecessary",
      "outputs": [],
      "stateMutability": "payable",
      "type": "function"
    },
    {
      "inputs": [
        {
          "internalType": "address",
          "name": "token",
          "type": "address"
        },
        {
          "internalType": "uint256",
          "name": "value",
          "type": "uint256"
        },
        {
          "internalType": "uint256",
          "name": "deadline",
          "type": "uint256"
        },
        {
          "internalType": "uint8",
          "name": "v",
          "type": "uint8"
        },
        {
          "internalType": "bytes32",
          "name": "r",
          "type": "bytes32"
        },
        {
          "internalType": "bytes32",
          "name": "s",
          "type": "bytes32"
        }
      ],
      "name": "selfPermitIfNecessary",
      "outputs": [],
      "stateMutability": "payable",
      "type": "function"
    },
    {
      "inputs": [
        {
          "internalType": "address",
          "name": "operator",
          "type": "address"
        },
        {
          "internalType": "bool",
          "name": "approved",
          "type": "bool"
        }
      ],
      "name": "setApprovalForAll",
      "outputs": [],
      "stateMutability": "nonpayable",
      "type": "function"
    },
    {
      "inputs": [
        {
          "internalType": "bytes4",
          "name": "interfaceId",
          "type": "bytes4"
        }
      ],
      "name": "supportsInterface",
      "outputs": [
        {
          "internalType": "bool",
          "name": "",
          "type": "bool"
        }
      ],
      "stateMutability": "view",
      "type": "function"
    },
    {
      "inputs": [
        {
          "internalType": "address",
          "name": "token",
          "type": "address"
        },
        {
          "internalType": "uint256",
          "name": "amountMinimum",
          "type": "uint256"
        },
        {
          "internalType": "address",
          "name": "recipient",
          "type": "address"
        }
      ],
      "name": "sweepToken",
      "outputs": [],
      "stateMutability": "payable",
      "type": "function"
    },
    {
      "inputs": [],
      "name": "symbol",
      "outputs": [
        {
          "internalType": "string",
          "name": "",
          "type": "string"
        }
      ],
      "stateMutability": "view",
      "type": "function"
    },
    {
      "inputs": [
        {
          "internalType": "uint256",
          "name": "index",
          "type": "uint256"
        }
      ],
      "name": "tokenByIndex",
      "outputs": [
        {
          "internalType": "uint256",
          "name": "",
          "type": "uint256"
        }
      ],
      "stateMutability": "view",
      "type": "function"
    },
    {
      "inputs": [
        {
          "internalType": "address",
          "name": "owner",
          "type": "address"
        },
        {
          "internalType": "uint256",
          "name": "index",
          "type": "uint256"
        }
      ],
      "name": "tokenOfOwnerByIndex",
      "outputs": [
        {
          "internalType": "uint256",
          "name": "",
          "type": "uint256"
        }
      ],
      "stateMutability": "view",
      "type": "function"
    },
    {
      "inputs": [
        {
          "internalType": "uint256",
          "name": "tokenId",
          "type": "uint256"
        }
      ],
      "name": "tokenURI",
      "outputs": [
        {
          "internalType": "string",
          "name": "",
          "type": "string"
        }
      ],
      "stateMutability": "view",
      "type": "function"
    },
    {
      "inputs": [],
      "name": "totalSupply",
      "outputs": [
        {
          "internalType": "uint256",
          "name": "",
          "type": "uint256"
        }
      ],
      "stateMutability": "view",
      "type": "function"
    },
    {
      "inputs": [
        {
          "internalType": "address",
          "name": "from",
          "type": "address"
        },
        {
          "internalType": "address",
          "name": "to",
          "type": "address"
        },
        {
          "internalType": "uint256",
          "name": "tokenId",
          "type": "uint256"
        }
      ],
      "name": "transferFrom",
      "outputs": [],
      "stateMutability": "nonpayable",
      "type": "function"
    },
    {
      "inputs": [
        {
          "internalType": "uint256",
          "name": "amountMinimum",
          "type": "uint256"
        },
        {
          "internalType": "address",
          "name": "recipient",
          "type": "address"
        }
      ],
      "name": "unwrapWETH9",
      "outputs": [],
      "stateMutability": "payable",
      "type": "function"
    },
    {
      "stateMutability": "payable",
      "type": "receive"
    }
  ],
  "bytecode": {
    "object": "0x610140604052600d80546001600160b01b0319166001176001600160b01b0316600160b01b1790553480156200003457600080fd5b5060405162005dca38038062005dca8339810160408190526200005791620002e5565b8383836040518060400160405280601b81526020017f50616e63616b6520563320506f736974696f6e73204e46542d563100000000008152506040518060400160405280600a8152602001695043532d56332d504f5360b01b815250604051806040016040528060018152602001603160f81b8152508282620000e76301ffc9a760e01b6200019760201b60201c565b8151620000fc9060069060208501906200021c565b508051620001129060079060208401906200021c565b50620001256380ac58cd60e01b62000197565b62000137635b5e139f60e01b62000197565b6200014963780e9d6360e01b62000197565b50508251602093840120608052805192019190912060a052506001600160601b0319606093841b811660c05291831b821660e052821b81166101005291901b16610120525062000341915050565b6001600160e01b03198082161415620001f7576040805162461bcd60e51b815260206004820152601c60248201527f4552433136353a20696e76616c696420696e7465726661636520696400000000604482015290519081900360640190fd5b6001600160e01b0319166000908152602081905260409020805460ff19166001179055565b828054600181600116156101000203166002900490600052602060002090601f0160209004810192826200025457600085556200029f565b82601f106200026f57805160ff19168380011785556200029f565b828001600101855582156200029f579182015b828111156200029f57825182559160200191906001019062000282565b50620002ad929150620002b1565b5090565b5b80821115620002ad5760008155600101620002b2565b80516001600160a01b0381168114620002e057600080fd5b919050565b60008060008060808587031215620002fb578384fd5b6200030685620002c8565b93506200031660208601620002c8565b92506200032660408601620002c8565b91506200033660608601620002c8565b905092959194509250565b60805160a05160c05160601c60e05160601c6101005160601c6101205160601c6159f7620003d36000398061287d52508061024452806116295280611714528061179c5280613a725280613ab85280613b2c525080610d455280610e0c5280612830525080610a2552806121e9528061290a5280612bbd52806133c052508061142952508061140852506159f76000f3fe6080604052600436106102345760003560e01c80636352211e1161012e578063ac9650d8116100ab578063d5f394881161006f578063d5f3948814610679578063df2ab5bb1461068e578063e985e9c5146106a1578063f3995c67146106c1578063fc6f7865146106d4576102a4565b8063ac9650d8146105f1578063b88d4fde14610611578063c2e3140a14610631578063c45a015514610644578063c87b56dd14610659576102a4565b806395d89b41116100f257806395d89b411461055157806399eee9d01461056657806399fbab8814610586578063a22cb465146105be578063a4a78f0c146105de576102a4565b80636352211e146104c65780636c0360eb146104e657806370a08231146104fb5780637ac2ff7b1461051b578063883164561461052e576102a4565b806323b872dd116101bc57806342966c681161018057806342966c68146104585780634659a4941461046b57806349404b7c1461047e5780634aa4a4fc146104915780634f6ccce7146104a6576102a4565b806323b872dd146103ce5780632f745c59146103ee57806330adf81f1461040e5780633644e5151461042357806342842e0e14610438576102a4565b80630c49ccbe116102035780630c49ccbe1461034e57806312210e8a1461036f57806313ead5621461037757806318160ddd1461038a578063219f5d17146103ac576102a4565b806301ffc9a7146102a957806306fdde03146102df578063081812fc14610301578063095ea7b31461032e576102a4565b366102a457336001600160a01b037f000000000000000000000000000000000000000000000000000000000000000016146102a2576040805162461bcd60e51b81526020600482015260096024820152684e6f7420574554483960b81b604482015290519081900360640190fd5b005b600080fd5b3480156102b557600080fd5b506102c96102c4366004614edf565b6106e7565b6040516102d69190615428565b60405180910390f35b3480156102eb57600080fd5b506102f461070a565b6040516102d6919061547b565b34801561030d57600080fd5b5061032161031c3660046151e1565b6107a0565b6040516102d6919061530b565b34801561033a57600080fd5b506102a2610349366004614da4565b6107f3565b61036161035c366004614fa4565b6108c9565b6040516102d6929190615602565b6102a2610d11565b610321610385366004614c37565b610d23565b34801561039657600080fd5b5061039f611017565b6040516102d69190615433565b6103bf6103ba366004614fb5565b611028565b6040516102d6939291906155bd565b3480156103da57600080fd5b506102a26103e9366004614c90565b61133d565b3480156103fa57600080fd5b5061039f610409366004614da4565b611394565b34801561041a57600080fd5b5061039f6113bf565b34801561042f57600080fd5b5061039f6113e3565b34801561044457600080fd5b506102a2610453366004614c90565b6114a1565b6102a26104663660046151e1565b6114bc565b6102a2610479366004614e10565b61158b565b6102a261048c3660046151f9565b611625565b34801561049d57600080fd5b5061032161179a565b3480156104b257600080fd5b5061039f6104c13660046151e1565b6117be565b3480156104d257600080fd5b506103216104e13660046151e1565b6117d4565b3480156104f257600080fd5b506102f46117fc565b34801561050757600080fd5b5061039f610516366004614be3565b611801565b6102a2610529366004614e10565b611869565b61054161053c366004615071565b611c5b565b6040516102d694939291906155de565b34801561055d57600080fd5b506102f4612173565b34801561057257600080fd5b506102a2610581366004615240565b6121d4565b34801561059257600080fd5b506105a66105a13660046151e1565b612252565b6040516102d69c9b9a99989796959493929190615610565b3480156105ca57600080fd5b506102a26105d9366004614d77565b612463565b6102a26105ec366004614e10565b612568565b6106046105ff366004614e70565b612601565b6040516102d691906153c8565b34801561061d57600080fd5b506102a261062c366004614cd0565b612741565b6102a261063f366004614e10565b61279f565b34801561065057600080fd5b5061032161282e565b34801561066557600080fd5b506102f46106743660046151e1565b612852565b34801561068557600080fd5b50610321612908565b6102a261069c366004614dcf565b61292c565b3480156106ad57600080fd5b506102c96106bc366004614bff565b612a04565b6102a26106cf366004614e10565b612a32565b6103616106e2366004614f8d565b612aa4565b6001600160e01b0319811660009081526020819052604090205460ff165b919050565b60068054604080516020601f60026000196101006001881615020190951694909404938401819004810282018101909252828152606093909290918301828280156107965780601f1061076b57610100808354040283529160200191610796565b820191906000526020600020905b81548152906001019060200180831161077957829003601f168201915b5050505050905090565b60006107ab82612f6f565b6107d05760405162461bcd60e51b81526004016107c7906154b4565b60405180910390fd5b506000908152600c6020526040902054600160601b90046001600160a01b031690565b60006107fe826117d4565b9050806001600160a01b0316836001600160a01b031614156108515760405162461bcd60e51b81526004018080602001828103825260218152602001806159706021913960400191505060405180910390fd5b806001600160a01b0316610863612f7c565b6001600160a01b0316148061087f575061087f816106bc612f7c565b6108ba5760405162461bcd60e51b815260040180806020018281038252603881526020018061589a6038913960400191505060405180910390fd5b6108c48383612f80565b505050565b60008082356108d83382612ff6565b6108f45760405162461bcd60e51b81526004016107c79061548e565b836080013580610902613092565b111561094b576040805162461bcd60e51b8152602060048201526013602482015272151c985b9cd858dd1a5bdb881d1bdbc81bdb19606a1b604482015290519081900360640190fd5b600061095d6040870160208801615083565b6001600160801b03161161097057600080fd5b84356000908152600c602090815260409182902060018101549092600160801b9091046001600160801b0316916109ab918901908901615083565b6001600160801b0316816001600160801b031610156109c957600080fd5b6001828101546001600160501b03166000908152600b60209081526040808320815160608101835281546001600160a01b039081168252919095015490811692850192909252600160a01b90910462ffffff1690830152610a4a7f000000000000000000000000000000000000000000000000000000000000000083613096565b60018501549091506001600160a01b0382169063a34123a790600160501b8104600290810b91600160681b9004900b610a8960408e0160208f01615083565b6040518463ffffffff1660e01b8152600401610aa793929190615455565b6040805180830381600087803b158015610ac057600080fd5b505af1158015610ad4573d6000803e3d6000fd5b505050506040513d601f19601f82011682018060405250810190610af8919061521d565b909850965060408901358810801590610b15575088606001358710155b610b315760405162461bcd60e51b81526004016107c790615500565b6001840154600090610b5a903090600160501b8104600290810b91600160681b9004900b613175565b9050600080836001600160a01b031663514ea4bf846040518263ffffffff1660e01b8152600401610b8b9190615433565b60a06040518083038186803b158015610ba357600080fd5b505afa158015610bb7573d6000803e3d6000fd5b505050506040513d601f19601f82011682018060405250810190610bdb91906150cd565b50509250925050610c0087600201548303876001600160801b0316600160801b6131ca565b6004880180546001600160801b03198116928e016001600160801b039182160181169290921790556003880154610c4191908303908816600160801b6131ca565b6004880180546001600160801b03808216938e01600160801b9283900482160116029190911790556002870182905560038701819055610c8760408d0160208e01615083565b86038760010160106101000a8154816001600160801b0302191690836001600160801b031602179055508b600001357f26f6a048ee9138f2c0ce266f322cb99228e8d619ae2bff30c67f8dcf9d2377b48d6020016020810190610cea9190615083565b8d8d604051610cfb939291906155bd565b60405180910390a2505050505050505050915091565b4715610d2157610d213347613279565b565b6000836001600160a01b0316856001600160a01b031610610d4357600080fd5b7f00000000000000000000000000000000000000000000000000000000000000006001600160a01b0316631698ee828686866040518463ffffffff1660e01b815260040180846001600160a01b03168152602001836001600160a01b031681526020018262ffffff168152602001935050505060206040518083038186803b158015610dce57600080fd5b505afa158015610de2573d6000803e3d6000fd5b505050506040513d6020811015610df857600080fd5b505190506001600160a01b038116610f2e577f00000000000000000000000000000000000000000000000000000000000000006001600160a01b031663a16712958686866040518463ffffffff1660e01b815260040180846001600160a01b03168152602001836001600160a01b031681526020018262ffffff1681526020019350505050602060405180830381600087803b158015610e9757600080fd5b505af1158015610eab573d6000803e3d6000fd5b505050506040513d6020811015610ec157600080fd5b50516040805163f637731d60e01b81526001600160a01b03858116600483015291519293509083169163f637731d9160248082019260009290919082900301818387803b158015610f1157600080fd5b505af1158015610f25573d6000803e3d6000fd5b5050505061100f565b6000816001600160a01b0316633850c7bd6040518163ffffffff1660e01b815260040160e06040518083038186803b158015610f6957600080fd5b505afa158015610f7d573d6000803e3d6000fd5b505050506040513d60e0811015610f9357600080fd5b505190506001600160a01b03811661100d57816001600160a01b031663f637731d846040518263ffffffff1660e01b815260040180826001600160a01b03168152602001915050600060405180830381600087803b158015610ff457600080fd5b505af1158015611008573d6000803e3d6000fd5b505050505b505b949350505050565b60006110236002613368565b905090565b60008060008360a001358061103b613092565b1115611084576040805162461bcd60e51b8152602060048201526013602482015272151c985b9cd858dd1a5bdb881d1bdbc81bdb19606a1b604482015290519081900360640190fd5b84356000908152600c602090815260408083206001808201546001600160501b0381168652600b855283862084516060808201875282546001600160a01b039081168352929094015480831682890190815262ffffff600160a01b9092048216838901908152885161014081018a528451861681529151909416818a0152925116828701523082850152600160501b8304600290810b810b608080850191909152600160681b909404810b900b60a0830152958c013560c0820152938b013560e0850152908a0135610100840152890135610120830152929061116690613373565b6001870154939a5091985096509150600090611199903090600160501b8104600290810b91600160681b9004900b613175565b9050600080836001600160a01b031663514ea4bf846040518263ffffffff1660e01b81526004016111ca9190615433565b60a06040518083038186803b1580156111e257600080fd5b505afa1580156111f6573d6000803e3d6000fd5b505050506040513d601f19601f8201168201806040525081019061121a91906150cd565b50509250925050611256866002015483038760010160109054906101000a90046001600160801b03166001600160801b0316600160801b6131ca565b6004870180546001600160801b0380821690930183166001600160801b03199091161790556003870154600188015461129d9291840391600160801b9182900416906131ca565b6004870180546001600160801b03600160801b80830482169094018116840291811691909117909155600288018490556003880183905560018801805483810483168e018316909302929091169190911790556040518b35907f3067048beee31b25b2f1681f88dac838c8bba36af25bfb2b7cf7473a5847e35f90611327908d908d908d906155bd565b60405180910390a2505050505050509193909250565b61134e611348612f7c565b82612ff6565b6113895760405162461bcd60e51b81526004018080602001828103825260318152602001806159916031913960400191505060405180910390fd5b6108c48383836135ae565b6001600160a01b03821660009081526001602052604081206113b690836136fa565b90505b92915050565b7f49ecf333e5b8c95c40fdafc95c1ad136e8914a8fb55e9dc8bb01eaa83a2df9ad81565b60007f8b73c3c69bb8fe3d512ecc4cf759cc79239f7b179b0ffacaa9a75d522b39400f7f00000000000000000000000000000000000000000000000000000000000000007f0000000000000000000000000000000000000000000000000000000000000000611450613706565b3060405160200180868152602001858152602001848152602001838152602001826001600160a01b031681526020019550505050505060405160208183030381529060405280519060200120905090565b6108c483838360405180602001604052806000815250612741565b806114c73382612ff6565b6114e35760405162461bcd60e51b81526004016107c79061548e565b6000828152600c602052604090206001810154600160801b90046001600160801b031615801561151e575060048101546001600160801b0316155b801561153c57506004810154600160801b90046001600160801b0316155b6115585760405162461bcd60e51b81526004016107c790615558565b6000838152600c60205260408120818155600181018290556002810182905560038101829055600401556108c48361370a565b604080516323f2ebc360e21b815233600482015230602482015260448101879052606481018690526001608482015260ff851660a482015260c4810184905260e4810183905290516001600160a01b03881691638fcbaf0c9161010480830192600092919082900301818387803b15801561160557600080fd5b505af1158015611619573d6000803e3d6000fd5b50505050505050505050565b60007f00000000000000000000000000000000000000000000000000000000000000006001600160a01b03166370a08231306040518263ffffffff1660e01b815260040180826001600160a01b0316815260200191505060206040518083038186803b15801561169457600080fd5b505afa1580156116a8573d6000803e3d6000fd5b505050506040513d60208110156116be57600080fd5b505190508281101561170c576040805162461bcd60e51b8152602060048201526012602482015271496e73756666696369656e7420574554483960701b604482015290519081900360640190fd5b80156108c4577f00000000000000000000000000000000000000000000000000000000000000006001600160a01b0316632e1a7d4d826040518263ffffffff1660e01b815260040180828152602001915050600060405180830381600087803b15801561177857600080fd5b505af115801561178c573d6000803e3d6000fd5b505050506108c48282613279565b7f000000000000000000000000000000000000000000000000000000000000000081565b6000806117cc6002846137d7565b509392505050565b60006113b9826040518060600160405280602981526020016158fc60299139600291906137f5565b606090565b60006001600160a01b0382166118485760405162461bcd60e51b815260040180806020018281038252602a8152602001806158d2602a913960400191505060405180910390fd5b6001600160a01b03821660009081526001602052604090206113b990613368565b83611872613092565b11156118b6576040805162461bcd60e51b815260206004820152600e60248201526d14195c9b5a5d08195e1c1a5c995960921b604482015290519081900360640190fd5b60006118c06113e3565b7f49ecf333e5b8c95c40fdafc95c1ad136e8914a8fb55e9dc8bb01eaa83a2df9ad88886118ec81613802565b604080516020808201969096526001600160a01b03909416848201526060840192909252608083015260a08083018a90528151808403909101815260c08301825280519084012061190160f01b60e084015260e283019490945261010280830194909452805180830390940184526101229091019052815191012090506000611974876117d4565b9050806001600160a01b0316886001600160a01b031614156119c75760405162461bcd60e51b81526004018080602001828103825260278152602001806157fd6027913960400191505060405180910390fd5b6119d081613837565b15611b38576040805160208082018790528183018690526001600160f81b031960f889901b1660608301528251604181840301815260618301808552630b135d3f60e11b90526065830186815260858401948552815160a585015281516001600160a01b03871695631626ba7e958995919260c59091019185019080838360005b83811015611a69578181015183820152602001611a51565b50505050905090810190601f168015611a965780820380516001836020036101000a031916815260200191505b50935050505060206040518083038186803b158015611ab457600080fd5b505afa158015611ac8573d6000803e3d6000fd5b505050506040513d6020811015611ade57600080fd5b50516001600160e01b031916630b135d3f60e11b14611b33576040805162461bcd60e51b815260206004820152600c60248201526b155b985d5d1a1bdc9a5e995960a21b604482015290519081900360640190fd5b611c47565b600060018387878760405160008152602001604052604051808581526020018460ff1681526020018381526020018281526020019450505050506020604051602081039080840390855afa158015611b94573d6000803e3d6000fd5b5050604051601f1901519150506001600160a01b038116611bf0576040805162461bcd60e51b8152602060048201526011602482015270496e76616c6964207369676e617475726560781b604482015290519081900360640190fd5b816001600160a01b0316816001600160a01b031614611c45576040805162461bcd60e51b815260206004820152600c60248201526b155b985d5d1a1bdc9a5e995960a21b604482015290519081900360640190fd5b505b611c518888612f80565b5050505050505050565b60008060008084610140013580611c70613092565b1115611cb9576040805162461bcd60e51b8152602060048201526013602482015272151c985b9cd858dd1a5bdb881d1bdbc81bdb19606a1b604482015290519081900360640190fd5b604080516101408101909152600090611d859080611cda60208b018b614be3565b6001600160a01b03168152602001896020016020810190611cfb9190614be3565b6001600160a01b03168152602001611d1960608b0160408c016151c7565b62ffffff168152306020820152604001611d3960808b0160608c01614f07565b60020b8152602001611d5160a08b0160808c01614f07565b60020b81526020018960a0013581526020018960c0013581526020018960e001358152602001896101000135815250613373565b92975090955093509050611dd2611da461014089016101208a01614be3565b600d80546001600160b01b0319811660016001600160b01b039283169081019092161790915597508761383d565b6000611dfd30611de860808b0160608c01614f07565b611df860a08c0160808d01614f07565b613175565b9050600080836001600160a01b031663514ea4bf846040518263ffffffff1660e01b8152600401611e2e9190615433565b60a06040518083038186803b158015611e4657600080fd5b505afa158015611e5a573d6000803e3d6000fd5b505050506040513d601f19601f82011682018060405250810190611e7e91906150cd565b505092509250506000611ef78560405180606001604052808e6000016020810190611ea99190614be3565b6001600160a01b031681526020018e6020016020810190611eca9190614be3565b6001600160a01b031681526020018e6040016020810190611eeb91906151c7565b62ffffff16905261396b565b905060405180610140016040528060006001600160601b0316815260200160006001600160a01b03168152602001826001600160501b031681526020018c6060016020810190611f479190614f07565b60020b8152602001611f5f60a08e0160808f01614f07565b60020b81526020018a6001600160801b0316815260200184815260200183815260200160006001600160801b0316815260200160006001600160801b0316815250600c60008c815260200190815260200160002060008201518160000160006101000a8154816001600160601b0302191690836001600160601b03160217905550602082015181600001600c6101000a8154816001600160a01b0302191690836001600160a01b0316021790555060408201518160010160006101000a8154816001600160501b0302191690836001600160501b03160217905550606082015181600101600a6101000a81548162ffffff021916908360020b62ffffff160217905550608082015181600101600d6101000a81548162ffffff021916908360020b62ffffff16021790555060a08201518160010160106101000a8154816001600160801b0302191690836001600160801b0316021790555060c0820151816002015560e082015181600301556101008201518160040160006101000a8154816001600160801b0302191690836001600160801b031602179055506101208201518160040160106101000a8154816001600160801b0302191690836001600160801b03160217905550905050897f3067048beee31b25b2f1681f88dac838c8bba36af25bfb2b7cf7473a5847e35f8a8a8a60405161215e939291906155bd565b60405180910390a25050505050509193509193565b60078054604080516020601f60026000196101006001881615020190951694909404938401819004810282018101909252828152606093909290918301828280156107965780601f1061076b57610100808354040283529160200191610796565b60006121e282840184614fc6565b90506122127f00000000000000000000000000000000000000000000000000000000000000008260000151613a4d565b50841561222d57805151602082015161222d91903388613a70565b831561224b5761224b81600001516020015182602001513387613a70565b5050505050565b6000818152600c6020908152604080832081516101408101835281546001600160601b03811682526001600160a01b03600160601b909104169381019390935260018101546001600160501b038116928401839052600160501b8104600290810b810b810b6060860152600160681b8204810b810b810b60808601526001600160801b03600160801b92839004811660a08701529083015460c0860152600383015460e0860152600490920154808316610100860152041661012083015282918291829182918291829182918291829182918291906123435760405162461bcd60e51b81526004016107c79061552e565b6000600b600083604001516001600160501b03166001600160501b031681526020019081526020016000206040518060600160405290816000820160009054906101000a90046001600160a01b03166001600160a01b03166001600160a01b031681526020016001820160009054906101000a90046001600160a01b03166001600160a01b03166001600160a01b031681526020016001820160149054906101000a900462ffffff1662ffffff1662ffffff1681525050905081600001518260200151826000015183602001518460400151866060015187608001518860a001518960c001518a60e001518b61010001518c61012001519d509d509d509d509d509d509d509d509d509d509d509d50505091939597999b5091939597999b565b61246b612f7c565b6001600160a01b0316826001600160a01b031614156124d1576040805162461bcd60e51b815260206004820152601960248201527f4552433732313a20617070726f766520746f2063616c6c657200000000000000604482015290519081900360640190fd5b80600560006124de612f7c565b6001600160a01b03908116825260208083019390935260409182016000908120918716808252919093529120805460ff191692151592909217909155612522612f7c565b6001600160a01b03167f17307eab39ab6107e8899845ad3d59bd9653f200f220920489ca2b5937696c318360405180821515815260200191505060405180910390a35050565b60408051636eb1769f60e11b81523360048201523060248201529051600019916001600160a01b0389169163dd62ed3e91604480820192602092909190829003018186803b1580156125b957600080fd5b505afa1580156125cd573d6000803e3d6000fd5b505050506040513d60208110156125e357600080fd5b505110156125f9576125f986868686868661158b565b505050505050565b60608167ffffffffffffffff8111801561261a57600080fd5b5060405190808252806020026020018201604052801561264e57816020015b60608152602001906001900390816126395790505b50905060005b8281101561273a576000803086868581811061266c57fe5b905060200281019061267e91906156aa565b60405161268c9291906152fb565b600060405180830381855af49150503d80600081146126c7576040519150601f19603f3d011682016040523d82523d6000602084013e6126cc565b606091505b509150915081612718576044815110156126e557600080fd5b600481019050808060200190518101906126ff9190614f23565b60405162461bcd60e51b81526004016107c7919061547b565b8084848151811061272557fe5b60209081029190910101525050600101612654565b5092915050565b61275261274c612f7c565b83612ff6565b61278d5760405162461bcd60e51b81526004018080602001828103825260318152602001806159916031913960400191505060405180910390fd5b61279984848484613c00565b50505050565b60408051636eb1769f60e11b8152336004820152306024820152905186916001600160a01b0389169163dd62ed3e91604480820192602092909190829003018186803b1580156127ee57600080fd5b505afa158015612802573d6000803e3d6000fd5b505050506040513d602081101561281857600080fd5b505110156125f9576125f9868686868686612a32565b7f000000000000000000000000000000000000000000000000000000000000000081565b606061285d82612f6f565b61286657600080fd5b60405163e9dc637560e01b81526001600160a01b037f0000000000000000000000000000000000000000000000000000000000000000169063e9dc6375906128b4903090869060040161543c565b60006040518083038186803b1580156128cc57600080fd5b505afa1580156128e0573d6000803e3d6000fd5b505050506040513d6000823e601f3d908101601f191682016040526113b99190810190614f23565b7f000000000000000000000000000000000000000000000000000000000000000081565b6000836001600160a01b03166370a08231306040518263ffffffff1660e01b815260040180826001600160a01b0316815260200191505060206040518083038186803b15801561297b57600080fd5b505afa15801561298f573d6000803e3d6000fd5b505050506040513d60208110156129a557600080fd5b50519050828110156129f3576040805162461bcd60e51b815260206004820152601260248201527124b739bab33334b1b4b2b73a103a37b5b2b760711b604482015290519081900360640190fd5b801561279957612799848383613c52565b6001600160a01b03918216600090815260056020908152604080832093909416825291909152205460ff1690565b6040805163d505accf60e01b8152336004820152306024820152604481018790526064810186905260ff8516608482015260a4810184905260c4810183905290516001600160a01b0388169163d505accf9160e480830192600092919082900301818387803b15801561160557600080fd5b6000808235612ab33382612ff6565b612acf5760405162461bcd60e51b81526004016107c79061548e565b6000612ae16060860160408701615083565b6001600160801b03161180612b0e57506000612b036080860160608701615083565b6001600160801b0316115b612b1757600080fd5b600080612b2a6040870160208801614be3565b6001600160a01b031614612b4d57612b486040860160208701614be3565b612b4f565b305b85356000908152600c602090815260408083206001808201546001600160501b03168552600b8452828520835160608101855281546001600160a01b039081168252919092015490811694820194909452600160a01b90930462ffffff169183019190915292935090612be27f000000000000000000000000000000000000000000000000000000000000000083613096565b600484015460018501549192506001600160801b0380821692600160801b9283900482169290041615612dd857600185015460405163a34123a760e01b81526001600160a01b0385169163a34123a791612c5991600160501b8104600290810b92600160681b909204900b90600090600401615455565b6040805180830381600087803b158015612c7257600080fd5b505af1158015612c86573d6000803e3d6000fd5b505050506040513d601f19601f82011682018060405250810190612caa919061521d565b5050600185015460009081906001600160a01b0386169063514ea4bf90612ce8903090600160501b8104600290810b91600160681b9004900b613175565b6040518263ffffffff1660e01b8152600401612d049190615433565b60a06040518083038186803b158015612d1c57600080fd5b505afa158015612d30573d6000803e3d6000fd5b505050506040513d601f19601f82011682018060405250810190612d5491906150cd565b50509250925050612d90876002015483038860010160109054906101000a90046001600160801b03166001600160801b0316600160801b6131ca565b84019350612dc9876003015482038860010160109054906101000a90046001600160801b03166001600160801b0316600160801b6131ca565b60028801929092556003870155015b6000806001600160801b038416612df560608e0160408f01615083565b6001600160801b031611612e1857612e1360608d0160408e01615083565b612e1a565b835b836001600160801b03168d6060016020810190612e379190615083565b6001600160801b031611612e5a57612e5560808e0160608f01615083565b612e5c565b835b60018901546040516309e3d67b60e31b81529294509092506001600160a01b03871691634f1eb3d891612eaf918c91600160501b8104600290810b92600160681b909204900b9088908890600401615361565b6040805180830381600087803b158015612ec857600080fd5b505af1158015612edc573d6000803e3d6000fd5b505050506040513d601f19601f82011682018060405250810190612f00919061509f565b6004890180546001600160801b03196001600160801b03918216600160801b878a0384160217168689038216179091556040519281169d50169a508c35907f40d0efd1a53d60ecbf40971b9daf7dc90178c3aadc7aab1765632738fa8b8f0190610cfb908b908690869061539e565b60006113b9600283613d99565b3390565b6000818152600c6020526040902080546001600160601b0316600160601b6001600160a01b038516908102919091179091558190612fbd826117d4565b6001600160a01b03167f8c5be1e5ebec7d5bd14f71427d1e84f3dd0314c0f7b2291e5b200ac8c7c3b92560405160405180910390a45050565b600061300182612f6f565b61303c5760405162461bcd60e51b815260040180806020018281038252602c81526020018061586e602c913960400191505060405180910390fd5b6000613047836117d4565b9050806001600160a01b0316846001600160a01b031614806130825750836001600160a01b0316613077846107a0565b6001600160a01b0316145b8061100f575061100f8185612a04565b4290565b600081602001516001600160a01b031682600001516001600160a01b0316106130be57600080fd5b50805160208083015160409384015184516001600160a01b0394851681850152939091168385015262ffffff166060808401919091528351808403820181526080840185528051908301206001600160f81b031960a085015294901b6001600160601b03191660a183015260b58201939093527f5d227b1224d702ed5c29b93295d4c56c96d9ba453960e291d2fc046c48fe5c7260d5808301919091528251808303909101815260f5909101909152805191012090565b604080516001600160601b0319606086901b16602080830191909152600285810b60e890811b60348501529085900b901b60378301528251601a818403018152603a90920190925280519101205b9392505050565b600080806000198587098686029250828110908390030390508061320057600084116131f557600080fd5b5082900490506131c3565b80841161320c57600080fd5b6000848688096000868103871696879004966002600389028118808a02820302808a02820302808a02820302808a02820302808a02820302808a02909103029181900381900460010186841190950394909402919094039290920491909117919091029150509392505050565b604080516000808252602082019092526001600160a01b0384169083906040518082805190602001908083835b602083106132c55780518252601f1990920191602091820191016132a6565b6001836020036101000a03801982511681845116808217855250505050505090500191505060006040518083038185875af1925050503d8060008114613327576040519150601f19603f3d011682016040523d82523d6000602084013e61332c565b606091505b50509050806108c4576040805162461bcd60e51b815260206004820152600360248201526253544560e81b604482015290519081900360640190fd5b60006113b982613da5565b6000806000806000604051806060016040528087600001516001600160a01b0316815260200187602001516001600160a01b03168152602001876040015162ffffff1681525090506133e57f000000000000000000000000000000000000000000000000000000000000000082613096565b91506000826001600160a01b0316633850c7bd6040518163ffffffff1660e01b815260040160e06040518083038186803b15801561342257600080fd5b505afa158015613436573d6000803e3d6000fd5b505050506040513d601f19601f8201168201806040525081019061345a919061512e565b505050505050905060006134718860800151613da9565b905060006134828960a00151613da9565b90506134998383838c60c001518d60e001516140db565b9750505050816001600160a01b0316633c8a7d8d876060015188608001518960a00151896040518060400160405280888152602001336001600160a01b03168152506040516020016134eb919061557d565b6040516020818303038152906040526040518663ffffffff1660e01b815260040161351a95949392919061531f565b6040805180830381600087803b15801561353357600080fd5b505af1158015613547573d6000803e3d6000fd5b505050506040513d601f19601f8201168201806040525081019061356b919061521d565b6101008801519195509350841080159061358a57508561012001518310155b6135a65760405162461bcd60e51b81526004016107c790615500565b509193509193565b826001600160a01b03166135c1826117d4565b6001600160a01b0316146136065760405162461bcd60e51b81526004018080602001828103825260298152602001806159476029913960400191505060405180910390fd5b6001600160a01b03821661364b5760405162461bcd60e51b81526004018080602001828103825260248152602001806158246024913960400191505060405180910390fd5b6136568383836108c4565b613661600082612f80565b6001600160a01b0383166000908152600160205260409020613683908261419f565b506001600160a01b03821660009081526001602052604090206136a690826141ab565b506136b3600282846141b7565b5080826001600160a01b0316846001600160a01b03167fddf252ad1be2c89b69c2b068fc378daa952ba7f163c4a11628f55a4df523b3ef60405160405180910390a4505050565b60006113b683836141cd565b4690565b6000613715826117d4565b9050613723816000846108c4565b61372e600083612f80565b600082815260086020526040902054600260001961010060018416150201909116041561376c57600082815260086020526040812061376c91614b53565b6001600160a01b038116600090815260016020526040902061378e908361419f565b5061379a600283614231565b5060405182906000906001600160a01b038416907fddf252ad1be2c89b69c2b068fc378daa952ba7f163c4a11628f55a4df523b3ef908390a45050565b60008080806137e6868661423d565b909450925050505b9250929050565b600061100f8484846142b8565b6000908152600c6020526040902080546001600160601b0319811660016001600160601b039283169081019092161790915590565b3b151590565b6001600160a01b038216613898576040805162461bcd60e51b815260206004820181905260248201527f4552433732313a206d696e7420746f20746865207a65726f2061646472657373604482015290519081900360640190fd5b6138a181612f6f565b156138f3576040805162461bcd60e51b815260206004820152601c60248201527f4552433732313a20746f6b656e20616c7265616479206d696e74656400000000604482015290519081900360640190fd5b6138ff600083836108c4565b6001600160a01b038216600090815260016020526040902061392190826141ab565b5061392e600282846141b7565b5060405181906001600160a01b038416906000907fddf252ad1be2c89b69c2b068fc378daa952ba7f163c4a11628f55a4df523b3ef908290a45050565b6001600160a01b0382166000908152600a60205260409020546001600160501b0316806113b95750600d805460016001600160501b03600160b01b8084048216838101909216026001600160b01b03909316929092179092556001600160a01b038085166000908152600a60209081526040808320805469ffffffffffffffffffff191686179055848352600b825291829020865181549085166001600160a01b031991821617825591870151950180549287015162ffffff16600160a01b0262ffffff60a01b19969094169290911691909117939093161790915592915050565b6000613a598383613096565b9050336001600160a01b038216146113b957600080fd5b7f00000000000000000000000000000000000000000000000000000000000000006001600160a01b0316846001600160a01b0316148015613ab15750804710155b15613bd3577f00000000000000000000000000000000000000000000000000000000000000006001600160a01b031663d0e30db0826040518263ffffffff1660e01b81526004016000604051808303818588803b158015613b1157600080fd5b505af1158015613b25573d6000803e3d6000fd5b50505050507f00000000000000000000000000000000000000000000000000000000000000006001600160a01b031663a9059cbb83836040518363ffffffff1660e01b815260040180836001600160a01b0316815260200182815260200192505050602060405180830381600087803b158015613ba157600080fd5b505af1158015613bb5573d6000803e3d6000fd5b505050506040513d6020811015613bcb57600080fd5b506127999050565b6001600160a01b038316301415613bf457613bef848383613c52565b612799565b61279984848484614382565b613c0b8484846135ae565b613c17848484846144d2565b6127995760405162461bcd60e51b81526004018080602001828103825260328152602001806157cb6032913960400191505060405180910390fd5b604080516001600160a01b038481166024830152604480830185905283518084039091018152606490920183526020820180516001600160e01b031663a9059cbb60e01b1781529251825160009485949389169392918291908083835b60208310613cce5780518252601f199092019160209182019101613caf565b6001836020036101000a0380198251168184511680821785525050505050509050019150506000604051808303816000865af19150503d8060008114613d30576040519150601f19603f3d011682016040523d82523d6000602084013e613d35565b606091505b5091509150818015613d63575080511580613d635750808060200190516020811015613d6057600080fd5b50515b61224b576040805162461bcd60e51b815260206004820152600260248201526114d560f21b604482015290519081900360640190fd5b60006113b6838361463a565b5490565b60008060008360020b12613dc0578260020b613dc8565b8260020b6000035b9050620d89e8811115613e06576040805162461bcd60e51b81526020600482015260016024820152601560fa1b604482015290519081900360640190fd5b600060018216613e1a57600160801b613e2c565b6ffffcb933bd6fad37aa2d162d1a5940015b70ffffffffffffffffffffffffffffffffff1690506002821615613e60576ffff97272373d413259a46990580e213a0260801c5b6004821615613e7f576ffff2e50f5f656932ef12357cf3c7fdcc0260801c5b6008821615613e9e576fffe5caca7e10e4e61c3624eaa0941cd00260801c5b6010821615613ebd576fffcb9843d60f6159c9db58835c9266440260801c5b6020821615613edc576fff973b41fa98c081472e6896dfb254c00260801c5b6040821615613efb576fff2ea16466c96a3843ec78b326b528610260801c5b6080821615613f1a576ffe5dee046a99a2a811c461f1969c30530260801c5b610100821615613f3a576ffcbe86c7900a88aedcffc83b479aa3a40260801c5b610200821615613f5a576ff987a7253ac413176f2b074cf7815e540260801c5b610400821615613f7a576ff3392b0822b70005940c7a398e4b70f30260801c5b610800821615613f9a576fe7159475a2c29b7443b29c7fa6e889d90260801c5b611000821615613fba576fd097f3bdfd2022b8845ad8f792aa58250260801c5b612000821615613fda576fa9f746462d870fdf8a65dc1f90e061e50260801c5b614000821615613ffa576f70d869a156d2a1b890bb3df62baf32f70260801c5b61800082161561401a576f31be135f97d08fd981231505542fcfa60260801c5b6201000082161561403b576f09aa508b5b7a84e1c677de54f3e99bc90260801c5b6202000082161561405b576e5d6af8dedb81196699c329225ee6040260801c5b6204000082161561407a576d2216e584f5fa1ea926041bedfe980260801c5b62080000821615614097576b048a170391f7dc42444e8fa20260801c5b60008460020b13156140b25780600019816140ae57fe5b0490505b6401000000008106156140c65760016140c9565b60005b60ff16602082901c0192505050919050565b6000836001600160a01b0316856001600160a01b031611156140fb579293925b846001600160a01b0316866001600160a01b0316116141265761411f858585614652565b9050614196565b836001600160a01b0316866001600160a01b0316101561418857600061414d878686614652565b9050600061415c8789866146b5565b9050806001600160801b0316826001600160801b03161061417d578061417f565b815b92505050614196565b6141938585846146b5565b90505b95945050505050565b60006113b683836146f2565b60006113b683836147b8565b600061100f84846001600160a01b038516614802565b8154600090821061420f5760405162461bcd60e51b81526004018080602001828103825260228152602001806157a96022913960400191505060405180910390fd5b82600001828154811061421e57fe5b9060005260206000200154905092915050565b60006113b68383614899565b8154600090819083106142815760405162461bcd60e51b81526004018080602001828103825260228152602001806159256022913960400191505060405180910390fd5b600084600001848154811061429257fe5b906000526020600020906002020190508060000154816001015492509250509250929050565b600082815260018401602052604081205482816143535760405162461bcd60e51b81526004018080602001828103825283818151815260200191508051906020019080838360005b83811015614318578181015183820152602001614300565b50505050905090810190601f1680156143455780820380516001836020036101000a031916815260200191505b509250505060405180910390fd5b5084600001600182038154811061436657fe5b9060005260206000209060020201600101549150509392505050565b604080516001600160a01b0385811660248301528481166044830152606480830185905283518084039091018152608490920183526020820180516001600160e01b03166323b872dd60e01b178152925182516000948594938a169392918291908083835b602083106144065780518252601f1990920191602091820191016143e7565b6001836020036101000a0380198251168184511680821785525050505050509050019150506000604051808303816000865af19150503d8060008114614468576040519150601f19603f3d011682016040523d82523d6000602084013e61446d565b606091505b509150915081801561449b57508051158061449b575080806020019051602081101561449857600080fd5b50515b6125f9576040805162461bcd60e51b815260206004820152600360248201526229aa2360e91b604482015290519081900360640190fd5b60006144e6846001600160a01b0316613837565b6144f25750600161100f565b6000614600630a85bd0160e11b614507612f7c565b88878760405160240180856001600160a01b03168152602001846001600160a01b0316815260200183815260200180602001828103825283818151815260200191508051906020019080838360005b8381101561456e578181015183820152602001614556565b50505050905090810190601f16801561459b5780820380516001836020036101000a031916815260200191505b5095505050505050604051602081830303815290604052906001600160e01b0319166020820180516001600160e01b0383818316178352505050506040518060600160405280603281526020016157cb603291396001600160a01b038816919061496d565b9050600081806020019051602081101561461957600080fd5b50516001600160e01b031916630a85bd0160e11b1492505050949350505050565b60009081526001919091016020526040902054151590565b6000826001600160a01b0316846001600160a01b03161115614672579192915b6000614695856001600160a01b0316856001600160a01b0316600160601b6131ca565b90506141966146b084838888036001600160a01b03166131ca565b61497c565b6000826001600160a01b0316846001600160a01b031611156146d5579192915b61100f6146b083600160601b8787036001600160a01b03166131ca565b600081815260018301602052604081205480156147ae578354600019808301919081019060009087908390811061472557fe5b906000526020600020015490508087600001848154811061474257fe5b60009182526020808320909101929092558281526001898101909252604090209084019055865487908061477257fe5b600190038181906000526020600020016000905590558660010160008781526020019081526020016000206000905560019450505050506113b9565b60009150506113b9565b60006147c4838361463a565b6147fa575081546001818101845560008481526020808220909301849055845484825282860190935260409020919091556113b9565b5060006113b9565b6000828152600184016020526040812054806148675750506040805180820182528381526020808201848152865460018181018955600089815284812095516002909302909501918255915190820155865486845281880190925292909120556131c3565b8285600001600183038154811061487a57fe5b90600052602060002090600202016001018190555060009150506131c3565b600081815260018301602052604081205480156147ae57835460001980830191908101906000908790839081106148cc57fe5b90600052602060002090600202019050808760000184815481106148ec57fe5b60009182526020808320845460029093020191825560019384015491840191909155835482528983019052604090209084019055865487908061492b57fe5b60008281526020808220600260001990940193840201828155600190810183905592909355888152898201909252604082209190915594506113b99350505050565b606061100f8484600085614992565b806001600160801b038116811461070557600080fd5b6060824710156149d35760405162461bcd60e51b81526004018080602001828103825260268152602001806158486026913960400191505060405180910390fd5b6149dc85613837565b614a2d576040805162461bcd60e51b815260206004820152601d60248201527f416464726573733a2063616c6c20746f206e6f6e2d636f6e7472616374000000604482015290519081900360640190fd5b600080866001600160a01b031685876040518082805190602001908083835b60208310614a6b5780518252601f199092019160209182019101614a4c565b6001836020036101000a03801982511681845116808217855250505050505090500191505060006040518083038185875af1925050503d8060008114614acd576040519150601f19603f3d011682016040523d82523d6000602084013e614ad2565b606091505b5091509150614ae2828286614aed565b979650505050505050565b60608315614afc5750816131c3565b825115614b0c5782518084602001fd5b60405162461bcd60e51b8152602060048201818152845160248401528451859391928392604401919085019080838360008315614318578181015183820152602001614300565b50805460018160011615610100020316600290046000825580601f10614b795750614b97565b601f016020900490600052602060002090810190614b979190614b9a565b50565b5b80821115614baf5760008155600101614b9b565b5090565b803561070581615761565b805161ffff8116811461070557600080fd5b803562ffffff8116811461070557600080fd5b600060208284031215614bf4578081fd5b81356131c381615761565b60008060408385031215614c11578081fd5b8235614c1c81615761565b91506020830135614c2c81615761565b809150509250929050565b60008060008060808587031215614c4c578182fd5b8435614c5781615761565b93506020850135614c6781615761565b9250614c7560408601614bd0565b91506060850135614c8581615761565b939692955090935050565b600080600060608486031215614ca4578081fd5b8335614caf81615761565b92506020840135614cbf81615761565b929592945050506040919091013590565b60008060008060808587031215614ce5578182fd5b8435614cf081615761565b93506020850135614d0081615761565b925060408501359150606085013567ffffffffffffffff811115614d22578182fd5b8501601f81018713614d32578182fd5b8035614d45614d4082615713565b6156ef565b818152886020838501011115614d59578384fd5b81602084016020830137908101602001929092525092959194509250565b60008060408385031215614d89578182fd5b8235614d9481615761565b91506020830135614c2c81615776565b60008060408385031215614db6578182fd5b8235614dc181615761565b946020939093013593505050565b600080600060608486031215614de3578081fd5b8335614dee81615761565b9250602084013591506040840135614e0581615761565b809150509250925092565b60008060008060008060c08789031215614e28578384fd5b8635614e3381615761565b95506020870135945060408701359350606087013560ff81168114614e56578283fd5b9598949750929560808101359460a0909101359350915050565b60008060208385031215614e82578182fd5b823567ffffffffffffffff80821115614e99578384fd5b818501915085601f830112614eac578384fd5b813581811115614eba578485fd5b8660208083028501011115614ecd578485fd5b60209290920196919550909350505050565b600060208284031215614ef0578081fd5b81356001600160e01b0319811681146131c3578182fd5b600060208284031215614f18578081fd5b81356131c381615784565b600060208284031215614f34578081fd5b815167ffffffffffffffff811115614f4a578182fd5b8201601f81018413614f5a578182fd5b8051614f68614d4082615713565b818152856020838501011115614f7c578384fd5b614196826020830160208601615735565b600060808284031215614f9e578081fd5b50919050565b600060a08284031215614f9e578081fd5b600060c08284031215614f9e578081fd5b60008183036080811215614fd8578182fd5b6040516040810167ffffffffffffffff8282108183111715614ff657fe5b816040526060841215615007578485fd5b60a083019350818410818511171561501b57fe5b50826040528435925061502d83615761565b91825260208401359161503f83615761565b82606083015261505160408601614bd0565b6080830152815261506460608501614bb3565b6020820152949350505050565b60006101608284031215614f9e578081fd5b600060208284031215615094578081fd5b81356131c381615793565b600080604083850312156150b1578182fd5b82516150bc81615793565b6020840151909250614c2c81615793565b600080600080600060a086880312156150e4578283fd5b85516150ef81615793565b809550506020860151935060408601519250606086015161510f81615793565b608087015190925061512081615793565b809150509295509295909350565b600080600080600080600060e0888a031215615148578485fd5b875161515381615761565b602089015190975061516481615784565b955061517260408901614bbe565b945061518060608901614bbe565b935061518e60808901614bbe565b925060a088015163ffffffff811681146151a6578182fd5b60c08901519092506151b781615776565b8091505092959891949750929550565b6000602082840312156151d8578081fd5b6113b682614bd0565b6000602082840312156151f2578081fd5b5035919050565b6000806040838503121561520b578182fd5b823591506020830135614c2c81615761565b6000806040838503121561522f578182fd5b505080516020909101519092909150565b60008060008060608587031215615255578182fd5b8435935060208501359250604085013567ffffffffffffffff8082111561527a578384fd5b818701915087601f83011261528d578384fd5b81358181111561529b578485fd5b8860208285010111156152ac578485fd5b95989497505060200194505050565b600081518084526152d3816020860160208601615735565b601f01601f19169290920160200192915050565b60020b9052565b6001600160801b03169052565b6000828483379101908152919050565b6001600160a01b0391909116815260200190565b600060018060a01b03871682528560020b60208301528460020b60408301526001600160801b038416606083015260a06080830152614ae260a08301846152bb565b6001600160a01b03959095168552600293840b60208601529190920b60408401526001600160801b03918216606084015216608082015260a00190565b6001600160a01b039390931683526001600160801b03918216602084015216604082015260600190565b6000602080830181845280855180835260408601915060408482028701019250838701855b8281101561541b57603f198886030184526154098583516152bb565b945092850192908501906001016153ed565b5092979650505050505050565b901515815260200190565b90815260200190565b6001600160a01b03929092168252602082015260400190565b600293840b81529190920b60208201526001600160801b03909116604082015260600190565b6000602082526113b660208301846152bb565b6020808252600c908201526b139bdd08185c1c1c9bdd995960a21b604082015260600190565b6020808252602c908201527f4552433732313a20617070726f76656420717565727920666f72206e6f6e657860408201526b34b9ba32b73a103a37b5b2b760a11b606082015260800190565b602080825260149082015273507269636520736c69707061676520636865636b60601b604082015260600190565b60208082526010908201526f125b9d985b1a59081d1bdad95b88125160821b604082015260600190565b6020808252600b908201526a139bdd0818db19585c995960aa1b604082015260600190565b815180516001600160a01b03908116835260208083015182168185015260409283015162ffffff1692840192909252920151909116606082015260800190565b6001600160801b039390931683526020830191909152604082015260600190565b9384526001600160801b039290921660208401526040830152606082015260800190565b918252602082015260400190565b6001600160601b038d1681526001600160a01b038c811660208301528b811660408301528a16606082015262ffffff89166080820152600288900b60a0820152610180810161566260c08301896152e7565b61566f60e08301886152ee565b856101008301528461012083015261568b6101408301856152ee565b6156996101608301846152ee565b9d9c50505050505050505050505050565b6000808335601e198436030181126156c0578283fd5b83018035915067ffffffffffffffff8211156156da578283fd5b6020019150368190038213156137ee57600080fd5b60405181810167ffffffffffffffff8111828210171561570b57fe5b604052919050565b600067ffffffffffffffff82111561572757fe5b50601f01601f191660200190565b60005b83811015615750578181015183820152602001615738565b838111156127995750506000910152565b6001600160a01b0381168114614b9757600080fd5b8015158114614b9757600080fd5b8060020b8114614b9757600080fd5b6001600160801b0381168114614b9757600080fdfe456e756d657261626c655365743a20696e646578206f7574206f6620626f756e64734552433732313a207472616e7366657220746f206e6f6e20455243373231526563656976657220696d706c656d656e7465724552433732315065726d69743a20617070726f76616c20746f2063757272656e74206f776e65724552433732313a207472616e7366657220746f20746865207a65726f2061646472657373416464726573733a20696e73756666696369656e742062616c616e636520666f722063616c6c4552433732313a206f70657261746f7220717565727920666f72206e6f6e6578697374656e7420746f6b656e4552433732313a20617070726f76652063616c6c6572206973206e6f74206f776e6572206e6f7220617070726f76656420666f7220616c6c4552433732313a2062616c616e636520717565727920666f7220746865207a65726f20616464726573734552433732313a206f776e657220717565727920666f72206e6f6e6578697374656e7420746f6b656e456e756d657261626c654d61703a20696e646578206f7574206f6620626f756e64734552433732313a207472616e73666572206f6620746f6b656e2074686174206973206e6f74206f776e4552433732313a20617070726f76616c20746f2063757272656e74206f776e65724552433732313a207472616e736665722063616c6c6572206973206e6f74206f776e6572206e6f7220617070726f766564a26469706673582212209022241ef0e8fb7c3f4b3abb962e248fd2aa33592c708d2854b53638c6641eb264736f6c63430007060033",
    "linkReferences": {}
  },
  "methodIdentifiers": {
    "DOMAIN_SEPARATOR()": "3644e515",
    "PERMIT_TYPEHASH()": "30adf81f",
    "WETH9()": "4aa4a4fc",
    "approve(address,uint256)": "095ea7b3",
    "balanceOf(address)": "70a08231",
    "baseURI()": "6c0360eb",
    "burn(uint256)": "42966c68",
    "collect((uint256,address,uint128,uint128))": "fc6f7865",
    "createAndInitializePoolIfNecessary(address,address,uint24,uint160)": "13ead562",
    "decreaseLiquidity((uint256,uint128,uint256,uint256,uint256))": "0c49ccbe",
    "deployer()": "d5f39488",
    "factory()": "c45a0155",
    "getApproved(uint256)": "081812fc",
    "increaseLiquidity((uint256,uint256,uint256,uint256,uint256,uint256))": "219f5d17",
    "isApprovedForAll(address,address)": "e985e9c5",
    "mint((address,address,uint24,int24,int24,uint256,uint256,uint256,uint256,address,uint256))": "88316456",
    "multicall(bytes[])": "ac9650d8",
    "name()": "06fdde03",
    "ownerOf(uint256)": "6352211e",
    "pancakeV3MintCallback(uint256,uint256,bytes)": "99eee9d0",
    "permit(address,uint256,uint256,uint8,bytes32,bytes32)": "7ac2ff7b",
    "positions(uint256)": "99fbab88",
    "refundETH()": "12210e8a",
    "safeTransferFrom(address,address,uint256)": "42842e0e",
    "safeTransferFrom(address,address,uint256,bytes)": "b88d4fde",
    "selfPermit(address,uint256,uint256,uint8,bytes32,bytes32)": "f3995c67",
    "selfPermitAllowed(address,uint256,uint256,uint8,bytes32,bytes32)": "4659a494",
    "selfPermitAllowedIfNecessary(address,uint256,uint256,uint8,bytes32,bytes32)": "a4a78f0c",
    "selfPermitIfNecessary(address,uint256,uint256,uint8,bytes32,bytes32)": "c2e3140a",
    "setApprovalForAll(address,bool)": "a22cb465",
    "supportsInterface(bytes4)": "01ffc9a7",
    "sweepToken(address,uint256,address)": "df2ab5bb",
    "symbol()": "95d89b41",
    "tokenByIndex(uint256)": "4f6ccce7",
    "tokenOfOwnerByIndex(address,uint256)": "2f745c59",
    "tokenURI(uint256)": "c87b56dd",
    "totalSupply()": "18160ddd",
    "transferFrom(address,address,uint256)": "23b872dd",
    "unwrapWETH9(uint256,address)": "49404b7c"
  },
  "id": 133
}