{
  "abi": [
    {
      "inputs": [
        {
          "internalType": "contract IPancakeV3Pool",
          "name": "pool",
          "type": "address"
        },
        {
          "internalType": "int24",
          "name": "tickBefore",
          "type": "int24"
        },
        {
          "internalType": "int24",
          "name": "tickAfter",
          "type": "int24"
        }
      ],
      "name": "countInitializedTicksCrossed",
      "outputs": [
        {
          "internalType": "uint32",
          "name": "initializedTicksCrossed",
          "type": "uint32"
        }
      ],
      "stateMutability": "view",
      "type": "function"
    }
  ],
  "bytecode": {
    "object": "0x608060405234801561001057600080fd5b50610853806100206000396000f3fe608060405234801561001057600080fd5b506004361061002b5760003560e01c80634c5b941c14610030575b600080fd5b61004361003e366004610631565b61005c565b60405163ffffffff909116815260200160405180910390f35b60006100726001600160a01b038516848461007a565b949350505050565b60008060008060008060008060088b6001600160a01b031663d0c93a7c6040518163ffffffff1660e01b8152600401602060405180830381865afa1580156100c6573d6000803e3d6000fd5b505050506040513d601f19601f820116820180604052508101906100ea9190610688565b6100f4908c6106d8565b60020b901d905060006101008c6001600160a01b031663d0c93a7c6040518163ffffffff1660e01b8152600401602060405180830381865afa15801561013e573d6000803e3d6000fd5b505050506040513d601f19601f820116820180604052508101906101629190610688565b61016c908d6106d8565b6101769190610712565b9050600060088d6001600160a01b031663d0c93a7c6040518163ffffffff1660e01b8152600401602060405180830381865afa1580156101ba573d6000803e3d6000fd5b505050506040513d601f19601f820116820180604052508101906101de9190610688565b6101e8908d6106d8565b60020b901d905060006101008e6001600160a01b031663d0c93a7c6040518163ffffffff1660e01b8152600401602060405180830381865afa158015610232573d6000803e3d6000fd5b505050506040513d601f19601f820116820180604052508101906102569190610688565b610260908e6106d8565b61026a9190610734565b905060008160ff166001901b8f6001600160a01b0316635339c296856040518263ffffffff1660e01b81526004016102ab919060019190910b815260200190565b602060405180830381865afa1580156102c8573d6000803e3d6000fd5b505050506040513d601f19601f820116820180604052508101906102ec9190610756565b1611801561036657508d6001600160a01b031663d0c93a7c6040518163ffffffff1660e01b8152600401602060405180830381865afa158015610333573d6000803e3d6000fd5b505050506040513d601f19601f820116820180604052508101906103579190610688565b610361908d610734565b60020b155b801561037757508b60020b8d60020b135b945060008360ff166001901b8f6001600160a01b0316635339c296876040518263ffffffff1660e01b81526004016103b8919060019190910b815260200190565b602060405180830381865afa1580156103d5573d6000803e3d6000fd5b505050506040513d601f19601f820116820180604052508101906103f99190610756565b1611801561047357508d6001600160a01b031663d0c93a7c6040518163ffffffff1660e01b8152600401602060405180830381865afa158015610440573d6000803e3d6000fd5b505050506040513d601f19601f820116820180604052508101906104649190610688565b61046e908e610734565b60020b155b801561048457508b60020b8d60020b125b95508160010b8460010b12806104b057508160010b8460010b1480156104b057508060ff168360ff1611155b156104c6578399508297508198508096506104d3565b8199508097508398508296505b505060001960ff87161b9150505b8560010b8760010b136105b7578560010b8760010b03610512576105068460ff61076f565b60001960ff919091161c165b60405163299ce14b60e11b8152600188900b600482015260009082906001600160a01b038e1690635339c29690602401602060405180830381865afa15801561055f573d6000803e3d6000fd5b505050506040513d601f19601f820116820180604052508101906105839190610756565b16905061058f816105ed565b61059d9061ffff168a610788565b9850876105a9816107ac565b9850506000199150506104e1565b81156105cb576105c86001896107cc565b97505b82156105df576105dc6001896107cc565b97505b505050505050509392505050565b6000805b82156106195780610601816107e9565b9150610610905060018461080a565b831692506105f1565b92915050565b8060020b811461062e57600080fd5b50565b60008060006060848603121561064657600080fd5b83356001600160a01b038116811461065d57600080fd5b9250602084013561066d8161061f565b9150604084013561067d8161061f565b809150509250925092565b60006020828403121561069a57600080fd5b81516106a58161061f565b9392505050565b634e487b7160e01b600052601260045260246000fd5b634e487b7160e01b600052601160045260246000fd5b60008160020b8360020b806106ef576106ef6106ac565b627fffff19821460001982141615610709576107096106c2565b90059392505050565b600062ffffff80841680610728576107286106ac565b92169190910692915050565b60008260020b80610747576107476106ac565b808360020b0791505092915050565b60006020828403121561076857600080fd5b5051919050565b60ff8281168282160390811115610619576106196106c2565b63ffffffff8181168382160190808211156107a5576107a56106c2565b5092915050565b60008160010b617fff81036107c3576107c36106c2565b60010192915050565b63ffffffff8281168282160390808211156107a5576107a56106c2565b600061ffff808316818103610800576108006106c2565b6001019392505050565b81810381811115610619576106196106c256fea26469706673582212205be6c6de002344097d5ca21f91294b71cb5ca905d375a462cc070684edac175e64736f6c63430008150033",
    "linkReferences": {}
  },
  "methodIdentifiers": {
    "countInitializedTicksCrossed(address,int24,int24)": "4c5b941c"
  },
  "id": 102
}