{
  "abi": [
    {
      "inputs": [
        {
          "internalType": "address",
          "name": "_WETH9",
          "type": "address"
        },
        {
          "internalType": "bytes32",
          "name": "_nativeCurrencyLabelBytes",
          "type": "bytes32"
        },
        {
          "internalType": "address",
          "name": "_nftDescriptorEx",
          "type": "address"
        }
      ],
      "stateMutability": "nonpayable",
      "type": "constructor"
    },
    {
      "inputs": [],
      "name": "WETH9",
      "outputs": [
        {
          "internalType": "address",
          "name": "",
          "type": "address"
        }
      ],
      "stateMutability": "view",
      "type": "function"
    },
    {
      "inputs": [
        {
          "internalType": "address",
          "name": "token0",
          "type": "address"
        },
        {
          "internalType": "address",
          "name": "token1",
          "type": "address"
        },
        {
          "internalType": "uint256",
          "name": "chainId",
          "type": "uint256"
        }
      ],
      "name": "flipRatio",
      "outputs": [
        {
          "internalType": "bool",
          "name": "",
          "type": "bool"
        }
      ],
      "stateMutability": "view",
      "type": "function"
    },
    {
      "inputs": [],
      "name": "nativeCurrencyLabel",
      "outputs": [
        {
          "internalType": "string",
          "name": "",
          "type": "string"
        }
      ],
      "stateMutability": "view",
      "type": "function"
    },
    {
      "inputs": [],
      "name": "nativeCurrencyLabelBytes",
      "outputs": [
        {
          "internalType": "bytes32",
          "name": "",
          "type": "bytes32"
        }
      ],
      "stateMutability": "view",
      "type": "function"
    },
    {
      "inputs": [],
      "name": "nftDescriptorEx",
      "outputs": [
        {
          "internalType": "address",
          "name": "",
          "type": "address"
        }
      ],
      "stateMutability": "view",
      "type": "function"
    },
    {
      "inputs": [
        {
          "internalType": "address",
          "name": "token",
          "type": "address"
        },
        {
          "internalType": "uint256",
          "name": "chainId",
          "type": "uint256"
        }
      ],
      "name": "tokenRatioPriority",
      "outputs": [
        {
          "internalType": "int256",
          "name": "",
          "type": "int256"
        }
      ],
      "stateMutability": "view",
      "type": "function"
    },
    {
      "inputs": [
        {
          "internalType": "contract INonfungiblePositionManager",
          "name": "positionManager",
          "type": "address"
        },
        {
          "internalType": "uint256",
          "name": "tokenId",
          "type": "uint256"
        }
      ],
      "name": "tokenURI",
      "outputs": [
        {
          "internalType": "string",
          "name": "",
          "type": "string"
        }
      ],
      "stateMutability": "view",
      "type": "function"
    }
  ],
  "bytecode": {
    "object": "0x60e060405234801561001057600080fd5b5060405161158838038061158883398101604081905261002f91610070565b6001600160601b0319606093841b811660805260a09290925290911b1660c0526100ab565b80516001600160a01b038116811461006b57600080fd5b919050565b600080600060608486031215610084578283fd5b61008d84610054565b9250602084015191506100a260408501610054565b90509250925092565b60805160601c60a05160c05160601c61148d6100fb600039806103d452806105ef5250806102a252806102d6528061037252508061011a528061015f528061064e52806106a2525061148d6000f3fe608060405234801561001057600080fd5b506004361061007d5760003560e01c8063a18246e21161005b578063a18246e2146100e0578063b7af3cdc146100e8578063d8a8463f146100fd578063e9dc6375146101055761007d565b80634aa4a4fc146100825780637e5af771146100a05780639d7b0ea8146100c0575b600080fd5b61008a610118565b60405161009791906112b6565b60405180910390f35b6100b36100ae366004610faa565b61013c565b60405161009791906112ca565b6100d36100ce366004610fea565b61015b565b60405161009791906112d5565b6100d36102a0565b6100f06102c4565b60405161009791906112de565b61008a6103d2565b6100f0610113366004610fea565b6103f6565b7f000000000000000000000000000000000000000000000000000000000000000081565b6000610148838361015b565b610152858461015b565b13949350505050565b60007f00000000000000000000000000000000000000000000000000000000000000006001600160a01b0316836001600160a01b031614156101a0575060631961029a565b8160011415610296576001600160a01b03831673a0b86991c6218b36c1d19d4a2e9eb0ce3606eb4814156101d7575061012c61029a565b6001600160a01b03831673dac17f958d2ee523a2206206994597c13d831ec71415610204575060c861029a565b6001600160a01b038316736b175474e89094c44da98b954eedeac495271d0f14156102315750606461029a565b6001600160a01b038316738daebade922df735c38c80c7ebd708af50815faa141561025f575060c71961029a565b6001600160a01b038316732260fac5e5542a773aa44fbcfedf7c193bc2c599141561028e575061012b1961029a565b50600061029a565b5060005b92915050565b7f000000000000000000000000000000000000000000000000000000000000000081565b606060005b60208110801561031157507f0000000000000000000000000000000000000000000000000000000000000000816020811061030057fe5b1a60f81b6001600160f81b03191615155b1561031e576001016102c9565b60008167ffffffffffffffff8111801561033757600080fd5b506040519080825280601f01601f191660200182016040528015610362576020820181803683370190505b50905060005b828110156103cb577f0000000000000000000000000000000000000000000000000000000000000000816020811061039c57fe5b1a60f81b8282815181106103ac57fe5b60200101906001600160f81b031916908160001a905350600101610368565b5091505090565b7f000000000000000000000000000000000000000000000000000000000000000081565b60606000806000806000876001600160a01b03166399fbab88886040518263ffffffff1660e01b815260040161042c91906112d5565b6101806040518083038186803b15801561044557600080fd5b505afa158015610459573d6000803e3d6000fd5b505050506040513d601f19601f8201168201806040525081019061047d9190611181565b5050505050965096509650965096505050600061053b896001600160a01b031663d5f394886040518163ffffffff1660e01b815260040160206040518083038186803b1580156104cc57600080fd5b505afa1580156104e0573d6000803e3d6000fd5b505050506040513d601f19601f820116820180604052508101906105049190610f87565b6040518060600160405280896001600160a01b03168152602001886001600160a01b031681526020018762ffffff1681525061091b565b9050600061054c87876100ae6109ff565b90506000811561055c578761055e565b865b90506000821561056e5787610570565b885b90506000846001600160a01b0316633850c7bd6040518163ffffffff1660e01b815260040160e06040518083038186803b1580156105ad57600080fd5b505afa1580156105c1573d6000803e3d6000fd5b505050506040513d601f19601f820116820180604052508101906105e591906110c6565b50505050509150507f00000000000000000000000000000000000000000000000000000000000000006001600160a01b031663f93a7911604051806101c001604052808f8152602001866001600160a01b03168152602001856001600160a01b031681526020017f00000000000000000000000000000000000000000000000000000000000000006001600160a01b0316876001600160a01b0316146106935761068e87610a03565b61069b565b61069b6102c4565b81526020017f00000000000000000000000000000000000000000000000000000000000000006001600160a01b0316866001600160a01b0316146106e7576106e286610a03565b6106ef565b6106ef6102c4565b8152602001866001600160a01b031663313ce5676040518163ffffffff1660e01b815260040160206040518083038186803b15801561072d57600080fd5b505afa158015610741573d6000803e3d6000fd5b505050506040513d601f19601f820116820180604052508101906107659190611160565b60ff168152602001856001600160a01b031663313ce5676040518163ffffffff1660e01b815260040160206040518083038186803b1580156107a657600080fd5b505afa1580156107ba573d6000803e3d6000fd5b505050506040513d601f19601f820116820180604052508101906107de9190611160565b60ff16815260200187151581526020018a60020b81526020018960020b81526020018460020b8152602001886001600160a01b031663d0c93a7c6040518163ffffffff1660e01b815260040160206040518083038186803b15801561084257600080fd5b505afa158015610856573d6000803e3d6000fd5b505050506040513d601f19601f8201168201806040525081019061087a9190611015565b60020b81526020018b62ffffff168152602001886001600160a01b03168152506040518263ffffffff1660e01b81526004016108b691906112f1565b60006040518083038186803b1580156108ce57600080fd5b505afa1580156108e2573d6000803e3d6000fd5b505050506040513d6000823e601f3d908101601f1916820160405261090a919081019061102f565b9d9c50505050505050505050505050565b600081602001516001600160a01b031682600001516001600160a01b03161061094357600080fd5b50805160208083015160409384015184516001600160a01b0394851681850152939091168385015262ffffff166060808401919091528351808403820181526080840185528051908301206001600160f81b031960a085015294901b6bffffffffffffffffffffffff191660a183015260b58201939093527f5d227b1224d702ed5c29b93295d4c56c96d9ba453960e291d2fc046c48fe5c7260d5808301919091528251808303909101815260f5909101909152805191012090565b4690565b60606000610a18836395d89b4160e01b610a3d565b9050805160001415610a3557610a2d83610c65565b915050610a38565b90505b919050565b60408051600481526024810182526020810180516001600160e01b03166001600160e01b031985161781529151815160609360009384936001600160a01b03891693919290918291908083835b60208310610aa95780518252601f199092019160209182019101610a8a565b6001836020036101000a038019825116818451168082178552505050505050905001915050600060405180830381855afa9150503d8060008114610b09576040519150601f19603f3d011682016040523d82523d6000602084013e610b0e565b606091505b5091509150811580610b1f57508051155b15610b3d57604051806020016040528060008152509250505061029a565b805160201415610b75576000818060200190516020811015610b5e57600080fd5b50519050610b6b81610c72565b935050505061029a565b604081511115610c4d57808060200190516020811015610b9457600080fd5b8101908080516040519392919084640100000000821115610bb457600080fd5b908301906020820185811115610bc957600080fd5b8251640100000000811182820188101715610be357600080fd5b82525081516020918201929091019080838360005b83811015610c10578181015183820152602001610bf8565b50505050905090810190601f168015610c3d5780820380516001836020036101000a031916815260200191505b506040525050509250505061029a565b50506040805160208101909152600081529392505050565b6060610a35826006610d9a565b604080516020808252818301909252606091600091906020820181803683370190505090506000805b6020811015610cfc576000858260208110610cb257fe5b1a60f81b90506001600160f81b0319811615610cf35780848481518110610cd557fe5b60200101906001600160f81b031916908160001a9053506001909201915b50600101610c9b565b5060008167ffffffffffffffff81118015610d1657600080fd5b506040519080825280601f01601f191660200182016040528015610d41576020820181803683370190505b50905060005b82811015610d9157838181518110610d5b57fe5b602001015160f81c60f81b828281518110610d7257fe5b60200101906001600160f81b031916908160001a905350600101610d47565b50949350505050565b606060028206158015610dad5750600082115b8015610dba575060288211155b610e0b576040805162461bcd60e51b815260206004820152601e60248201527f41646472657373537472696e675574696c3a20494e56414c49445f4c454e0000604482015290519081900360640190fd5b60008267ffffffffffffffff81118015610e2457600080fd5b506040519080825280601f01601f191660200182016040528015610e4f576020820181803683370190505b5090506001600160a01b03841660005b60028504811015610ef357600860138290030282901c600f600482901c1660f082168203610e8c82610efd565b868560020281518110610e9b57fe5b60200101906001600160f81b031916908160001a905350610ebb81610efd565b868560020260010181518110610ecd57fe5b60200101906001600160f81b031916908160001a9053505060019092019150610e5f9050565b5090949350505050565b6000600a8260ff161015610f1857506030810160f81b610a38565b506037810160f81b610a38565b8051610a388161143f565b8051600281900b8114610a3857600080fd5b80516fffffffffffffffffffffffffffffffff81168114610a3857600080fd5b805161ffff81168114610a3857600080fd5b805162ffffff81168114610a3857600080fd5b600060208284031215610f98578081fd5b8151610fa38161143f565b9392505050565b600080600060608486031215610fbe578182fd5b8335610fc98161143f565b92506020840135610fd98161143f565b929592945050506040919091013590565b60008060408385031215610ffc578182fd5b82356110078161143f565b946020939093013593505050565b600060208284031215611026578081fd5b610fa382610f30565b600060208284031215611040578081fd5b815167ffffffffffffffff80821115611057578283fd5b818401915084601f83011261106a578283fd5b81518181111561107657fe5b604051601f8201601f19168101602001838111828210171561109457fe5b6040528181528382016020018710156110ab578485fd5b6110bc82602083016020870161140f565b9695505050505050565b600080600080600080600060e0888a0312156110e0578283fd5b87516110eb8161143f565b96506110f960208901610f30565b955061110760408901610f62565b945061111560608901610f62565b935061112360808901610f62565b925060a088015163ffffffff8116811461113b578283fd5b60c08901519092508015158114611150578182fd5b8091505092959891949750929550565b600060208284031215611171578081fd5b815160ff81168114610fa3578182fd5b6000806000806000806000806000806000806101808d8f0312156111a3578485fd5b8c516bffffffffffffffffffffffff811681146111be578586fd5b9b506111cc60208e01610f25565b9a506111da60408e01610f25565b99506111e860608e01610f25565b98506111f660808e01610f74565b975061120460a08e01610f30565b965061121260c08e01610f30565b955061122060e08e01610f42565b94506101008d015193506101208d0151925061123f6101408e01610f42565b915061124e6101608e01610f42565b90509295989b509295989b509295989b565b6001600160a01b03169052565b15159052565b60020b9052565b6000815180845261129281602086016020860161140f565b601f01601f19169290920160200192915050565b62ffffff169052565b60ff169052565b6001600160a01b0391909116815260200190565b901515815260200190565b90815260200190565b600060208252610fa3602083018461127a565b6000602082528251602083015260208301516113106040840182611260565b5060408301516113236060840182611260565b5060608301516101c08060808501526113406101e085018361127a565b91506080850151601f198584030160a086015261135d838261127a565b92505060a085015161137260c08601826112af565b5060c085015161138560e08601826112af565b5060e085015161010061139a8187018361126d565b86015190506101206113ae86820183611273565b86015190506101406113c286820183611273565b86015190506101606113d686820183611273565b86015190506101806113ea86820183611273565b86015190506101a06113fe868201836112a6565b8601519050610ef385830182611260565b60005b8381101561142a578181015183820152602001611412565b83811115611439576000848401525b50505050565b6001600160a01b038116811461145457600080fd5b5056fea264697066735822122038f375d2dbe47275bfbf0622dc3ef3ae11015897d35bdc2ed1f023aece2db06e64736f6c63430007060033",
    "linkReferences": {}
  },
  "methodIdentifiers": {
    "WETH9()": "4aa4a4fc",
    "flipRatio(address,address,uint256)": "7e5af771",
    "nativeCurrencyLabel()": "b7af3cdc",
    "nativeCurrencyLabelBytes()": "a18246e2",
    "nftDescriptorEx()": "d8a8463f",
    "tokenRatioPriority(address,uint256)": "9d7b0ea8",
    "tokenURI(address,uint256)": "e9dc6375"
  },
  "id": 134
}