{
  "abi": [
    {
      "inputs": [
        {
          "internalType": "address",
          "name": "pool",
          "type": "address"
        },
        {
          "internalType": "int16",
          "name": "tickBitmapIndex",
          "type": "int16"
        }
      ],
      "name": "getPopulatedTicksInWord",
      "outputs": [
        {
          "components": [
            {
              "internalType": "int24",
              "name": "tick",
              "type": "int24"
            },
            {
              "internalType": "int128",
              "name": "liquidityNet",
              "type": "int128"
            },
            {
              "internalType": "uint128",
              "name": "liquidityGross",
              "type": "uint128"
            }
          ],
          "internalType": "struct ITickLens.PopulatedTick[]",
          "name": "populatedTicks",
          "type": "tuple[]"
        }
      ],
      "stateMutability": "view",
      "type": "function"
    }
  ],
  "bytecode": {
    "object": "0x608060405234801561001057600080fd5b506105d8806100206000396000f3fe608060405234801561001057600080fd5b506004361061002b5760003560e01c8063351fb47814610030575b600080fd5b61004361003e366004610314565b610059565b6040516100509190610354565b60405180910390f35b60405163299ce14b60e11b8152600182900b60048201526060906000906001600160a01b03851690635339c29690602401602060405180830381865afa1580156100a7573d6000803e3d6000fd5b505050506040513d601f19601f820116820180604052508101906100cb91906103bc565b90506000805b610100811015610106576001811b8316156100f457816100f0816103eb565b9250505b806100fe816103eb565b9150506100d1565b506000856001600160a01b031663d0c93a7c6040518163ffffffff1660e01b8152600401602060405180830381865afa158015610147573d6000803e3d6000fd5b505050506040513d601f19601f8201168201806040525081019061016b9190610404565b90508167ffffffffffffffff8111156101865761018661042e565b6040519080825280602002602001820160405280156101d157816020015b60408051606081018252600080825260208083018290529282015282526000199092019101816101a45790505b50935060005b6101008110156102f2576001811b8416156102e0576000826102008360088a901b60020b610444565b61020a919061046f565b60405163f30dba9360e01b8152600282900b600482015290915060009081906001600160a01b038b169063f30dba939060240161010060405180830381865afa15801561025b573d6000803e3d6000fd5b505050506040513d601f19601f8201168201806040525081019061027f91906104ca565b5050505050509150915060405180606001604052808460020b815260200182600f0b8152602001836001600160801b031681525088876102be90610575565b975087815181106102d1576102d161058c565b60200260200101819052505050505b806102ea816103eb565b9150506101d7565b5050505092915050565b6001600160a01b038116811461031157600080fd5b50565b6000806040838503121561032757600080fd5b8235610332816102fc565b91506020830135600181900b811461034957600080fd5b809150509250929050565b602080825282518282018190526000919060409081850190868401855b828110156103af578151805160020b855286810151600f0b878601528501516001600160801b03168585015260609093019290850190600101610371565b5091979650505050505050565b6000602082840312156103ce57600080fd5b5051919050565b634e487b7160e01b600052601160045260246000fd5b6000600182016103fd576103fd6103d5565b5060010190565b60006020828403121561041657600080fd5b81518060020b811461042757600080fd5b9392505050565b634e487b7160e01b600052604160045260246000fd5b600281810b9083900b01627fffff8113627fffff1982121715610469576104696103d5565b92915050565b60008260020b8260020b028060020b915080821461048f5761048f6103d5565b5092915050565b80516104a1816102fc565b919050565b805163ffffffff811681146104a157600080fd5b805180151581146104a157600080fd5b600080600080600080600080610100898b0312156104e757600080fd5b88516001600160801b03811681146104fe57600080fd5b80985050602089015180600f0b811461051657600080fd5b80975050604089015195506060890151945060808901518060060b811461053c57600080fd5b935061054a60a08a01610496565b925061055860c08a016104a6565b915061056660e08a016104ba565b90509295985092959890939650565b600081610584576105846103d5565b506000190190565b634e487b7160e01b600052603260045260246000fdfea2646970667358221220788ab059f02fcc9f206743216c134798a26c8345186e54549a2e6120cad181f664736f6c63430008150033",
    "linkReferences": {}
  },
  "methodIdentifiers": {
    "getPopulatedTicksInWord(address,int16)": "351fb478"
  },
  "id": 97
}