{
  "abi": [
    {
      "inputs": [
        {
          "internalType": "contract IERC20",
          "name": "_QDX",
          "type": "address"
        },
        {
          "internalType": "contract INonfungiblePositionManager",
          "name": "_nonfungiblePositionManager",
          "type": "address"
        },
        {
          "internalType": "address",
          "name": "_WETH",
          "type": "address"
        }
      ],
      "stateMutability": "nonpayable",
      "type": "constructor"
    },
    {
      "inputs": [
        {
          "internalType": "uint256",
          "name": "pid",
          "type": "uint256"
        }
      ],
      "name": "DuplicatedPool",
      "type": "error"
    },
    {
      "inputs": [],
      "name": "InconsistentAmount",
      "type": "error"
    },
    {
      "inputs": [],
      "name": "InsufficientAmount",
      "type": "error"
    },
    {
      "inputs": [],
      "name": "InvalidNFT",
      "type": "error"
    },
    {
      "inputs": [],
      "name": "InvalidPeriodDuration",
      "type": "error"
    },
    {
      "inputs": [],
      "name": "InvalidPid",
      "type": "error"
    },
    {
      "inputs": [],
      "name": "NoBalance",
      "type": "error"
    },
    {
      "inputs": [],
      "name": "NoLMPool",
      "type": "error"
    },
    {
      "inputs": [],
      "name": "NoLiquidity",
      "type": "error"
    },
    {
      "inputs": [],
      "name": "NotEmpty",
      "type": "error"
    },
    {
      "inputs": [],
      "name": "NotOwner",
      "type": "error"
    },
    {
      "inputs": [],
      "name": "NotOwnerOrOperator",
      "type": "error"
    },
    {
      "inputs": [],
      "name": "NotPancakeNFT",
      "type": "error"
    },
    {
      "inputs": [],
      "name": "WrongReceiver",
      "type": "error"
    },
    {
      "inputs": [],
      "name": "ZeroAddress",
      "type": "error"
    },
    {
      "anonymous": false,
      "inputs": [
        {
          "indexed": true,
          "internalType": "uint256",
          "name": "pid",
          "type": "uint256"
        },
        {
          "indexed": false,
          "internalType": "uint256",
          "name": "allocPoint",
          "type": "uint256"
        },
        {
          "indexed": true,
          "internalType": "contract IPancakeV3Pool",
          "name": "v3Pool",
          "type": "address"
        },
        {
          "indexed": true,
          "internalType": "contract ILMPool",
          "name": "lmPool",
          "type": "address"
        }
      ],
      "name": "AddPool",
      "type": "event"
    },
    {
      "anonymous": false,
      "inputs": [
        {
          "indexed": true,
          "internalType": "address",
          "name": "from",
          "type": "address"
        },
        {
          "indexed": true,
          "internalType": "uint256",
          "name": "pid",
          "type": "uint256"
        },
        {
          "indexed": true,
          "internalType": "uint256",
          "name": "tokenId",
          "type": "uint256"
        },
        {
          "indexed": false,
          "internalType": "uint256",
          "name": "liquidity",
          "type": "uint256"
        },
        {
          "indexed": false,
          "internalType": "int24",
          "name": "tickLower",
          "type": "int24"
        },
        {
          "indexed": false,
          "internalType": "int24",
          "name": "tickUpper",
          "type": "int24"
        }
      ],
      "name": "Deposit",
      "type": "event"
    },
    {
      "anonymous": false,
      "inputs": [
        {
          "indexed": true,
          "internalType": "address",
          "name": "sender",
          "type": "address"
        },
        {
          "indexed": false,
          "internalType": "address",
          "name": "to",
          "type": "address"
        },
        {
          "indexed": true,
          "internalType": "uint256",
          "name": "pid",
          "type": "uint256"
        },
        {
          "indexed": true,
          "internalType": "uint256",
          "name": "tokenId",
          "type": "uint256"
        },
        {
          "indexed": false,
          "internalType": "uint256",
          "name": "reward",
          "type": "uint256"
        }
      ],
      "name": "Harvest",
      "type": "event"
    },
    {
      "anonymous": false,
      "inputs": [
        {
          "indexed": false,
          "internalType": "address",
          "name": "deployer",
          "type": "address"
        }
      ],
      "name": "NewLMPoolDeployerAddress",
      "type": "event"
    },
    {
      "anonymous": false,
      "inputs": [
        {
          "indexed": false,
          "internalType": "address",
          "name": "operator",
          "type": "address"
        }
      ],
      "name": "NewOperatorAddress",
      "type": "event"
    },
    {
      "anonymous": false,
      "inputs": [
        {
          "indexed": false,
          "internalType": "uint256",
          "name": "periodDuration",
          "type": "uint256"
        }
      ],
      "name": "NewPeriodDuration",
      "type": "event"
    },
    {
      "anonymous": false,
      "inputs": [
        {
          "indexed": false,
          "internalType": "address",
          "name": "receiver",
          "type": "address"
        }
      ],
      "name": "NewReceiver",
      "type": "event"
    },
    {
      "anonymous": false,
      "inputs": [
        {
          "indexed": true,
          "internalType": "uint256",
          "name": "periodNumber",
          "type": "uint256"
        },
        {
          "indexed": false,
          "internalType": "uint256",
          "name": "startTime",
          "type": "uint256"
        },
        {
          "indexed": false,
          "internalType": "uint256",
          "name": "endTime",
          "type": "uint256"
        },
        {
          "indexed": false,
          "internalType": "uint256",
          "name": "qdxPerSecond",
          "type": "uint256"
        },
        {
          "indexed": false,
          "internalType": "uint256",
          "name": "qdxAmount",
          "type": "uint256"
        }
      ],
      "name": "NewUpkeepPeriod",
      "type": "event"
    },
    {
      "anonymous": false,
      "inputs": [
        {
          "indexed": true,
          "internalType": "address",
          "name": "previousOwner",
          "type": "address"
        },
        {
          "indexed": true,
          "internalType": "address",
          "name": "newOwner",
          "type": "address"
        }
      ],
      "name": "OwnershipTransferred",
      "type": "event"
    },
    {
      "anonymous": false,
      "inputs": [
        {
          "indexed": false,
          "internalType": "bool",
          "name": "emergency",
          "type": "bool"
        }
      ],
      "name": "SetEmergency",
      "type": "event"
    },
    {
      "anonymous": false,
      "inputs": [
        {
          "indexed": true,
          "internalType": "uint256",
          "name": "pid",
          "type": "uint256"
        },
        {
          "indexed": false,
          "internalType": "uint256",
          "name": "allocPoint",
          "type": "uint256"
        }
      ],
      "name": "SetPool",
      "type": "event"
    },
    {
      "anonymous": false,
      "inputs": [
        {
          "indexed": true,
          "internalType": "address",
          "name": "farmBoostContract",
          "type": "address"
        }
      ],
      "name": "UpdateFarmBoostContract",
      "type": "event"
    },
    {
      "anonymous": false,
      "inputs": [
        {
          "indexed": true,
          "internalType": "address",
          "name": "from",
          "type": "address"
        },
        {
          "indexed": true,
          "internalType": "uint256",
          "name": "pid",
          "type": "uint256"
        },
        {
          "indexed": true,
          "internalType": "uint256",
          "name": "tokenId",
          "type": "uint256"
        },
        {
          "indexed": false,
          "internalType": "int128",
          "name": "liquidity",
          "type": "int128"
        },
        {
          "indexed": false,
          "internalType": "int24",
          "name": "tickLower",
          "type": "int24"
        },
        {
          "indexed": false,
          "internalType": "int24",
          "name": "tickUpper",
          "type": "int24"
        }
      ],
      "name": "UpdateLiquidity",
      "type": "event"
    },
    {
      "anonymous": false,
      "inputs": [
        {
          "indexed": true,
          "internalType": "uint256",
          "name": "periodNumber",
          "type": "uint256"
        },
        {
          "indexed": false,
          "internalType": "uint256",
          "name": "oldEndTime",
          "type": "uint256"
        },
        {
          "indexed": false,
          "internalType": "uint256",
          "name": "newEndTime",
          "type": "uint256"
        },
        {
          "indexed": false,
          "internalType": "uint256",
          "name": "remainingQDX",
          "type": "uint256"
        }
      ],
      "name": "UpdateUpkeepPeriod",
      "type": "event"
    },
    {
      "anonymous": false,
      "inputs": [
        {
          "indexed": true,
          "internalType": "address",
          "name": "from",
          "type": "address"
        },
        {
          "indexed": false,
          "internalType": "address",
          "name": "to",
          "type": "address"
        },
        {
          "indexed": true,
          "internalType": "uint256",
          "name": "pid",
          "type": "uint256"
        },
        {
          "indexed": true,
          "internalType": "uint256",
          "name": "tokenId",
          "type": "uint256"
        }
      ],
      "name": "Withdraw",
      "type": "event"
    },
    {
      "inputs": [],
      "name": "BOOST_PRECISION",
      "outputs": [
        {
          "internalType": "uint256",
          "name": "",
          "type": "uint256"
        }
      ],
      "stateMutability": "view",
      "type": "function"
    },
    {
      "inputs": [],
      "name": "FARM_BOOSTER",
      "outputs": [
        {
          "internalType": "contract IFarmBooster",
          "name": "",
          "type": "address"
        }
      ],
      "stateMutability": "view",
      "type": "function"
    },
    {
      "inputs": [],
      "name": "LMPoolDeployer",
      "outputs": [
        {
          "internalType": "contract ILMPoolDeployer",
          "name": "",
          "type": "address"
        }
      ],
      "stateMutability": "view",
      "type": "function"
    },
    {
      "inputs": [],
      "name": "MAX_BOOST_PRECISION",
      "outputs": [
        {
          "internalType": "uint256",
          "name": "",
          "type": "uint256"
        }
      ],
      "stateMutability": "view",
      "type": "function"
    },
    {
      "inputs": [],
      "name": "MAX_DURATION",
      "outputs": [
        {
          "internalType": "uint256",
          "name": "",
          "type": "uint256"
        }
      ],
      "stateMutability": "view",
      "type": "function"
    },
    {
      "inputs": [],
      "name": "MIN_DURATION",
      "outputs": [
        {
          "internalType": "uint256",
          "name": "",
          "type": "uint256"
        }
      ],
      "stateMutability": "view",
      "type": "function"
    },
    {
      "inputs": [],
      "name": "PERIOD_DURATION",
      "outputs": [
        {
          "internalType": "uint256",
          "name": "",
          "type": "uint256"
        }
      ],
      "stateMutability": "view",
      "type": "function"
    },
    {
      "inputs": [],
      "name": "PRECISION",
      "outputs": [
        {
          "internalType": "uint256",
          "name": "",
          "type": "uint256"
        }
      ],
      "stateMutability": "view",
      "type": "function"
    },
    {
      "inputs": [],
      "name": "QDX",
      "outputs": [
        {
          "internalType": "contract IERC20",
          "name": "",
          "type": "address"
        }
      ],
      "stateMutability": "view",
      "type": "function"
    },
    {
      "inputs": [],
      "name": "WETH",
      "outputs": [
        {
          "internalType": "address",
          "name": "",
          "type": "address"
        }
      ],
      "stateMutability": "view",
      "type": "function"
    },
    {
      "inputs": [
        {
          "internalType": "uint256",
          "name": "_allocPoint",
          "type": "uint256"
        },
        {
          "internalType": "contract IPancakeV3Pool",
          "name": "_v3Pool",
          "type": "address"
        },
        {
          "internalType": "bool",
          "name": "_withUpdate",
          "type": "bool"
        }
      ],
      "name": "add",
      "outputs": [],
      "stateMutability": "nonpayable",
      "type": "function"
    },
    {
      "inputs": [
        {
          "internalType": "address",
          "name": "owner",
          "type": "address"
        }
      ],
      "name": "balanceOf",
      "outputs": [
        {
          "internalType": "uint256",
          "name": "",
          "type": "uint256"
        }
      ],
      "stateMutability": "view",
      "type": "function"
    },
    {
      "inputs": [
        {
          "internalType": "uint256",
          "name": "_tokenId",
          "type": "uint256"
        }
      ],
      "name": "burn",
      "outputs": [],
      "stateMutability": "nonpayable",
      "type": "function"
    },
    {
      "inputs": [
        {
          "components": [
            {
              "internalType": "uint256",
              "name": "tokenId",
              "type": "uint256"
            },
            {
              "internalType": "address",
              "name": "recipient",
              "type": "address"
            },
            {
              "internalType": "uint128",
              "name": "amount0Max",
              "type": "uint128"
            },
            {
              "internalType": "uint128",
              "name": "amount1Max",
              "type": "uint128"
            }
          ],
          "internalType": "struct INonfungiblePositionManagerStruct.CollectParams",
          "name": "params",
          "type": "tuple"
        }
      ],
      "name": "collect",
      "outputs": [
        {
          "internalType": "uint256",
          "name": "amount0",
          "type": "uint256"
        },
        {
          "internalType": "uint256",
          "name": "amount1",
          "type": "uint256"
        }
      ],
      "stateMutability": "nonpayable",
      "type": "function"
    },
    {
      "inputs": [
        {
          "components": [
            {
              "internalType": "uint256",
              "name": "tokenId",
              "type": "uint256"
            },
            {
              "internalType": "address",
              "name": "recipient",
              "type": "address"
            },
            {
              "internalType": "uint128",
              "name": "amount0Max",
              "type": "uint128"
            },
            {
              "internalType": "uint128",
              "name": "amount1Max",
              "type": "uint128"
            }
          ],
          "internalType": "struct INonfungiblePositionManagerStruct.CollectParams",
          "name": "params",
          "type": "tuple"
        },
        {
          "internalType": "address",
          "name": "to",
          "type": "address"
        }
      ],
      "name": "collectTo",
      "outputs": [
        {
          "internalType": "uint256",
          "name": "amount0",
          "type": "uint256"
        },
        {
          "internalType": "uint256",
          "name": "amount1",
          "type": "uint256"
        }
      ],
      "stateMutability": "nonpayable",
      "type": "function"
    },
    {
      "inputs": [
        {
          "components": [
            {
              "internalType": "uint256",
              "name": "tokenId",
              "type": "uint256"
            },
            {
              "internalType": "uint128",
              "name": "liquidity",
              "type": "uint128"
            },
            {
              "internalType": "uint256",
              "name": "amount0Min",
              "type": "uint256"
            },
            {
              "internalType": "uint256",
              "name": "amount1Min",
              "type": "uint256"
            },
            {
              "internalType": "uint256",
              "name": "deadline",
              "type": "uint256"
            }
          ],
          "internalType": "struct INonfungiblePositionManagerStruct.DecreaseLiquidityParams",
          "name": "params",
          "type": "tuple"
        }
      ],
      "name": "decreaseLiquidity",
      "outputs": [
        {
          "internalType": "uint256",
          "name": "amount0",
          "type": "uint256"
        },
        {
          "internalType": "uint256",
          "name": "amount1",
          "type": "uint256"
        }
      ],
      "stateMutability": "nonpayable",
      "type": "function"
    },
    {
      "inputs": [],
      "name": "emergency",
      "outputs": [
        {
          "internalType": "bool",
          "name": "",
          "type": "bool"
        }
      ],
      "stateMutability": "view",
      "type": "function"
    },
    {
      "inputs": [
        {
          "internalType": "address",
          "name": "_v3Pool",
          "type": "address"
        }
      ],
      "name": "getLatestPeriodInfo",
      "outputs": [
        {
          "internalType": "uint256",
          "name": "qdxPerSecond",
          "type": "uint256"
        },
        {
          "internalType": "uint256",
          "name": "endTime",
          "type": "uint256"
        }
      ],
      "stateMutability": "view",
      "type": "function"
    },
    {
      "inputs": [
        {
          "internalType": "uint256",
          "name": "_pid",
          "type": "uint256"
        }
      ],
      "name": "getLatestPeriodInfoByPid",
      "outputs": [
        {
          "internalType": "uint256",
          "name": "qdxPerSecond",
          "type": "uint256"
        },
        {
          "internalType": "uint256",
          "name": "endTime",
          "type": "uint256"
        }
      ],
      "stateMutability": "view",
      "type": "function"
    },
    {
      "inputs": [
        {
          "internalType": "uint256",
          "name": "_tokenId",
          "type": "uint256"
        },
        {
          "internalType": "address",
          "name": "_to",
          "type": "address"
        }
      ],
      "name": "harvest",
      "outputs": [
        {
          "internalType": "uint256",
          "name": "reward",
          "type": "uint256"
        }
      ],
      "stateMutability": "nonpayable",
      "type": "function"
    },
    {
      "inputs": [
        {
          "components": [
            {
              "internalType": "uint256",
              "name": "tokenId",
              "type": "uint256"
            },
            {
              "internalType": "uint256",
              "name": "amount0Desired",
              "type": "uint256"
            },
            {
              "internalType": "uint256",
              "name": "amount1Desired",
              "type": "uint256"
            },
            {
              "internalType": "uint256",
              "name": "amount0Min",
              "type": "uint256"
            },
            {
              "internalType": "uint256",
              "name": "amount1Min",
              "type": "uint256"
            },
            {
              "internalType": "uint256",
              "name": "deadline",
              "type": "uint256"
            }
          ],
          "internalType": "struct INonfungiblePositionManagerStruct.IncreaseLiquidityParams",
          "name": "params",
          "type": "tuple"
        }
      ],
      "name": "increaseLiquidity",
      "outputs": [
        {
          "internalType": "uint128",
          "name": "liquidity",
          "type": "uint128"
        },
        {
          "internalType": "uint256",
          "name": "amount0",
          "type": "uint256"
        },
        {
          "internalType": "uint256",
          "name": "amount1",
          "type": "uint256"
        }
      ],
      "stateMutability": "payable",
      "type": "function"
    },
    {
      "inputs": [],
      "name": "latestPeriodEndTime",
      "outputs": [
        {
          "internalType": "uint256",
          "name": "",
          "type": "uint256"
        }
      ],
      "stateMutability": "view",
      "type": "function"
    },
    {
      "inputs": [],
      "name": "latestPeriodNumber",
      "outputs": [
        {
          "internalType": "uint256",
          "name": "",
          "type": "uint256"
        }
      ],
      "stateMutability": "view",
      "type": "function"
    },
    {
      "inputs": [],
      "name": "latestPeriodQDXPerSecond",
      "outputs": [
        {
          "internalType": "uint256",
          "name": "",
          "type": "uint256"
        }
      ],
      "stateMutability": "view",
      "type": "function"
    },
    {
      "inputs": [],
      "name": "latestPeriodStartTime",
      "outputs": [
        {
          "internalType": "uint256",
          "name": "",
          "type": "uint256"
        }
      ],
      "stateMutability": "view",
      "type": "function"
    },
    {
      "inputs": [
        {
          "internalType": "bytes[]",
          "name": "data",
          "type": "bytes[]"
        }
      ],
      "name": "multicall",
      "outputs": [
        {
          "internalType": "bytes[]",
          "name": "results",
          "type": "bytes[]"
        }
      ],
      "stateMutability": "payable",
      "type": "function"
    },
    {
      "inputs": [],
      "name": "nonfungiblePositionManager",
      "outputs": [
        {
          "internalType": "contract INonfungiblePositionManager",
          "name": "",
          "type": "address"
        }
      ],
      "stateMutability": "view",
      "type": "function"
    },
    {
      "inputs": [
        {
          "internalType": "address",
          "name": "",
          "type": "address"
        },
        {
          "internalType": "address",
          "name": "_from",
          "type": "address"
        },
        {
          "internalType": "uint256",
          "name": "_tokenId",
          "type": "uint256"
        },
        {
          "internalType": "bytes",
          "name": "",
          "type": "bytes"
        }
      ],
      "name": "onERC721Received",
      "outputs": [
        {
          "internalType": "bytes4",
          "name": "",
          "type": "bytes4"
        }
      ],
      "stateMutability": "nonpayable",
      "type": "function"
    },
    {
      "inputs": [],
      "name": "operatorAddress",
      "outputs": [
        {
          "internalType": "address",
          "name": "",
          "type": "address"
        }
      ],
      "stateMutability": "view",
      "type": "function"
    },
    {
      "inputs": [],
      "name": "owner",
      "outputs": [
        {
          "internalType": "address",
          "name": "",
          "type": "address"
        }
      ],
      "stateMutability": "view",
      "type": "function"
    },
    {
      "inputs": [
        {
          "internalType": "uint256",
          "name": "_tokenId",
          "type": "uint256"
        }
      ],
      "name": "pendingQDX",
      "outputs": [
        {
          "internalType": "uint256",
          "name": "reward",
          "type": "uint256"
        }
      ],
      "stateMutability": "view",
      "type": "function"
    },
    {
      "inputs": [
        {
          "internalType": "uint256",
          "name": "",
          "type": "uint256"
        }
      ],
      "name": "poolInfo",
      "outputs": [
        {
          "internalType": "uint256",
          "name": "allocPoint",
          "type": "uint256"
        },
        {
          "internalType": "contract IPancakeV3Pool",
          "name": "v3Pool",
          "type": "address"
        },
        {
          "internalType": "address",
          "name": "token0",
          "type": "address"
        },
        {
          "internalType": "address",
          "name": "token1",
          "type": "address"
        },
        {
          "internalType": "uint24",
          "name": "fee",
          "type": "uint24"
        },
        {
          "internalType": "uint256",
          "name": "totalLiquidity",
          "type": "uint256"
        },
        {
          "internalType": "uint256",
          "name": "totalBoostLiquidity",
          "type": "uint256"
        }
      ],
      "stateMutability": "view",
      "type": "function"
    },
    {
      "inputs": [],
      "name": "poolLength",
      "outputs": [
        {
          "internalType": "uint256",
          "name": "",
          "type": "uint256"
        }
      ],
      "stateMutability": "view",
      "type": "function"
    },
    {
      "inputs": [],
      "name": "qdxAmountBelongToMC",
      "outputs": [
        {
          "internalType": "uint256",
          "name": "",
          "type": "uint256"
        }
      ],
      "stateMutability": "view",
      "type": "function"
    },
    {
      "inputs": [],
      "name": "receiver",
      "outputs": [
        {
          "internalType": "address",
          "name": "",
          "type": "address"
        }
      ],
      "stateMutability": "view",
      "type": "function"
    },
    {
      "inputs": [],
      "name": "renounceOwnership",
      "outputs": [],
      "stateMutability": "nonpayable",
      "type": "function"
    },
    {
      "inputs": [
        {
          "internalType": "uint256",
          "name": "_pid",
          "type": "uint256"
        },
        {
          "internalType": "uint256",
          "name": "_allocPoint",
          "type": "uint256"
        },
        {
          "internalType": "bool",
          "name": "_withUpdate",
          "type": "bool"
        }
      ],
      "name": "set",
      "outputs": [],
      "stateMutability": "nonpayable",
      "type": "function"
    },
    {
      "inputs": [
        {
          "internalType": "bool",
          "name": "_emergency",
          "type": "bool"
        }
      ],
      "name": "setEmergency",
      "outputs": [],
      "stateMutability": "nonpayable",
      "type": "function"
    },
    {
      "inputs": [
        {
          "internalType": "contract ILMPoolDeployer",
          "name": "_LMPoolDeployer",
          "type": "address"
        }
      ],
      "name": "setLMPoolDeployer",
      "outputs": [],
      "stateMutability": "nonpayable",
      "type": "function"
    },
    {
      "inputs": [
        {
          "internalType": "address",
          "name": "_operatorAddress",
          "type": "address"
        }
      ],
      "name": "setOperator",
      "outputs": [],
      "stateMutability": "nonpayable",
      "type": "function"
    },
    {
      "inputs": [
        {
          "internalType": "uint256",
          "name": "_periodDuration",
          "type": "uint256"
        }
      ],
      "name": "setPeriodDuration",
      "outputs": [],
      "stateMutability": "nonpayable",
      "type": "function"
    },
    {
      "inputs": [
        {
          "internalType": "address",
          "name": "_receiver",
          "type": "address"
        }
      ],
      "name": "setReceiver",
      "outputs": [],
      "stateMutability": "nonpayable",
      "type": "function"
    },
    {
      "inputs": [
        {
          "internalType": "address",
          "name": "token",
          "type": "address"
        },
        {
          "internalType": "uint256",
          "name": "amountMinimum",
          "type": "uint256"
        },
        {
          "internalType": "address",
          "name": "recipient",
          "type": "address"
        }
      ],
      "name": "sweepToken",
      "outputs": [],
      "stateMutability": "nonpayable",
      "type": "function"
    },
    {
      "inputs": [
        {
          "internalType": "address",
          "name": "owner",
          "type": "address"
        },
        {
          "internalType": "uint256",
          "name": "index",
          "type": "uint256"
        }
      ],
      "name": "tokenOfOwnerByIndex",
      "outputs": [
        {
          "internalType": "uint256",
          "name": "",
          "type": "uint256"
        }
      ],
      "stateMutability": "view",
      "type": "function"
    },
    {
      "inputs": [],
      "name": "totalAllocPoint",
      "outputs": [
        {
          "internalType": "uint256",
          "name": "",
          "type": "uint256"
        }
      ],
      "stateMutability": "view",
      "type": "function"
    },
    {
      "inputs": [
        {
          "internalType": "address",
          "name": "newOwner",
          "type": "address"
        }
      ],
      "name": "transferOwnership",
      "outputs": [],
      "stateMutability": "nonpayable",
      "type": "function"
    },
    {
      "inputs": [
        {
          "internalType": "uint256",
          "name": "amountMinimum",
          "type": "uint256"
        },
        {
          "internalType": "address",
          "name": "recipient",
          "type": "address"
        }
      ],
      "name": "unwrapWETH9",
      "outputs": [],
      "stateMutability": "nonpayable",
      "type": "function"
    },
    {
      "inputs": [
        {
          "internalType": "uint256",
          "name": "_tokenId",
          "type": "uint256"
        },
        {
          "internalType": "uint256",
          "name": "_newMultiplier",
          "type": "uint256"
        }
      ],
      "name": "updateBoostMultiplier",
      "outputs": [],
      "stateMutability": "nonpayable",
      "type": "function"
    },
    {
      "inputs": [
        {
          "internalType": "address",
          "name": "_newFarmBoostContract",
          "type": "address"
        }
      ],
      "name": "updateFarmBoostContract",
      "outputs": [],
      "stateMutability": "nonpayable",
      "type": "function"
    },
    {
      "inputs": [
        {
          "internalType": "uint256",
          "name": "_tokenId",
          "type": "uint256"
        }
      ],
      "name": "updateLiquidity",
      "outputs": [],
      "stateMutability": "nonpayable",
      "type": "function"
    },
    {
      "inputs": [
        {
          "internalType": "uint256[]",
          "name": "pids",
          "type": "uint256[]"
        }
      ],
      "name": "updatePools",
      "outputs": [],
      "stateMutability": "nonpayable",
      "type": "function"
    },
    {
      "inputs": [
        {
          "internalType": "uint256",
          "name": "_amount",
          "type": "uint256"
        },
        {
          "internalType": "uint256",
          "name": "_duration",
          "type": "uint256"
        },
        {
          "internalType": "bool",
          "name": "_withUpdate",
          "type": "bool"
        }
      ],
      "name": "upkeep",
      "outputs": [],
      "stateMutability": "nonpayable",
      "type": "function"
    },
    {
      "inputs": [
        {
          "internalType": "uint256",
          "name": "",
          "type": "uint256"
        }
      ],
      "name": "userPositionInfos",
      "outputs": [
        {
          "internalType": "uint128",
          "name": "liquidity",
          "type": "uint128"
        },
        {
          "internalType": "uint128",
          "name": "boostLiquidity",
          "type": "uint128"
        },
        {
          "internalType": "int24",
          "name": "tickLower",
          "type": "int24"
        },
        {
          "internalType": "int24",
          "name": "tickUpper",
          "type": "int24"
        },
        {
          "internalType": "uint256",
          "name": "rewardGrowthInside",
          "type": "uint256"
        },
        {
          "internalType": "uint256",
          "name": "reward",
          "type": "uint256"
        },
        {
          "internalType": "address",
          "name": "user",
          "type": "address"
        },
        {
          "internalType": "uint256",
          "name": "pid",
          "type": "uint256"
        },
        {
          "internalType": "uint256",
          "name": "boostMultiplier",
          "type": "uint256"
        }
      ],
      "stateMutability": "view",
      "type": "function"
    },
    {
      "inputs": [
        {
          "internalType": "address",
          "name": "",
          "type": "address"
        }
      ],
      "name": "v3PoolAddressPid",
      "outputs": [
        {
          "internalType": "uint256",
          "name": "",
          "type": "uint256"
        }
      ],
      "stateMutability": "view",
      "type": "function"
    },
    {
      "inputs": [
        {
          "internalType": "uint256",
          "name": "_tokenId",
          "type": "uint256"
        },
        {
          "internalType": "address",
          "name": "_to",
          "type": "address"
        }
      ],
      "name": "withdraw",
      "outputs": [
        {
          "internalType": "uint256",
          "name": "reward",
          "type": "uint256"
        }
      ],
      "stateMutability": "nonpayable",
      "type": "function"
    },
    {
      "stateMutability": "payable",
      "type": "receive"
    }
  ],
  "bytecode": {
    "object": "0x60e0604052620151806013553480156200001857600080fd5b5060405162005825380380620058258339810160408190526200003b91620000d1565b620000463362000068565b600180556001600160a01b0392831660805290821660c0521660a05262000125565b600080546001600160a01b038381166001600160a01b0319831681178455604051919092169283917f8be0079c531659141344cd1fd0a4f28419497f9722a3daafe3b4186f6b6457e09190a35050565b6001600160a01b0381168114620000ce57600080fd5b50565b600080600060608486031215620000e757600080fd5b8351620000f481620000b8565b60208501519093506200010781620000b8565b60408501519092506200011a81620000b8565b809150509250925092565b60805160a05160c0516155fe620002276000396000818161036301528181610a7801528181610fb60152818161115a015281816114f10152818161164c015281816116d601528181611e5001528181611ed901528181611f1d01528181611fa6015281816123b5015281816127410152818161381b01528181613c8b01526145db01526000818161039701528181610a0d015281816122dd0152818161231e015281816129f101528181612aa301528181614334015281816143810152818161451a015261459501526000818161092c01528181611261015281816130e80152818161361c015281816142dc01528181614768015261481401526155fe6000f3fe6080604052600436106103535760003560e01c8063715018a6116101c6578063b4ce1280116100f7578063dafa8b5b11610095578063f7260d3e1161006f578063f7260d3e14610bb8578063fbc911d014610bd8578063fc6f786514610bf8578063fcf0b9d814610c1857600080fd5b8063dafa8b5b14610b62578063df2ab5bb14610b78578063f2fde38b14610b9857600080fd5b8063cc6db2da116100d1578063cc6db2da146109c2578063ced0911214610b02578063cf24284914610b22578063cfb8ccfb14610b4257600080fd5b8063b4ce128014610a9a578063b6a6d17714610aba578063caa6fea414610ad157600080fd5b8063a80a71bd11610164578063ad5c46481161013e578063ad5c4648146109fb578063b1724b4614610a2f578063b3ab15fb14610a46578063b44a272214610a6657600080fd5b8063a80a71bd146109a2578063aaf5eb68146109c2578063ac9650d8146109db57600080fd5b80637f8cb23d116101a05780637f8cb23d1461091a5780638da5cb5b1461094e57806393aa83381461096c578063a15ea89f1461098257600080fd5b8063715018a6146108c5578063718da7ee146108da5780637c2d6e01146108fa57600080fd5b8063219f5d17116102a05780634c8feeef1161023e57806369746a1d1161021857806369746a1d1461085557806369b02128146108755780636d4cec781461088f57806370a08231146108a557600080fd5b80634c8feeef146107ff57806364482f791461081f5780636558954f1461083f57600080fd5b80633b1acf741161027a5780633b1acf74146106bf57806342966c681461079f57806344780994146107bf57806349404b7c146107df57600080fd5b8063219f5d17146106515780632f745c591461068957806330ec24cc146106a957600080fd5b80630d55f9131161030d5780631526fe27116102e75780631526fe271461054757806317caf6f1146105fb57806318fccc76146106115780631eaaa0451461063157600080fd5b80630d55f913146104b6578063127effb2146104d6578063150b7a021461050e57600080fd5b8062f714ce146103cb5780630501d556146103fe5780630743384d1461041e578063081e3eda1461044b5780630c49ccbe146104615780630ce5d4cc1461049657600080fd5b366103c657336001600160a01b037f000000000000000000000000000000000000000000000000000000000000000016148015906103ba5750336001600160a01b037f00000000000000000000000000000000000000000000000000000000000000001614155b156103c457600080fd5b005b600080fd5b3480156103d757600080fd5b506103eb6103e6366004614c27565b610c2e565b6040519081526020015b60405180910390f35b34801561040a57600080fd5b506103c4610419366004614c65565b611067565b34801561042a57600080fd5b506103eb610439366004614c89565b60096020526000908152604090205481565b34801561045757600080fd5b506103eb60055481565b34801561046d57600080fd5b5061048161047c366004614cd1565b6110cb565b604080519283526020830191909152016103f5565b3480156104a257600080fd5b506103c46104b1366004614d4a565b611202565b3480156104c257600080fd5b506104816104d1366004614e03565b6113fd565b3480156104e257600080fd5b506012546104f6906001600160a01b031681565b6040516001600160a01b0390911681526020016103f5565b34801561051a57600080fd5b5061052e610529366004614e30565b611637565b6040516001600160e01b031990911681526020016103f5565b34801561055357600080fd5b506105b2610562366004614ecf565b60066020526000908152604090208054600182015460028301546003840154600485015460059095015493946001600160a01b039384169492841693821692600160a01b90920462ffffff169187565b604080519788526001600160a01b0396871660208901529486169487019490945293909116606085015262ffffff16608084015260a083019190915260c082015260e0016103f5565b34801561060757600080fd5b506103eb600d5481565b34801561061d57600080fd5b506103eb61062c366004614c27565b611b41565b34801561063d57600080fd5b506103c461064c366004614ee8565b611bd5565b61066461065f366004614f1f565b612205565b604080516001600160801b0390941684526020840192909252908201526060016103f5565b34801561069557600080fd5b506103eb6106a4366004614f99565b6124ba565b3480156106b557600080fd5b506103eb600e5481565b3480156106cb57600080fd5b5061073f6106da366004614ecf565b6007602052600090815260409020805460018201546002808401546003850154600486015460058701546006909701546001600160801b0380881698600160801b909804169686860b966301000000900490950b946001600160a01b03909216919089565b604080516001600160801b039a8b1681529990981660208a0152600296870b978901979097529390940b6060870152608086019190915260a08501526001600160a01b0390911660c084015260e0830152610100820152610120016103f5565b3480156107ab57600080fd5b506103c46107ba366004614ecf565b612558565b3480156107cb57600080fd5b506103c46107da36600461500a565b6127ef565b3480156107eb57600080fd5b506103c46107fa366004614c27565b6129d1565b34801561080b57600080fd5b506103eb61081a366004614ecf565b612b1f565b34801561082b57600080fd5b506103c461083a366004614d4a565b612db6565b34801561084b57600080fd5b506103eb60135481565b34801561086157600080fd5b506103c461087036600461504c565b612f48565b34801561088157600080fd5b506103eb6501d1a94a200081565b34801561089b57600080fd5b506103eb60105481565b3480156108b157600080fd5b506103eb6108c0366004614c89565b612ff2565b3480156108d157600080fd5b506103c461307c565b3480156108e657600080fd5b506103c46108f5366004614c89565b613090565b34801561090657600080fd5b506103c4610915366004614ecf565b6131ad565b34801561092657600080fd5b506104f67f000000000000000000000000000000000000000000000000000000000000000081565b34801561095a57600080fd5b506000546001600160a01b03166104f6565b34801561097857600080fd5b506103eb60115481565b34801561098e57600080fd5b5061048161099d366004614c89565b61321b565b3480156109ae57600080fd5b506104816109bd366004614ecf565b613276565b3480156109ce57600080fd5b506103eb64e8d4a5100081565b6109ee6109e936600461500a565b6132a3565b6040516103f591906150be565b348015610a0757600080fd5b506104f67f000000000000000000000000000000000000000000000000000000000000000081565b348015610a3b57600080fd5b506103eb62278d0081565b348015610a5257600080fd5b506103c4610a61366004614c89565b6133fb565b348015610a7257600080fd5b506104f67f000000000000000000000000000000000000000000000000000000000000000081565b348015610aa657600080fd5b50600b546104f6906001600160a01b031681565b348015610ac657600080fd5b506103eb6201518081565b348015610add57600080fd5b50600c54610af290600160a01b900460ff1681565b60405190151581526020016103f5565b348015610b0e57600080fd5b506103c4610b1d366004614ecf565b613478565b348015610b2e57600080fd5b506103c4610b3d366004614c89565b6134d6565b348015610b4e57600080fd5b506103c4610b5d366004614c89565b613553565b348015610b6e57600080fd5b506103eb60145481565b348015610b8457600080fd5b506103c4610b93366004615120565b6135a5565b348015610ba457600080fd5b506103c4610bb3366004614c89565b6136b1565b348015610bc457600080fd5b50600a546104f6906001600160a01b031681565b348015610be457600080fd5b50600c546104f6906001600160a01b031681565b348015610c0457600080fd5b50610481610c13366004615157565b613727565b348015610c2457600080fd5b506103eb600f5481565b6000610c386138a2565b6001600160a01b038216301480610c5657506001600160a01b038216155b15610c7457604051631964c57360e11b815260040160405180910390fd5b600083815260076020526040902060048101546001600160a01b03163314610caf576040516330cd747160e01b815260040160405180910390fd5b610cba8185856138fb565b6005820154600081815260066020908152604080832060018101548251630a81a92360e31b81529251969850949590946001600160a01b03169263540d491892600480820193918290030181865afa158015610d1a573d6000803e3d6000fd5b505050506040513d601f19601f82011682018060405250810190610d3e9190615183565b90506001600160a01b03811615801590610d625750600c54600160a01b900460ff16155b15610e62578354600090610d8590600160801b90046001600160801b03166151b6565b6001860154604051638910faf160e01b8152600282810b6004830152630100000090920490910b6024820152600f82900b60448201529091506001600160a01b03831690638910faf190606401600060405180830381600087803b158015610dec57600080fd5b505af1158015610e00573d6000803e3d6000fd5b50505050600185015460408051600f84900b8152600283810b6020830152630100000090930490920b908201528890859033907fee8f6362d59839b4b3c990d7e085a63a0fe2c58f4eff4a9a2b6de93a4c645ae39060600160405180910390a4505b83546004830180546001600160801b0390921691600090610e849084906151dc565b90915550508354600583018054600160801b9092046001600160801b031691600090610eb19084906151dc565b9091555050600087815260076020526040812081815560018101805465ffffffffffff1916905560028101829055600381018290556004810180546001600160a01b03191690556005810182905560060155610f0d3388613bfe565b600c546001600160a01b031615610f8a57600c5460405163622cd4e160e11b815233600482015260248101899052604481018590526001600160a01b039091169063c459a9c290606401600060405180830381600087803b158015610f7157600080fd5b505af1158015610f85573d6000803e3d6000fd5b505050505b604051632142170760e11b81523060048201526001600160a01b038781166024830152604482018990527f000000000000000000000000000000000000000000000000000000000000000016906342842e0e90606401600060405180830381600087803b158015610ffa57600080fd5b505af115801561100e573d6000803e3d6000fd5b50506040516001600160a01b038916815289925085915033907ff341246adaac6f497bc2a656f546ab9e182111d630394f0c57c710a59a2cb5679060200160405180910390a45050505061106160018055565b92915050565b61106f613c2a565b600c805460ff60a01b1916600160a01b8315158102919091179182905560405160ff9190920416151581527fc749456be5379ac4cfc1f856208b32ddcf01b9db3ce6c37784ad91a8390ae9a8906020015b60405180910390a150565b6000806110d66138a2565b8251600090815260076020526040902060048101546001600160a01b03163314611113576040516330cd747160e01b815260040160405180910390fd5b60408051630624e65f60e11b81528551600482015260208601516001600160801b0316602482015290850151604482015260608501516064820152608085015160848201527f00000000000000000000000000000000000000000000000000000000000000006001600160a01b031690630c49ccbe9060a40160408051808303816000875af11580156111aa573d6000803e3d6000fd5b505050506040513d601f19601f820116820180604052508101906111ce91906151ef565b855191945092506111e290829060006138fb565b506111f38185600001516000613c84565b506111fd60018055565b915091565b600a546001600160a01b031633146112505760405162461bcd60e51b815260206004820152600c60248201526b2737ba103932b1b2b4bb32b960a11b60448201526064015b60405180910390fd5b600a5461128b906001600160a01b037f0000000000000000000000000000000000000000000000000000000000000000811691163086614092565b601480548401905580156112a1576112a16140fd565b6013546201518083108015906112ba575062278d008311155b156112c25750815b4260006112cf8383615213565b905060008087905083601054111561136657600064e8d4a51000601154866010546112fa91906151dc565b6113049190615226565b61130e919061523d565b600e5460105460408051918252602082018990528101839052919250907f317bea91082b2a8d33761ba0bdd38a785d60acc1b964e3ead01706baaebf548b9060600160405180910390a26113628183615213565b9150505b8461137664e8d4a5100083615226565b611380919061523d565b600e8054600190810191829055868101600f5560108690556011839055919350907f44521c2bbb0ee364592908d6177ce446d5554c5a6c4ebd12adf86912c617a78b906113ce908790615213565b604080519182526020820187905281018590526060810184905260800160405180910390a25050505050505050565b6000806114086138a2565b835160009081526007602090815260409182902082516101208101845281546001600160801b038082168352600160801b90910416928101929092526001810154600281810b9484019490945263010000009004830b6060830152918201546080820152600382015460a082015260048201546001600160a01b031660c08201819052600583015460e08301526006909201546101008201529033146114c1576040516330cd747160e01b815260040160405180910390fd5b60208501516001600160a01b03166114da573060208601525b60405163fc6f786560e01b81526001600160a01b037f0000000000000000000000000000000000000000000000000000000000000000169063fc6f78659061152690889060040161525f565b60408051808303816000875af1158015611544573d6000803e3d6000fd5b505050506040513d601f19601f8201168201806040525081019061156891906151ef565b60208701519194509250306001600160a01b03909116036116265760e081810151600090815260066020908152604091829020825193840183528054845260018101546001600160a01b0390811692850192909252600281015482169284019290925260038201548082166060850152600160a01b900462ffffff166080840152600482015460a084015260059091015460c08301528516611608573394505b61161681604001518661426d565b61162481606001518661426d565b505b5061163060018055565b9250929050565b60006116416138a2565b336001600160a01b037f0000000000000000000000000000000000000000000000000000000000000000161461168a57604051630bf3405760e01b815260040160405180910390fd5b6040805160c081018252600080825260208201819052818301819052606082018190526080820181905260a0820152905163133f757160e31b8152600481018690526001600160a01b037f000000000000000000000000000000000000000000000000000000000000000016906399fbab889060240161018060405180830381865afa15801561171e573d6000803e3d6000fd5b505050506040513d601f19601f8201168201806040525081019061174291906152d2565b505050506001600160801b031660a08901819052600291820b60808a015291900b606088015262ffffff9190911660408701526001600160a01b0391821660208701529116845260000391506117ad905057604051636180f03f60e11b815260040160405180910390fd5b80516001600160a01b0390811660009081526008602090815260408083208286015190941683529281528282208385015162ffffff1683529052908120549081900361180c5760405163079f151f60e11b815260040160405180910390fd5b6000818152600660209081526040808320815160e0810183528154815260018201546001600160a01b03908116828601819052600284015482168386015260038401549182166060840152600160a01b90910462ffffff16608083015260048084015460a084015260059093015460c08301528351630a81a92360e31b81529351919594909363540d49189381810193918290030181865afa1580156118b6573d6000803e3d6000fd5b505050506040513d601f19601f820116820180604052508101906118da9190615183565b90506001600160a01b0381166119035760405163ef3d9b2160e01b815260040160405180910390fd5b600088815260076020526040908190206060860151600182018054608089015162ffffff90811663010000000265ffffffffffff19909216931692909217919091179055600480820180546001600160a01b03808f166001600160a01b0319909216919091179091556005830187905592516310a537f160e11b8152919284169163214a6fe2916119a29142910163ffffffff91909116815260200190565b600060405180830381600087803b1580156119bc57600080fd5b505af11580156119d0573d6000803e3d6000fd5b505050506119e0818a6000613c84565b60608501516080860151604051633816bae960e11b8152600292830b6004820152910b60248201526001600160a01b0383169063702d75d290604401602060405180830381865afa158015611a39573d6000803e3d6000fd5b505050506040513d601f19601f82011682018060405250810190611a5d91906153b3565b6002820155611ab58a8a6001600160a01b039190911660008181526002602081815260408084208054600384528286208187528452828620889055968552600483529084209590955592909152905280546001019055565b60a08501516060808701516080880151604080516001600160801b039095168552600292830b6020860152910b908301528a9186916001600160a01b038e16917fb19157bff94fdd40c58c7d4a5d52e8eb8c2d570ca17b322b49a2bbbeedc82fbf910160405180910390a450630a85bd0160e11b945050505050611b3860018055565b95945050505050565b6000611b4b6138a2565b600083815260076020526040902060048101546001600160a01b03163314611b86576040516330cd747160e01b815260040160405180910390fd5b80546001600160801b0316158015611ba057506003810154155b15611bbe57604051636180f03f60e11b815260040160405180910390fd5b611bc98185856138fb565b91505061106160018055565b611bdd613c2a565b8015611beb57611beb6140fd565b600b54604051634c96a38960e01b81526001600160a01b0384811660048301526000921690634c96a389906024016020604051808303816000875af1158015611c38573d6000803e3d6000fd5b505050506040513d601f19601f82011682018060405250810190611c5c9190615183565b905083600d6000828254611c709190615213565b925050819055506000836001600160a01b0316630dfe16816040518163ffffffff1660e01b8152600401602060405180830381865afa158015611cb7573d6000803e3d6000fd5b505050506040513d601f19601f82011682018060405250810190611cdb9190615183565b90506000846001600160a01b031663d21220a76040518163ffffffff1660e01b8152600401602060405180830381865afa158015611d1d573d6000803e3d6000fd5b505050506040513d601f19601f82011682018060405250810190611d419190615183565b90506000856001600160a01b031663ddca3f436040518163ffffffff1660e01b8152600401602060405180830381865afa158015611d83573d6000803e3d6000fd5b505050506040513d601f19601f82011682018060405250810190611da791906153cc565b6001600160a01b038085166000908152600860209081526040808320938716835292815282822062ffffff851683529052205490915015611e33576001600160a01b038381166000908152600860209081526040808320938616835292815282822062ffffff851683529052819020549051637d38f65f60e01b81526004810191909152602401611247565b604051636eb1769f60e11b81523060048201526001600160a01b037f00000000000000000000000000000000000000000000000000000000000000008116602483015284169063dd62ed3e90604401602060405180830381865afa158015611e9f573d6000803e3d6000fd5b505050506040513d601f19601f82011682018060405250810190611ec391906153b3565b600003611f0057611f006001600160a01b0384167f0000000000000000000000000000000000000000000000000000000000000000600019614403565b604051636eb1769f60e11b81523060048201526001600160a01b037f00000000000000000000000000000000000000000000000000000000000000008116602483015283169063dd62ed3e90604401602060405180830381865afa158015611f6c573d6000803e3d6000fd5b505050506040513d601f19601f82011682018060405250810190611f9091906153b3565b600003611fcd57611fcd6001600160a01b0383167f0000000000000000000000000000000000000000000000000000000000000000600019614403565b6005600081548092919060010191905055506040518060e00160405280888152602001876001600160a01b03168152602001846001600160a01b03168152602001836001600160a01b031681526020018262ffffff1681526020016000815260200160008152506006600060055481526020019081526020016000206000820151816000015560208201518160010160006101000a8154816001600160a01b0302191690836001600160a01b0316021790555060408201518160020160006101000a8154816001600160a01b0302191690836001600160a01b0316021790555060608201518160030160006101000a8154816001600160a01b0302191690836001600160a01b0316021790555060808201518160030160146101000a81548162ffffff021916908362ffffff16021790555060a0820151816004015560c0820151816005015590505060055460086000856001600160a01b03166001600160a01b031681526020019081526020016000206000846001600160a01b03166001600160a01b0316815260200190815260200160002060008362ffffff1662ffffff1681526020019081526020016000208190555060055460096000886001600160a01b03166001600160a01b0316815260200190815260200160002081905550836001600160a01b0316866001600160a01b03166005547f0621c8de33a230aec1aee0d4f7b6c81d97bd3ce0a2040ca33fbd668e521ecafe8a6040516121f491815260200190565b60405180910390a450505050505050565b60008060006122126138a2565b8351600090815260076020526040812060058101549091036122475760405163079f151f60e11b815260040160405180910390fd5b600581810154600090815260066020908152604091829020825160e0810184528154815260018201546001600160a01b03908116828501526002830154811694820185905260038301549081166060830152600160a01b900462ffffff166080820152600482015460a082015293015460c08401528701516122c99190614518565b6122db81606001518760400151614518565b7f00000000000000000000000000000000000000000000000000000000000000006001600160a01b031681604001516001600160a01b03161415801561235757507f00000000000000000000000000000000000000000000000000000000000000006001600160a01b031681606001516001600160a01b031614155b80156123635750600034115b1561236d57600080fd5b6040805163219f5d1760e01b81528751600482015260208801516024820152908701516044820152606087015160648201526080870151608482015260a087015160a48201527f00000000000000000000000000000000000000000000000000000000000000006001600160a01b03169063219f5d1790349060c40160606040518083038185885af1158015612407573d6000803e3d6000fd5b50505050506040513d601f19601f8201168201806040525081019061242c91906153e7565b602089015192975090955093506000906124479086906151dc565b9050600084886040015161245b91906151dc565b9050811561247157612471836040015183614593565b801561248557612485836060015182614593565b61249584896000015160006138fb565b506124a68489600001516000613c84565b505050506124b360018055565b9193909250565b6001600160a01b038216600090815260026020526040812054821061252f5760405162461bcd60e51b815260206004820152602560248201527f456e756d657261626c653a206f776e657220696e646578206f7574206f6620626044820152646f756e647360d81b6064820152608401611247565b506001600160a01b03919091166000908152600360209081526040808320938352929052205490565b6125606138a2565b60008181526007602090815260409182902082516101208101845281546001600160801b038082168352600160801b90910416928101929092526001810154600281810b9484019490945263010000009004830b6060830152918201546080820152600382015460a082015260048201546001600160a01b031660c08201819052600583015460e0830152600690920154610100820152903314612617576040516330cd747160e01b815260040160405180910390fd5b60008160a001511180612633575080516001600160801b031615155b15612651576040516332e7879360e01b815260040160405180910390fd5b600082815260076020526040812081815560018101805465ffffffffffff1916905560028101829055600381018290556004810180546001600160a01b031916905560058101829055600601556126a83383613bfe565b600c546001600160a01b03161561272b57600c5460e082015160405163622cd4e160e11b81523360048201526024810185905260448101919091526001600160a01b039091169063c459a9c290606401600060405180830381600087803b15801561271257600080fd5b505af1158015612726573d6000803e3d6000fd5b505050505b604051630852cd8d60e31b8152600481018390527f00000000000000000000000000000000000000000000000000000000000000006001600160a01b0316906342966c6890602401600060405180830381600087803b15801561278d57600080fd5b505af11580156127a1573d6000803e3d6000fd5b50505060e08201516040516000815284925033907ff341246adaac6f497bc2a656f546ab9e182111d630394f0c57c710a59a2cb5679060200160405180910390a4506127ec60018055565b50565b6012546001600160a01b0316331480159061281557506000546001600160a01b03163314155b1561283357604051634c7bb68760e11b815260040160405180910390fd5b4260005b828110156129cb576000600660008686858181106128575761285761541e565b602090810292909201358352508181019290925260409081016000908120825160e0810184528154815260018201546001600160a01b03908116828701819052600284015482168387015260038401549182166060840152600160a01b90910462ffffff16608083015260048084015460a084015260059093015460c08301528451630a81a92360e31b815294519196509294929363540d491893818401939092918290030181865afa158015612912573d6000803e3d6000fd5b505050506040513d601f19601f820116820180604052508101906129369190615183565b82519091501580159061295157506001600160a01b03811615155b156129b6576040516310a537f160e11b815263ffffffff851660048201526001600160a01b0382169063214a6fe290602401600060405180830381600087803b15801561299d57600080fd5b505af11580156129b1573d6000803e3d6000fd5b505050505b505080806129c390615434565b915050612837565b50505050565b6129d96138a2565b6040516370a0823160e01b81523060048201526000907f00000000000000000000000000000000000000000000000000000000000000006001600160a01b0316906370a0823190602401602060405180830381865afa158015612a40573d6000803e3d6000fd5b505050506040513d601f19601f82011682018060405250810190612a6491906153b3565b905082811015612a8757604051632ca2f52b60e11b815260040160405180910390fd5b8015612b1157604051632e1a7d4d60e01b8152600481018290527f00000000000000000000000000000000000000000000000000000000000000006001600160a01b031690632e1a7d4d90602401600060405180830381600087803b158015612aef57600080fd5b505af1158015612b03573d6000803e3d6000fd5b50505050612b11828261466a565b50612b1b60018055565b5050565b600081815260076020908152604080832081516101208101835281546001600160801b038082168352600160801b90910416938101939093526001810154600281810b9385019390935263010000009004820b6060840152908101546080830152600381015460a083015260048101546001600160a01b031660c0830152600581015460e0830181905260069091015461010083015215612db05760e0818101516000908152600660209081526040808320815194850182528054855260018101546001600160a01b03908116868501819052600283015482168785015260038301549182166060880152600160a01b90910462ffffff16608087015260048083015460a088015260059092015460c08701528251630a81a92360e31b81529251909363540d49189380840193919291908290030181865afa158015612c69573d6000803e3d6000fd5b505050506040513d601f19601f82011682018060405250810190612c8d9190615183565b90506001600160a01b03811615612d9c5760408381015160608501519151633816bae960e11b8152600291820b600482015291900b60248201526000906001600160a01b0383169063702d75d290604401602060405180830381865afa158015612cfb573d6000803e3d6000fd5b505050506040513d601f19601f82011682018060405250810190612d1f91906153b3565b9050836080015181118015612d5b575083602001516001600160801b0316846080015182612d4d91906151dc565b612d599060001961523d565b115b15612d9a57600160801b84602001516001600160801b0316856080015183612d8391906151dc565b612d8d9190615226565b612d97919061523d565b94505b505b60a0830151612dab9085615213565b935050505b50919050565b612dbe613c2a565b82801580612dcd575060055481115b15612deb576040516387e8068360e01b815260040160405180910390fd5b600084815260066020908152604080832060018101548251630a81a92360e31b815292514295929492936001600160a01b039092169263540d491892600480820193918290030181865afa158015612e47573d6000803e3d6000fd5b505050506040513d601f19601f82011682018060405250810190612e6b9190615183565b90506001600160a01b03811615612edc576040516310a537f160e11b815263ffffffff841660048201526001600160a01b0382169063214a6fe290602401600060405180830381600087803b158015612ec357600080fd5b505af1158015612ed7573d6000803e3d6000fd5b505050505b8415612eea57612eea6140fd565b8154600d548791612efa916151dc565b612f049190615213565b600d5585825560405186815287907fc0cfd54d2de2b55f1e6e108d3ec53ff0a1abe6055401d32c61e9433b747ef9f89060200160405180910390a250505050505050565b600c546001600160a01b03163314612fa25760405162461bcd60e51b815260206004820152601760248201527f4e6f74206661726d20626f6f737420636f6e74726163740000000000000000006044820152606401611247565b60008281526007602052604081206005810154909103612fd55760405163079f151f60e11b815260040160405180910390fd5b612fe1818460006138fb565b50612fed818484613c84565b505050565b60006001600160a01b0382166130605760405162461bcd60e51b815260206004820152602d60248201527f456e756d657261626c653a2061646472657373207a65726f206973206e6f742060448201526c30903b30b634b21037bbb732b960991b6064820152608401611247565b506001600160a01b031660009081526002602052604090205490565b613084613c2a565b61308e60006146ca565b565b613098613c2a565b6001600160a01b0381166130bf5760405163d92e233d60e01b815260040160405180910390fd5b604051636eb1769f60e11b81526001600160a01b038281166004830152306024830152600019917f00000000000000000000000000000000000000000000000000000000000000009091169063dd62ed3e90604401602060405180830381865afa158015613131573d6000803e3d6000fd5b505050506040513d601f19601f8201168201806040525081019061315591906153b3565b1461315f57600080fd5b600a80546001600160a01b0319166001600160a01b0383169081179091556040519081527f4a2963bfc20b87a0c055468a66e6638d57725e93fb4d65733fb2f25587ae8c4f906020016110c0565b6131b5613c2a565b620151808110806131c8575062278d0081115b156131e657604051634f08daf360e11b815260040160405180910390fd5b60138190556040518181527fb5521c8a03b484502769158d9dd83186bd0748f3ece2fbf358233994c2a20976906020016110c0565b6000806000600d54111561326c57600d546001600160a01b0384166000908152600960209081526040808320548352600690915290205460115461325f9190615226565b613269919061523d565b91505b6010549050915091565b6000806000600d54111561326c57600d5460008481526006602052604090205460115461325f9190615226565b60608167ffffffffffffffff8111156132be576132be614ca6565b6040519080825280602002602001820160405280156132f157816020015b60608152602001906001900390816132dc5790505b50905060005b828110156133f457600080308686858181106133155761331561541e565b9050602002810190613327919061544d565b604051613335929190615494565b600060405180830381855af49150503d8060008114613370576040519150601f19603f3d011682016040523d82523d6000602084013e613375565b606091505b5091509150816133c15760448151101561338e57600080fd5b600481019050808060200190518101906133a891906154a4565b60405162461bcd60e51b81526004016112479190615546565b808484815181106133d4576133d461541e565b6020026020010181905250505080806133ec90615434565b9150506132f7565b5092915050565b613403613c2a565b6001600160a01b03811661342a5760405163d92e233d60e01b815260040160405180910390fd5b601280546001600160a01b0319166001600160a01b0383169081179091556040519081527fc47d127c07bdd56c5ccba00463ce3bd3c1bca71b4670eea6e5d0c02e4aa156e2906020016110c0565b6134806138a2565b600081815260076020526040812060058101549091036134b35760405163079f151f60e11b815260040160405180910390fd5b6134bf818360006138fb565b506134cc81836000613c84565b506127ec60018055565b6134de613c2a565b6001600160a01b0381166135055760405163d92e233d60e01b815260040160405180910390fd5b600b80546001600160a01b0319166001600160a01b0383169081179091556040519081527f29e3e57b4a1e4513d009781598c7e4b8b2a68e4b71fe977e362d1b591016fade906020016110c0565b61355b613c2a565b600c80546001600160a01b0319166001600160a01b0383169081179091556040517ff32244aa081c72b930bb47bb702115e112d779ed353d6b1a70b28babc9822b7a90600090a250565b6135ad6138a2565b6040516370a0823160e01b81523060048201526000906001600160a01b038516906370a0823190602401602060405180830381865afa1580156135f4573d6000803e3d6000fd5b505050506040513d601f19601f8201168201806040525081019061361891906153b3565b90507f00000000000000000000000000000000000000000000000000000000000000006001600160a01b0316846001600160a01b03160361366c57601454811061366657601454900361366c565b60145560005b8281101561368d57604051632ca2f52b60e11b815260040160405180910390fd5b80156136a7576136a76001600160a01b038516838361471a565b50612fed60018055565b6136b9613c2a565b6001600160a01b03811661371e5760405162461bcd60e51b815260206004820152602660248201527f4f776e61626c653a206e6577206f776e657220697320746865207a65726f206160448201526564647265737360d01b6064820152608401611247565b6127ec816146ca565b6000806137326138a2565b825160009081526007602090815260409182902082516101208101845281546001600160801b038082168352600160801b90910416928101929092526001810154600281810b9484019490945263010000009004830b6060830152918201546080820152600382015460a082015260048201546001600160a01b031660c08201819052600583015460e08301526006909201546101008201529033146137eb576040516330cd747160e01b815260040160405180910390fd5b60208401516001600160a01b0316613804573060208501525b60405163fc6f786560e01b81526001600160a01b037f0000000000000000000000000000000000000000000000000000000000000000169063fc6f78659061385090879060040161525f565b60408051808303816000875af115801561386e573d6000803e3d6000fd5b505050506040513d601f19601f8201168201806040525081019061389291906151ef565b90935091506111fd905060018055565b6002600154036138f45760405162461bcd60e51b815260206004820152601f60248201527f5265656e7472616e637947756172643a207265656e7472616e742063616c6c006044820152606401611247565b6002600155565b6005838101546000908152600660209081526040808320815160e0810183528154815260018201546001600160a01b03908116828601819052600284015482168386015260038401549182166060840152600160a01b90910462ffffff16608083015260048084015460a0840152929096015460c08201528251630a81a92360e31b81529251949590948694919363540d4918938181019392918290030181865afa1580156139ae573d6000803e3d6000fd5b505050506040513d601f19601f820116820180604052508101906139d29190615183565b90506001600160a01b038116158015906139f65750600c54600160a01b900460ff16155b15613b65576040516310a537f160e11b815263ffffffff421660048201526001600160a01b0382169063214a6fe290602401600060405180830381600087803b158015613a4257600080fd5b505af1158015613a56573d6000803e3d6000fd5b505050506001860154604051633816bae960e11b8152600282810b6004830152630100000090920490910b60248201526000906001600160a01b0383169063702d75d290604401602060405180830381865afa158015613aba573d6000803e3d6000fd5b505050506040513d601f19601f82011682018060405250810190613ade91906153b3565b9050866002015481118015613b1f575086546002880154600160801b9091046001600160801b031690613b1190836151dc565b613b1d9060001961523d565b115b15613b5f5786546002880154600160801b918290046001600160801b031690613b4890846151dc565b613b529190615226565b613b5c919061523d565b93505b60028701555b6003860154613b749084615213565b92508215613bf5576001600160a01b03841615613bed5760006003870155613b9c848461474a565b6005860154604080516001600160a01b03871681526020810186905287929133917fd25759d838eb0a46600f8f327cce144e61d7caefbef27010fe31e2aab091704f910160405180910390a4613bf5565b600386018390555b50509392505050565b613c08828261483b565b506001600160a01b031660009081526002602052604090208054600019019055565b6000546001600160a01b0316331461308e5760405162461bcd60e51b815260206004820181905260248201527f4f776e61626c653a2063616c6c6572206973206e6f7420746865206f776e65726044820152606401611247565b60008060007f00000000000000000000000000000000000000000000000000000000000000006001600160a01b03166399fbab88866040518263ffffffff1660e01b8152600401613cd791815260200190565b61018060405180830381865afa158015613cf5573d6000803e3d6000fd5b505050506040513d601f19601f82011682018060405250810190613d1991906152d2565b5050505060058e015460009081526006602052604090208e54939b50919950975095506001600160801b038088169116149350613da59250505057865460048201546001600160801b0380851692613d73929116906151dc565b613d7d9190615213565b600482015586546fffffffffffffffffffffffffffffffff19166001600160801b0383161787555b600c5464e8d4a51000906001600160a01b031615801590613dc4575085155b15613e3f57600c54604051632273df8360e11b8152600481018990526001600160a01b03909116906344e7bf06906024016020604051808303816000875af1158015613e14573d6000803e3d6000fd5b505050506040513d601f19601f82011682018060405250810190613e3891906153b3565b9050613e48565b8515613e485750845b64e8d4a51000811015613e61575064e8d4a51000613e78565b6501d1a94a2000811115613e7857506501d1a94a20005b600688018190556000613eac64e8d4a51000613e9d846001600160801b038816615226565b613ea7919061523d565b614947565b8954909150600090613ece90600160801b90046001600160801b031683615559565b905080600f0b60001461408657895460058501546001600160801b0380851692613f0392600160801b909104909116906151dc565b613f0d9190615213565b600585015589546001600160801b03808416600160801b029116178a55600184015460408051630a81a92360e31b815290516000926001600160a01b03169163540d49189160048083019260209291908290030181865afa158015613f76573d6000803e3d6000fd5b505050506040513d601f19601f82011682018060405250810190613f9a9190615183565b90506001600160a01b038116613fc35760405163ef3d9b2160e01b815260040160405180910390fd5b604051638910faf160e01b8152600289810b600483015288900b6024820152600f83900b60448201526001600160a01b03821690638910faf190606401600060405180830381600087803b15801561401a57600080fd5b505af115801561402e573d6000803e3d6000fd5b5050505060058b015460408051600f85900b815260028b810b60208301528a900b8183015290518c929133917fee8f6362d59839b4b3c990d7e085a63a0fe2c58f4eff4a9a2b6de93a4c645ae39181900360600190a4505b50505050505050505050565b6040516001600160a01b03808516602483015283166044820152606481018290526129cb9085906323b872dd60e01b906084015b60408051601f198184030181529190526020810180516001600160e01b03166001600160e01b0319909316929092179091526149b0565b4260015b6005548111612b1b576000818152600660209081526040808320815160e0810183528154815260018201546001600160a01b03908116828601819052600284015482168386015260038401549182166060840152600160a01b90910462ffffff16608083015260048084015460a084015260059093015460c08301528351630a81a92360e31b81529351919594909363540d49189381810193918290030181865afa1580156141b4573d6000803e3d6000fd5b505050506040513d601f19601f820116820180604052508101906141d89190615183565b8251909150158015906141f357506001600160a01b03811615155b15614258576040516310a537f160e11b815263ffffffff851660048201526001600160a01b0382169063214a6fe290602401600060405180830381600087803b15801561423f57600080fd5b505af1158015614253573d6000803e3d6000fd5b505050505b5050808061426590615434565b915050614101565b6040516370a0823160e01b81523060048201526000906001600160a01b038416906370a0823190602401602060405180830381865afa1580156142b4573d6000803e3d6000fd5b505050506040513d601f19601f820116820180604052508101906142d891906153b3565b90507f00000000000000000000000000000000000000000000000000000000000000006001600160a01b0316836001600160a01b03160361432c57601454811061432657601454900361432c565b60145560005b8015612fed577f00000000000000000000000000000000000000000000000000000000000000006001600160a01b0316836001600160a01b0316036143ef57604051632e1a7d4d60e01b8152600481018290527f00000000000000000000000000000000000000000000000000000000000000006001600160a01b031690632e1a7d4d90602401600060405180830381600087803b1580156143cd57600080fd5b505af11580156143e1573d6000803e3d6000fd5b50505050612fed828261466a565b612fed6001600160a01b038416838361471a565b80158061447d5750604051636eb1769f60e11b81523060048201526001600160a01b03838116602483015284169063dd62ed3e90604401602060405180830381865afa158015614457573d6000803e3d6000fd5b505050506040513d601f19601f8201168201806040525081019061447b91906153b3565b155b6144e85760405162461bcd60e51b815260206004820152603660248201527f5361666545524332303a20617070726f76652066726f6d206e6f6e2d7a65726f60448201527520746f206e6f6e2d7a65726f20616c6c6f77616e636560501b6064820152608401611247565b6040516001600160a01b038316602482015260448101829052612fed90849063095ea7b360e01b906064016140c6565b7f00000000000000000000000000000000000000000000000000000000000000006001600160a01b0316826001600160a01b03161480156145595750600034115b1561457e57803414612b1b57604051634b508fef60e01b815260040160405180910390fd5b612b1b6001600160a01b038316333084614092565b7f00000000000000000000000000000000000000000000000000000000000000006001600160a01b0316826001600160a01b03161480156145d45750600034115b15614656577f00000000000000000000000000000000000000000000000000000000000000006001600160a01b03166312210e8a6040518163ffffffff1660e01b8152600401600060405180830381600087803b15801561463457600080fd5b505af1158015614648573d6000803e3d6000fd5b50505050612b1b334761466a565b612b1b6001600160a01b038316338361471a565b6000826001600160a01b03168260405160006040518083038185875af1925050503d80600081146146b7576040519150601f19603f3d011682016040523d82523d6000602084013e6146bc565b606091505b5050905080612fed57600080fd5b600080546001600160a01b038381166001600160a01b0319831681178455604051919092169283917f8be0079c531659141344cd1fd0a4f28419497f9722a3daafe3b4186f6b6457e09190a35050565b6040516001600160a01b038316602482015260448101829052612fed90849063a9059cbb60e01b906064016140c6565b8015612b1b576040516370a0823160e01b81523060048201526000907f00000000000000000000000000000000000000000000000000000000000000006001600160a01b0316906370a0823190602401602060405180830381865afa1580156147b7573d6000803e3d6000fd5b505050506040513d601f19601f820116820180604052508101906147db91906153b3565b9050818110156147e9578091505b816014541061480057601480548390039055614807565b8181036014555b612fed6001600160a01b037f000000000000000000000000000000000000000000000000000000000000000016848461471a565b6001600160a01b038216600090815260026020526040812054614860906001906151dc565b6000838152600460209081526040808320546001600160a01b038816845260038352818420818552909252909120549192509083146148d35760405162461bcd60e51b815260206004820152600f60248201526e125b9d985b1a59081d1bdad95b9259608a1b6044820152606401611247565b818114614914576001600160a01b03841660009081526003602090815260408083208584528252808320548484528184208190558352600490915290208190555b5060009182526004602090815260408084208490556001600160a01b039094168352600381528383209183525290812055565b6000600160801b82106149ac5760405162461bcd60e51b815260206004820152602760248201527f53616665436173743a2076616c756520646f65736e27742066697420696e20316044820152663238206269747360c81b6064820152608401611247565b5090565b6000614a05826040518060400160405280602081526020017f5361666545524332303a206c6f772d6c6576656c2063616c6c206661696c6564815250856001600160a01b0316614a829092919063ffffffff16565b805190915015612fed5780806020019051810190614a23919061558f565b612fed5760405162461bcd60e51b815260206004820152602a60248201527f5361666545524332303a204552433230206f7065726174696f6e20646964206e6044820152691bdd081cdd58d8d9595960b21b6064820152608401611247565b6060614a918484600085614a99565b949350505050565b606082471015614afa5760405162461bcd60e51b815260206004820152602660248201527f416464726573733a20696e73756666696369656e742062616c616e636520666f6044820152651c8818d85b1b60d21b6064820152608401611247565b600080866001600160a01b03168587604051614b1691906155ac565b60006040518083038185875af1925050503d8060008114614b53576040519150601f19603f3d011682016040523d82523d6000602084013e614b58565b606091505b5091509150614b6987838387614b74565b979650505050505050565b60608315614be3578251600003614bdc576001600160a01b0385163b614bdc5760405162461bcd60e51b815260206004820152601d60248201527f416464726573733a2063616c6c20746f206e6f6e2d636f6e74726163740000006044820152606401611247565b5081614a91565b614a918383815115614bf85781518083602001fd5b8060405162461bcd60e51b81526004016112479190615546565b6001600160a01b03811681146127ec57600080fd5b60008060408385031215614c3a57600080fd5b823591506020830135614c4c81614c12565b809150509250929050565b80151581146127ec57600080fd5b600060208284031215614c7757600080fd5b8135614c8281614c57565b9392505050565b600060208284031215614c9b57600080fd5b8135614c8281614c12565b634e487b7160e01b600052604160045260246000fd5b6001600160801b03811681146127ec57600080fd5b600060a08284031215614ce357600080fd5b60405160a0810181811067ffffffffffffffff82111715614d0657614d06614ca6565b604052823581526020830135614d1b81614cbc565b806020830152506040830135604082015260608301356060820152608083013560808201528091505092915050565b600080600060608486031215614d5f57600080fd5b83359250602084013591506040840135614d7881614c57565b809150509250925092565b600060808284031215614d9557600080fd5b6040516080810181811067ffffffffffffffff82111715614db857614db8614ca6565b604052823581529050806020830135614dd081614c12565b60208201526040830135614de381614cbc565b60408201526060830135614df681614cbc565b6060919091015292915050565b60008060a08385031215614e1657600080fd5b614e208484614d83565b91506080830135614c4c81614c12565b600080600080600060808688031215614e4857600080fd5b8535614e5381614c12565b94506020860135614e6381614c12565b935060408601359250606086013567ffffffffffffffff80821115614e8757600080fd5b818801915088601f830112614e9b57600080fd5b813581811115614eaa57600080fd5b896020828501011115614ebc57600080fd5b9699959850939650602001949392505050565b600060208284031215614ee157600080fd5b5035919050565b600080600060608486031215614efd57600080fd5b833592506020840135614f0f81614c12565b91506040840135614d7881614c57565b600060c08284031215614f3157600080fd5b60405160c0810181811067ffffffffffffffff82111715614f5457614f54614ca6565b8060405250823581526020830135602082015260408301356040820152606083013560608201526080830135608082015260a083013560a08201528091505092915050565b60008060408385031215614fac57600080fd5b8235614fb781614c12565b946020939093013593505050565b60008083601f840112614fd757600080fd5b50813567ffffffffffffffff811115614fef57600080fd5b6020830191508360208260051b850101111561163057600080fd5b6000806020838503121561501d57600080fd5b823567ffffffffffffffff81111561503457600080fd5b61504085828601614fc5565b90969095509350505050565b6000806040838503121561505f57600080fd5b50508035926020909101359150565b60005b83811015615089578181015183820152602001615071565b50506000910152565b600081518084526150aa81602086016020860161506e565b601f01601f19169290920160200192915050565b6000602080830181845280855180835260408601915060408160051b870101925083870160005b8281101561511357603f19888603018452615101858351615092565b945092850192908501906001016150e5565b5092979650505050505050565b60008060006060848603121561513557600080fd5b833561514081614c12565b9250602084013591506040840135614d7881614c12565b60006080828403121561516957600080fd5b614c828383614d83565b805161517e81614c12565b919050565b60006020828403121561519557600080fd5b8151614c8281614c12565b634e487b7160e01b600052601160045260246000fd5b600081600f0b60016001607f1b031981036151d3576151d36151a0565b60000392915050565b81810381811115611061576110616151a0565b6000806040838503121561520257600080fd5b505080516020909101519092909150565b80820180821115611061576110616151a0565b8082028115828204841417611061576110616151a0565b60008261525a57634e487b7160e01b600052601260045260246000fd5b500490565b815181526020808301516001600160a01b0316908201526040808301516001600160801b0390811691830191909152606092830151169181019190915260800190565b805162ffffff8116811461517e57600080fd5b8051600281900b811461517e57600080fd5b805161517e81614cbc565b6000806000806000806000806000806000806101808d8f0312156152f557600080fd5b8c516bffffffffffffffffffffffff8116811461531157600080fd5b9b5061531f60208e01615173565b9a5061532d60408e01615173565b995061533b60608e01615173565b985061534960808e016152a2565b975061535760a08e016152b5565b965061536560c08e016152b5565b955061537360e08e016152c7565b94506101008d015193506101208d015192506153926101408e016152c7565b91506153a16101608e016152c7565b90509295989b509295989b509295989b565b6000602082840312156153c557600080fd5b5051919050565b6000602082840312156153de57600080fd5b614c82826152a2565b6000806000606084860312156153fc57600080fd5b835161540781614cbc565b602085015160409095015190969495509392505050565b634e487b7160e01b600052603260045260246000fd5b600060018201615446576154466151a0565b5060010190565b6000808335601e1984360301811261546457600080fd5b83018035915067ffffffffffffffff82111561547f57600080fd5b60200191503681900382131561163057600080fd5b8183823760009101908152919050565b6000602082840312156154b657600080fd5b815167ffffffffffffffff808211156154ce57600080fd5b818401915084601f8301126154e257600080fd5b8151818111156154f4576154f4614ca6565b604051601f8201601f19908116603f0116810190838211818310171561551c5761551c614ca6565b8160405282815287602084870101111561553557600080fd5b614b6983602083016020880161506e565b602081526000614c826020830184615092565b600f82810b9082900b036f7fffffffffffffffffffffffffffffff19811260016001607f1b0382131715611061576110616151a0565b6000602082840312156155a157600080fd5b8151614c8281614c57565b600082516155be81846020870161506e565b919091019291505056fea2646970667358221220875474d0fd2b28dd0f89a5cc33c41eac7357cf90d799a9bfb0033b60f422cba864736f6c63430008150033",
    "linkReferences": {}
  },
  "methodIdentifiers": {
    "BOOST_PRECISION()": "cc6db2da",
    "FARM_BOOSTER()": "fbc911d0",
    "LMPoolDeployer()": "b4ce1280",
    "MAX_BOOST_PRECISION()": "69b02128",
    "MAX_DURATION()": "b1724b46",
    "MIN_DURATION()": "b6a6d177",
    "PERIOD_DURATION()": "6558954f",
    "PRECISION()": "aaf5eb68",
    "QDX()": "7f8cb23d",
    "WETH()": "ad5c4648",
    "add(uint256,address,bool)": "1eaaa045",
    "balanceOf(address)": "70a08231",
    "burn(uint256)": "42966c68",
    "collect((uint256,address,uint128,uint128))": "fc6f7865",
    "collectTo((uint256,address,uint128,uint128),address)": "0d55f913",
    "decreaseLiquidity((uint256,uint128,uint256,uint256,uint256))": "0c49ccbe",
    "emergency()": "caa6fea4",
    "getLatestPeriodInfo(address)": "a15ea89f",
    "getLatestPeriodInfoByPid(uint256)": "a80a71bd",
    "harvest(uint256,address)": "18fccc76",
    "increaseLiquidity((uint256,uint256,uint256,uint256,uint256,uint256))": "219f5d17",
    "latestPeriodEndTime()": "6d4cec78",
    "latestPeriodNumber()": "30ec24cc",
    "latestPeriodQDXPerSecond()": "93aa8338",
    "latestPeriodStartTime()": "fcf0b9d8",
    "multicall(bytes[])": "ac9650d8",
    "nonfungiblePositionManager()": "b44a2722",
    "onERC721Received(address,address,uint256,bytes)": "150b7a02",
    "operatorAddress()": "127effb2",
    "owner()": "8da5cb5b",
    "pendingQDX(uint256)": "4c8feeef",
    "poolInfo(uint256)": "1526fe27",
    "poolLength()": "081e3eda",
    "qdxAmountBelongToMC()": "dafa8b5b",
    "receiver()": "f7260d3e",
    "renounceOwnership()": "715018a6",
    "set(uint256,uint256,bool)": "64482f79",
    "setEmergency(bool)": "0501d556",
    "setLMPoolDeployer(address)": "cf242849",
    "setOperator(address)": "b3ab15fb",
    "setPeriodDuration(uint256)": "7c2d6e01",
    "setReceiver(address)": "718da7ee",
    "sweepToken(address,uint256,address)": "df2ab5bb",
    "tokenOfOwnerByIndex(address,uint256)": "2f745c59",
    "totalAllocPoint()": "17caf6f1",
    "transferOwnership(address)": "f2fde38b",
    "unwrapWETH9(uint256,address)": "49404b7c",
    "updateBoostMultiplier(uint256,uint256)": "69746a1d",
    "updateFarmBoostContract(address)": "cfb8ccfb",
    "updateLiquidity(uint256)": "ced09112",
    "updatePools(uint256[])": "44780994",
    "upkeep(uint256,uint256,bool)": "0ce5d4cc",
    "userPositionInfos(uint256)": "3b1acf74",
    "v3PoolAddressPid(address)": "0743384d",
    "withdraw(uint256,address)": "00f714ce"
  },
  "id": 31
}