{
  "abi": [
    {
      "inputs": [
        {
          "internalType": "string",
          "name": "baseTokenURI",
          "type": "string"
        }
      ],
      "name": "initialize",
      "outputs": [],
      "stateMutability": "nonpayable",
      "type": "function"
    },
    {
      "inputs": [
        {
          "internalType": "string",
          "name": "baseTokenURI",
          "type": "string"
        }
      ],
      "name": "initializeV2",
      "outputs": [],
      "stateMutability": "nonpayable",
      "type": "function"
    },
    {
      "inputs": [
        {
          "internalType": "contract INonfungiblePositionManager",
          "name": "positionManager",
          "type": "address"
        },
        {
          "internalType": "uint256",
          "name": "tokenId",
          "type": "uint256"
        }
      ],
      "name": "tokenURI",
      "outputs": [
        {
          "internalType": "string",
          "name": "",
          "type": "string"
        }
      ],
      "stateMutability": "view",
      "type": "function"
    }
  ],
  "bytecode": {
    "object": "0x608060405234801561001057600080fd5b506105ab806100206000396000f3fe608060405234801561001057600080fd5b50600436106100415760003560e01c8063d608ea6414610046578063e9dc63751461005b578063f62d188814610084575b600080fd5b6100596100543660046103c6565b610097565b005b61006e610069366004610390565b6100e3565b60405161007b91906104b4565b60405180910390f35b6100596100923660046103c6565b61014b565b60025460ff16156100c35760405162461bcd60e51b81526004016100ba906104e7565b60405180910390fd5b6002805460ff191660019081179091556100de9083836102ef565b505050565b606060006001805460018160011615610100020316600290049050116101185760405180602001604052806000815250610144565b6001610123836101fb565b604051602001610134929190610433565b6040516020818303038152906040525b9392505050565b600054610100900460ff168061016457506101646102d8565b80610172575060005460ff16155b6101ad5760405162461bcd60e51b815260040180806020018281038252602e815260200180610548602e913960400191505060405180910390fd5b600054610100900460ff161580156101d8576000805460ff1961ff0019909116610100171660011790555b6101e4600184846102ef565b5080156100de576000805461ff0019169055505050565b60608161022057506040805180820190915260018152600360fc1b60208201526102d3565b8160005b811561023857600101600a82049150610224565b60008167ffffffffffffffff8111801561025157600080fd5b506040519080825280601f01601f19166020018201604052801561027c576020820181803683370190505b50859350905060001982015b83156102cd57600a840660300160f81b828280600190039350815181106102ab57fe5b60200101906001600160f81b031916908160001a905350600a84049350610288565b50925050505b919050565b60006102e3306102e9565b15905090565b3b151590565b828054600181600116156101000203166002900490600052602060002090601f016020900481019282610325576000855561036b565b82601f1061033e5782800160ff1982351617855561036b565b8280016001018555821561036b579182015b8281111561036b578235825591602001919060010190610350565b5061037792915061037b565b5090565b5b80821115610377576000815560010161037c565b600080604083850312156103a2578182fd5b82356001600160a01b03811681146103b8578283fd5b946020939093013593505050565b600080602083850312156103d8578182fd5b823567ffffffffffffffff808211156103ef578384fd5b818501915085601f830112610402578384fd5b813581811115610410578485fd5b866020828501011115610421578485fd5b60209290920196919550909350505050565b6000808454600180821660008114610452576001811461046957610498565b60ff198316865260028304607f1686019350610498565b600283048886526020808720875b838110156104905781548a820152908501908201610477565b505050860193505b50505083516104ab818360208801610517565b01949350505050565b60006020825282518060208401526104d3816040850160208701610517565b601f01601f19169190910160400192915050565b60208082526016908201527520b63932b0b23c9034b734ba34b0b634bd32b2102b1960511b604082015260600190565b60005b8381101561053257818101518382015260200161051a565b83811115610541576000848401525b5050505056fe496e697469616c697a61626c653a20636f6e747261637420697320616c726561647920696e697469616c697a6564a264697066735822122009d63a5de3a38f5eb2c1987a15baced13b0dc98edaa17776913f3079b0ffa7ef64736f6c63430007060033",
    "linkReferences": {}
  },
  "methodIdentifiers": {
    "initialize(string)": "f62d1888",
    "initializeV2(string)": "d608ea64",
    "tokenURI(address,uint256)": "e9dc6375"
  },
  "id": 136
}