{
  "abi": [
    {
      "inputs": [
        {
          "internalType": "address",
          "name": "_pool",
          "type": "address"
        },
        {
          "internalType": "address",
          "name": "_masterChef",
          "type": "address"
        },
        {
          "internalType": "uint32",
          "name": "rewardStartTimestamp",
          "type": "uint32"
        }
      ],
      "stateMutability": "nonpayable",
      "type": "constructor"
    },
    {
      "inputs": [],
      "name": "REWARD_PRECISION",
      "outputs": [
        {
          "internalType": "uint256",
          "name": "",
          "type": "uint256"
        }
      ],
      "stateMutability": "view",
      "type": "function"
    },
    {
      "inputs": [
        {
          "internalType": "uint32",
          "name": "currTimestamp",
          "type": "uint32"
        }
      ],
      "name": "accumulateReward",
      "outputs": [],
      "stateMutability": "nonpayable",
      "type": "function"
    },
    {
      "inputs": [
        {
          "internalType": "int24",
          "name": "tick",
          "type": "int24"
        },
        {
          "internalType": "bool",
          "name": "zeroForOne",
          "type": "bool"
        }
      ],
      "name": "crossLmTick",
      "outputs": [],
      "stateMutability": "nonpayable",
      "type": "function"
    },
    {
      "inputs": [
        {
          "internalType": "int24",
          "name": "tickLower",
          "type": "int24"
        },
        {
          "internalType": "int24",
          "name": "tickUpper",
          "type": "int24"
        }
      ],
      "name": "getRewardGrowthInside",
      "outputs": [
        {
          "internalType": "uint256",
          "name": "rewardGrowthInsideX128",
          "type": "uint256"
        }
      ],
      "stateMutability": "view",
      "type": "function"
    },
    {
      "inputs": [],
      "name": "lastRewardTimestamp",
      "outputs": [
        {
          "internalType": "uint32",
          "name": "",
          "type": "uint32"
        }
      ],
      "stateMutability": "view",
      "type": "function"
    },
    {
      "inputs": [],
      "name": "lmLiquidity",
      "outputs": [
        {
          "internalType": "uint128",
          "name": "",
          "type": "uint128"
        }
      ],
      "stateMutability": "view",
      "type": "function"
    },
    {
      "inputs": [
        {
          "internalType": "int24",
          "name": "",
          "type": "int24"
        }
      ],
      "name": "lmTicks",
      "outputs": [
        {
          "internalType": "uint128",
          "name": "liquidityGross",
          "type": "uint128"
        },
        {
          "internalType": "int128",
          "name": "liquidityNet",
          "type": "int128"
        },
        {
          "internalType": "uint256",
          "name": "rewardGrowthOutsideX128",
          "type": "uint256"
        }
      ],
      "stateMutability": "view",
      "type": "function"
    },
    {
      "inputs": [],
      "name": "masterChef",
      "outputs": [
        {
          "internalType": "contract IMasterChefV3",
          "name": "",
          "type": "address"
        }
      ],
      "stateMutability": "view",
      "type": "function"
    },
    {
      "inputs": [],
      "name": "pool",
      "outputs": [
        {
          "internalType": "contract IPancakeV3Pool",
          "name": "",
          "type": "address"
        }
      ],
      "stateMutability": "view",
      "type": "function"
    },
    {
      "inputs": [],
      "name": "rewardGrowthGlobalX128",
      "outputs": [
        {
          "internalType": "uint256",
          "name": "",
          "type": "uint256"
        }
      ],
      "stateMutability": "view",
      "type": "function"
    },
    {
      "inputs": [
        {
          "internalType": "int24",
          "name": "tickLower",
          "type": "int24"
        },
        {
          "internalType": "int24",
          "name": "tickUpper",
          "type": "int24"
        },
        {
          "internalType": "int128",
          "name": "liquidityDelta",
          "type": "int128"
        }
      ],
      "name": "updatePosition",
      "outputs": [],
      "stateMutability": "nonpayable",
      "type": "function"
    }
  ],
  "bytecode": {
    "object": "0x60c060405234801561001057600080fd5b50604051610dd9380380610dd98339818101604052606081101561003357600080fd5b50805160208201516040909201516001600160601b0319606083811b821660805284901b1660a0526002805463ffffffff909216600160801b0263ffffffff60801b199092169190911790556001600160a01b039081169116610d036100d660003980610298528061033152806104f452806105d4525080610239528061026652806103605280610521528061063352806106db528061081c5250610d036000f3fe608060405234801561001057600080fd5b50600436106100a95760003560e01c806357806ada1161007157806357806ada14610164578063702d75d21461016c5780638910faf114610196578063a4984633146101ca578063c3487ff8146101f2578063f8077fae14610216576100a9565b806316f0115b146100ae578063214a6fe2146100d257806337182c1b146100f75780633d6aa5e114610142578063575a86b21461015c575b600080fd5b6100b6610237565b604080516001600160a01b039092168252519081900360200190f35b6100f5600480360360208110156100e857600080fd5b503563ffffffff1661025b565b005b6101176004803603602081101561010d57600080fd5b503560020b6104ba565b604080516001600160801b039094168452600f9290920b602084015282820152519081900360600190f35b61014a6104e9565b60408051918252519081900360200190f35b6100b66104f2565b61014a610516565b61014a6004803603604081101561018257600080fd5b508035600290810b9160200135900b61051c565b6100f5600480360360608110156101ac57600080fd5b508035600290810b91602081013590910b9060400135600f0b6105c9565b6100f5600480360360408110156101e057600080fd5b50803560020b90602001351515610811565b6101fa6108fb565b604080516001600160801b039092168252519081900360200190f35b61021e61090a565b6040805163ffffffff9092168252519081900360200190f35b7f000000000000000000000000000000000000000000000000000000000000000081565b336001600160a01b037f00000000000000000000000000000000000000000000000000000000000000001614806102ba5750336001600160a01b037f000000000000000000000000000000000000000000000000000000000000000016145b6102fc576040805162461bcd60e51b815260206004820152600e60248201526d4e6f7420706f6f6c206f72204d4360901b604482015290519081900360640190fd5b60025463ffffffff600160801b90910481169082161161031b576104b7565b6002546001600160801b031615610498576000807f00000000000000000000000000000000000000000000000000000000000000006001600160a01b031663a15ea89f7f00000000000000000000000000000000000000000000000000000000000000006040518263ffffffff1660e01b815260040180826001600160a01b03168152602001915050604080518083038186803b1580156103bb57600080fd5b505afa1580156103cf573d6000803e3d6000fd5b505050506040513d60408110156103e557600080fd5b508051602090910151909250905080600063ffffffff808616908316111561041f5750600254600160801b900463ffffffff16840361044e565b60025463ffffffff600160801b9091048116908316111561044e5750600254600160801b900463ffffffff1681035b63ffffffff811615610493576104898163ffffffff1661047886600160801b64e8d4a5100061091d565b6002546001600160801b031661091d565b6000805490910190555b505050505b6002805463ffffffff60801b1916600160801b63ffffffff8416021790555b50565b600160208190526000918252604090912080549101546001600160801b03821691600160801b9004600f0b9083565b64e8d4a5100081565b7f000000000000000000000000000000000000000000000000000000000000000081565b60005481565b6000807f00000000000000000000000000000000000000000000000000000000000000006001600160a01b0316633850c7bd6040518163ffffffff1660e01b815260040160e06040518083038186803b15801561057857600080fd5b505afa15801561058c573d6000803e3d6000fd5b505050506040513d60e08110156105a257600080fd5b50602001516000549091506105bf906001908690869085906109cd565b9150505b92915050565b336001600160a01b037f0000000000000000000000000000000000000000000000000000000000000000161461062f576040805162461bcd60e51b81526020600482015260066024820152654e6f74204d4360d01b604482015290519081900360640190fd5b60007f00000000000000000000000000000000000000000000000000000000000000006001600160a01b0316633850c7bd6040518163ffffffff1660e01b815260040160e06040518083038186803b15801561068a57600080fd5b505afa15801561069e573d6000803e3d6000fd5b505050506040513d60e08110156106b457600080fd5b5060209081015160408051633867baa560e11b815290519193506000926001600160a01b037f000000000000000000000000000000000000000000000000000000000000000016926370cf754a926004808201939291829003018186803b15801561071e57600080fd5b505afa158015610732573d6000803e3d6000fd5b505050506040513d602081101561074857600080fd5b50516000805491925080600f86900b156107825761076d60018987898760008a610a45565b915061077f600188878987848a610a45565b90505b8760020b8560020b1215801561079d57508660020b8560020b125b156107d9576002546107b8906001600160801b031687610b84565b600280546001600160801b0319166001600160801b03929092169190911790555b600086600f0b12156108075781156107f6576107f6600189610c3a565b801561080757610807600188610c3a565b5050505050505050565b336001600160a01b037f00000000000000000000000000000000000000000000000000000000000000001614610879576040805162461bcd60e51b8152602060048201526008602482015267139bdd081c1bdbdb60c21b604482015290519081900360640190fd5b600282810b900b6000908152600160205260409020546001600160801b03166108a1576108f7565b600080546108b3906001908590610c59565b905081156108bf576000035b6002546108d5906001600160801b031682610b84565b600280546001600160801b0319166001600160801b0392909216919091179055505b5050565b6002546001600160801b031681565b600254600160801b900463ffffffff1681565b6000808060001985870986860292508281109083900303905080610953576000841161094857600080fd5b5082900490506109c6565b80841161095f57600080fd5b6000848688096000868103871696879004966002600389028118808a02820302808a02820302808a02820302808a02820302808a02820302808a02909103029181900381900460010186841190950394909402919094039290920491909117919091029150505b9392505050565b600284810b80820b60009081526020889052604080822087850b850b835290822091939092849187900b12610a0757506001820154610a10565b50600182015484035b60008760020b8760020b1215610a2b57506001820154610a34565b50600182015485035b940393909303979650505050505050565b600286810b900b600090815260208890526040812080546001600160801b031682610a708289610b84565b9050846001600160801b0316816001600160801b03161115610abe576040805162461bcd60e51b81526020600482015260026024820152614c4f60f01b604482015290519081900360640190fd5b6001600160801b038281161590821615811415945015610aed578860020b8a60020b13610aed57600183018790555b82546001600160801b0319166001600160801b03821617835585610b36578254610b3190610b2c90600160801b9004600f90810b810b908b900b610c8b565b610ca1565b610b57565b8254610b5790610b2c90600160801b9004600f90810b810b908b900b610cb7565b8354600f9190910b6001600160801b03908116600160801b02911617909255509098975050505050505050565b60008082600f0b1215610be957826001600160801b03168260000384039150816001600160801b031610610be4576040805162461bcd60e51b81526020600482015260026024820152614c5360f01b604482015290519081900360640190fd5b6105c3565b826001600160801b03168284019150816001600160801b031610156105c3576040805162461bcd60e51b81526020600482015260026024820152614c4160f01b604482015290519081900360640190fd5b600290810b900b60009081526020919091526040812081815560010155565b600291820b90910b6000908152602092909252604090912060018101805490920390915554600160801b9004600f0b90565b818101828112156000831215146105c357600080fd5b80600f81900b8114610cb257600080fd5b919050565b808203828113156000831215146105c357600080fdfea2646970667358221220ced5336fb5e713a4ade87ea349101a481f03f9d799b743992c795592ea730b8c64736f6c63430007060033",
    "linkReferences": {}
  },
  "methodIdentifiers": {
    "REWARD_PRECISION()": "3d6aa5e1",
    "accumulateReward(uint32)": "214a6fe2",
    "crossLmTick(int24,bool)": "a4984633",
    "getRewardGrowthInside(int24,int24)": "702d75d2",
    "lastRewardTimestamp()": "f8077fae",
    "lmLiquidity()": "c3487ff8",
    "lmTicks(int24)": "37182c1b",
    "masterChef()": "575a86b2",
    "pool()": "16f0115b",
    "rewardGrowthGlobalX128()": "57806ada",
    "updatePosition(int24,int24,int128)": "8910faf1"
  },
  "id": 127
}