{
  "abi": [
    {
      "inputs": [
        {
          "internalType": "contract ISwapRouter",
          "name": "_swapRouter",
          "type": "address"
        },
        {
          "internalType": "address",
          "name": "_deployer",
          "type": "address"
        },
        {
          "internalType": "address",
          "name": "_factory",
          "type": "address"
        },
        {
          "internalType": "address",
          "name": "_WETH9",
          "type": "address"
        }
      ],
      "stateMutability": "nonpayable",
      "type": "constructor"
    },
    {
      "inputs": [],
      "name": "WETH9",
      "outputs": [
        {
          "internalType": "address",
          "name": "",
          "type": "address"
        }
      ],
      "stateMutability": "view",
      "type": "function"
    },
    {
      "inputs": [],
      "name": "deployer",
      "outputs": [
        {
          "internalType": "address",
          "name": "",
          "type": "address"
        }
      ],
      "stateMutability": "view",
      "type": "function"
    },
    {
      "inputs": [],
      "name": "factory",
      "outputs": [
        {
          "internalType": "address",
          "name": "",
          "type": "address"
        }
      ],
      "stateMutability": "view",
      "type": "function"
    },
    {
      "inputs": [
        {
          "components": [
            {
              "internalType": "address",
              "name": "token0",
              "type": "address"
            },
            {
              "internalType": "address",
              "name": "token1",
              "type": "address"
            },
            {
              "internalType": "uint24",
              "name": "fee1",
              "type": "uint24"
            },
            {
              "internalType": "uint256",
              "name": "amount0",
              "type": "uint256"
            },
            {
              "internalType": "uint256",
              "name": "amount1",
              "type": "uint256"
            },
            {
              "internalType": "uint24",
              "name": "fee2",
              "type": "uint24"
            },
            {
              "internalType": "uint24",
              "name": "fee3",
              "type": "uint24"
            }
          ],
          "internalType": "struct PairFlash.FlashParams",
          "name": "params",
          "type": "tuple"
        }
      ],
      "name": "initFlash",
      "outputs": [],
      "stateMutability": "nonpayable",
      "type": "function"
    },
    {
      "inputs": [
        {
          "internalType": "uint256",
          "name": "fee0",
          "type": "uint256"
        },
        {
          "internalType": "uint256",
          "name": "fee1",
          "type": "uint256"
        },
        {
          "internalType": "bytes",
          "name": "data",
          "type": "bytes"
        }
      ],
      "name": "pancakeV3FlashCallback",
      "outputs": [],
      "stateMutability": "nonpayable",
      "type": "function"
    },
    {
      "inputs": [],
      "name": "refundETH",
      "outputs": [],
      "stateMutability": "payable",
      "type": "function"
    },
    {
      "inputs": [],
      "name": "swapRouter",
      "outputs": [
        {
          "internalType": "contract ISwapRouter",
          "name": "",
          "type": "address"
        }
      ],
      "stateMutability": "view",
      "type": "function"
    },
    {
      "inputs": [
        {
          "internalType": "address",
          "name": "token",
          "type": "address"
        },
        {
          "internalType": "uint256",
          "name": "amountMinimum",
          "type": "uint256"
        },
        {
          "internalType": "address",
          "name": "recipient",
          "type": "address"
        }
      ],
      "name": "sweepToken",
      "outputs": [],
      "stateMutability": "payable",
      "type": "function"
    },
    {
      "inputs": [
        {
          "internalType": "uint256",
          "name": "amountMinimum",
          "type": "uint256"
        },
        {
          "internalType": "address",
          "name": "recipient",
          "type": "address"
        }
      ],
      "name": "unwrapWETH9",
      "outputs": [],
      "stateMutability": "payable",
      "type": "function"
    },
    {
      "stateMutability": "payable",
      "type": "receive"
    }
  ],
  "bytecode": {
    "object": "0x6101006040523480156200001257600080fd5b506040516200168d3803806200168d833981016040819052620000359162000064565b6001600160601b0319606093841b811660805291831b821660a052821b811660c05291901b1660e052620000e4565b600080600080608085870312156200007a578384fd5b84516200008781620000cb565b60208601519094506200009a81620000cb565b6040860151909350620000ad81620000cb565b6060860151909250620000c081620000cb565b939692955090935050565b6001600160a01b0381168114620000e157600080fd5b50565b60805160601c60a05160601c60c05160601c60e05160601c61152c620001616000398061054b52806105785280610687528061070f528061080e525080609a528061033c528061042752806104b45280610cb25280610cf85280610d6c52508061083252508061023252806104eb5280610856525061152c6000f3fe60806040526004361061008a5760003560e01c8063a1d4833611610059578063a1d4833614610165578063c31c9c0714610185578063c45a01551461019a578063d5f39488146101af578063df2ab5bb146101c4576100fa565b806312210e8a146100ff5780632384463b1461010757806349404b7c146101275780634aa4a4fc1461013a576100fa565b366100fa57336001600160a01b037f000000000000000000000000000000000000000000000000000000000000000016146100f8576040805162461bcd60e51b81526020600482015260096024820152684e6f7420574554483960b81b604482015290519081900360640190fd5b005b600080fd5b6100f86101d7565b34801561011357600080fd5b506100f8610122366004611227565b6101e9565b6100f86101353660046112da565b610338565b34801561014657600080fd5b5061014f6104b2565b60405161015c9190611389565b60405180910390f35b34801561017157600080fd5b506100f8610180366004611305565b6104d6565b34801561019157600080fd5b5061014f61080c565b3480156101a657600080fd5b5061014f610830565b3480156101bb57600080fd5b5061014f610854565b6100f86101d236600461110e565b610878565b47156101e7576101e73347610956565b565b6000604051806060016040528083600001516001600160a01b0316815260200183602001516001600160a01b03168152602001836040015162ffffff16815250905060006102577f000000000000000000000000000000000000000000000000000000000000000083610a45565b9050806001600160a01b031663490e6cbc30856060015186608001516040518060c001604052808960600151815260200189608001518152602001336001600160a01b031681526020018881526020018960a0015162ffffff1681526020018960c0015162ffffff168152506040516020016102d39190611477565b6040516020818303038152906040526040518563ffffffff1660e01b8152600401610301949392919061139d565b600060405180830381600087803b15801561031b57600080fd5b505af115801561032f573d6000803e3d6000fd5b50505050505050565b60007f00000000000000000000000000000000000000000000000000000000000000006001600160a01b03166370a08231306040518263ffffffff1660e01b815260040180826001600160a01b0316815260200191505060206040518083038186803b1580156103a757600080fd5b505afa1580156103bb573d6000803e3d6000fd5b505050506040513d60208110156103d157600080fd5b505190508281101561041f576040805162461bcd60e51b8152602060048201526012602482015271496e73756666696369656e7420574554483960701b604482015290519081900360640190fd5b80156104ad577f00000000000000000000000000000000000000000000000000000000000000006001600160a01b0316632e1a7d4d826040518263ffffffff1660e01b815260040180828152602001915050600060405180830381600087803b15801561048b57600080fd5b505af115801561049f573d6000803e3d6000fd5b505050506104ad8282610956565b505050565b7f000000000000000000000000000000000000000000000000000000000000000081565b60006104e482840184611149565b90506105147f00000000000000000000000000000000000000000000000000000000000000008260600151610b29565b506060810151805160209091015182516000906105319089610b52565b90506000610543856020015189610b52565b9050610574837f00000000000000000000000000000000000000000000000000000000000000008760200151610b62565b60007f00000000000000000000000000000000000000000000000000000000000000006001600160a01b031663414bf389604051806101000160405280876001600160a01b03168152602001886001600160a01b03168152602001896080015162ffffff168152602001306001600160a01b031681526020014281526020018960200151815260200186815260200160006001600160a01b03168152506040518263ffffffff1660e01b815260040161062d919061140e565b602060405180830381600087803b15801561064757600080fd5b505af115801561065b573d6000803e3d6000fd5b505050506040513d601f19601f8201168201806040525081019061067f91906112c2565b90506106b0857f00000000000000000000000000000000000000000000000000000000000000008860000151610b62565b60408051610100810182526001600160a01b038781168252868116602083015260a08981015162ffffff168385015230606084015242608084015289519083015260c08201859052600060e08301819052925163414bf38960e01b81527f00000000000000000000000000000000000000000000000000000000000000009091169163414bf38991610745919060040161140e565b602060405180830381600087803b15801561075f57600080fd5b505af1158015610773573d6000803e3d6000fd5b505050506040513d601f19601f8201168201806040525081019061079791906112c2565b905083156107ab576107ab86303387610cb0565b82156107bd576107bd85303386610cb0565b838211156107de57600084830390506107dc87308a6040015184610cb0565b505b828111156107ff57600083820390506107fd86308a6040015184610cb0565b505b5050505050505050505050565b7f000000000000000000000000000000000000000000000000000000000000000081565b7f000000000000000000000000000000000000000000000000000000000000000081565b7f000000000000000000000000000000000000000000000000000000000000000081565b6000836001600160a01b03166370a08231306040518263ffffffff1660e01b815260040180826001600160a01b0316815260200191505060206040518083038186803b1580156108c757600080fd5b505afa1580156108db573d6000803e3d6000fd5b505050506040513d60208110156108f157600080fd5b505190508281101561093f576040805162461bcd60e51b815260206004820152601260248201527124b739bab33334b1b4b2b73a103a37b5b2b760711b604482015290519081900360640190fd5b801561095057610950848383610e40565b50505050565b604080516000808252602082019092526001600160a01b0384169083906040518082805190602001908083835b602083106109a25780518252601f199092019160209182019101610983565b6001836020036101000a03801982511681845116808217855250505050505090500191505060006040518083038185875af1925050503d8060008114610a04576040519150601f19603f3d011682016040523d82523d6000602084013e610a09565b606091505b50509050806104ad576040805162461bcd60e51b815260206004820152600360248201526253544560e81b604482015290519081900360640190fd5b600081602001516001600160a01b031682600001516001600160a01b031610610a6d57600080fd5b50805160208083015160409384015184516001600160a01b0394851681850152939091168385015262ffffff166060808401919091528351808403820181526080840185528051908301206001600160f81b031960a085015294901b6bffffffffffffffffffffffff191660a183015260b58201939093527f5d227b1224d702ed5c29b93295d4c56c96d9ba453960e291d2fc046c48fe5c7260d5808301919091528251808303909101815260f5909101909152805191012090565b6000610b358383610a45565b9050336001600160a01b03821614610b4c57600080fd5b92915050565b80820182811015610b4c57600080fd5b604080516001600160a01b038481166024830152604480830185905283518084039091018152606490920183526020820180516001600160e01b031663095ea7b360e01b1781529251825160009485949389169392918291908083835b60208310610bde5780518252601f199092019160209182019101610bbf565b6001836020036101000a0380198251168184511680821785525050505050509050019150506000604051808303816000865af19150503d8060008114610c40576040519150601f19603f3d011682016040523d82523d6000602084013e610c45565b606091505b5091509150818015610c73575080511580610c735750808060200190516020811015610c7057600080fd5b50515b610ca9576040805162461bcd60e51b8152602060048201526002602482015261534160f01b604482015290519081900360640190fd5b5050505050565b7f00000000000000000000000000000000000000000000000000000000000000006001600160a01b0316846001600160a01b0316148015610cf15750804710155b15610e13577f00000000000000000000000000000000000000000000000000000000000000006001600160a01b031663d0e30db0826040518263ffffffff1660e01b81526004016000604051808303818588803b158015610d5157600080fd5b505af1158015610d65573d6000803e3d6000fd5b50505050507f00000000000000000000000000000000000000000000000000000000000000006001600160a01b031663a9059cbb83836040518363ffffffff1660e01b815260040180836001600160a01b0316815260200182815260200192505050602060405180830381600087803b158015610de157600080fd5b505af1158015610df5573d6000803e3d6000fd5b505050506040513d6020811015610e0b57600080fd5b506109509050565b6001600160a01b038316301415610e3457610e2f848383610e40565b610950565b61095084848484610f87565b604080516001600160a01b038481166024830152604480830185905283518084039091018152606490920183526020820180516001600160e01b031663a9059cbb60e01b1781529251825160009485949389169392918291908083835b60208310610ebc5780518252601f199092019160209182019101610e9d565b6001836020036101000a0380198251168184511680821785525050505050509050019150506000604051808303816000865af19150503d8060008114610f1e576040519150601f19603f3d011682016040523d82523d6000602084013e610f23565b606091505b5091509150818015610f51575080511580610f515750808060200190516020811015610f4e57600080fd5b50515b610ca9576040805162461bcd60e51b815260206004820152600260248201526114d560f21b604482015290519081900360640190fd5b604080516001600160a01b0385811660248301528481166044830152606480830185905283518084039091018152608490920183526020820180516001600160e01b03166323b872dd60e01b178152925182516000948594938a169392918291908083835b6020831061100b5780518252601f199092019160209182019101610fec565b6001836020036101000a0380198251168184511680821785525050505050509050019150506000604051808303816000865af19150503d806000811461106d576040519150601f19603f3d011682016040523d82523d6000602084013e611072565b606091505b50915091508180156110a05750805115806110a0575080806020019051602081101561109d57600080fd5b50515b6110d7576040805162461bcd60e51b815260206004820152600360248201526229aa2360e91b604482015290519081900360640190fd5b505050505050565b80356001600160a01b03811681146110f657600080fd5b919050565b803562ffffff811681146110f657600080fd5b600080600060608486031215611122578283fd5b61112b846110df565b925060208401359150611140604085016110df565b90509250925092565b600081830361010081121561115c578182fd5b6040805160c0810167ffffffffffffffff828210818311171561117b57fe5b81845286358352602087013560208401526111978488016110df565b838501526060605f19860112156111ac578586fd5b8351945060608501915084821081831117156111c457fe5b5082526111d3606086016110df565b83526111e1608086016110df565b60208401526111f260a086016110fb565b8284015282606082015261120860c086016110fb565b608082015261121960e086016110fb565b60a082015295945050505050565b600060e08284031215611238578081fd5b60405160e0810181811067ffffffffffffffff8211171561125557fe5b604052611261836110df565b815261126f602084016110df565b6020820152611280604084016110fb565b604082015260608301356060820152608083013560808201526112a560a084016110fb565b60a08201526112b660c084016110fb565b60c08201529392505050565b6000602082840312156112d3578081fd5b5051919050565b600080604083850312156112ec578182fd5b823591506112fc602084016110df565b90509250929050565b6000806000806060858703121561131a578081fd5b8435935060208501359250604085013567ffffffffffffffff8082111561133f578283fd5b818701915087601f830112611352578283fd5b813581811115611360578384fd5b886020828501011115611371578384fd5b95989497505060200194505050565b62ffffff169052565b6001600160a01b0391909116815260200190565b600060018060a01b038616825260208581840152846040840152608060608401528351806080850152825b818110156113e45785810183015185820160a0015282016113c8565b818111156113f5578360a083870101525b50601f01601f19169290920160a0019695505050505050565b81516001600160a01b03908116825260208084015182169083015260408084015162ffffff16908301526060808401518216908301526080808401519083015260a0838101519083015260c0808401519083015260e09283015116918101919091526101000190565b81518152602080830151818301526040808401516001600160a01b03908116828501526060808601518051831691860191909152928301511660808085019190915291015162ffffff1660a08301528201516101008201906114dc60c0840182611380565b5060a08301516114ef60e0840182611380565b509291505056fea2646970667358221220f65e9ca10c74ad37c064f74f3b39d6d2128078d078d898c1cb844bd92791afec64736f6c63430007060033",
    "linkReferences": {}
  },
  "methodIdentifiers": {
    "WETH9()": "4aa4a4fc",
    "deployer()": "d5f39488",
    "factory()": "c45a0155",
    "initFlash((address,address,uint24,uint256,uint256,uint24,uint24))": "2384463b",
    "pancakeV3FlashCallback(uint256,uint256,bytes)": "a1d48336",
    "refundETH()": "12210e8a",
    "swapRouter()": "c31c9c07",
    "sweepToken(address,uint256,address)": "df2ab5bb",
    "unwrapWETH9(uint256,address)": "49404b7c"
  },
  "id": 149
}