{
  "abi": [
    {
      "inputs": [
        {
          "internalType": "uint160",
          "name": "sqrtRatioX96",
          "type": "uint160"
        },
        {
          "internalType": "uint160",
          "name": "sqrtRatioAX96",
          "type": "uint160"
        },
        {
          "internalType": "uint160",
          "name": "sqrtRatioBX96",
          "type": "uint160"
        },
        {
          "internalType": "uint256",
          "name": "amount0",
          "type": "uint256"
        },
        {
          "internalType": "uint256",
          "name": "amount1",
          "type": "uint256"
        }
      ],
      "name": "getLiquidityForAmounts",
      "outputs": [
        {
          "internalType": "uint128",
          "name": "liquidity",
          "type": "uint128"
        }
      ],
      "stateMutability": "pure",
      "type": "function"
    }
  ],
  "bytecode": {
    "object": "0x608060405234801561001057600080fd5b50610314806100206000396000f3fe608060405234801561001057600080fd5b506004361061002b5760003560e01c80636098fd4a14610030575b600080fd5b610072600480360360a081101561004657600080fd5b506001600160a01b0381358116916020810135821691604082013516906060810135906080013561008e565b604080516001600160801b039092168252519081900360200190f35b600061009d86868686866100a9565b90505b95945050505050565b6000836001600160a01b0316856001600160a01b031611156100c9579293925b846001600160a01b0316866001600160a01b0316116100f4576100ed858585610161565b90506100a0565b836001600160a01b0316866001600160a01b0316101561015657600061011b878686610161565b9050600061012a8789866101cf565b9050806001600160801b0316826001600160801b03161061014b578061014d565b815b925050506100a0565b61009d8585846101cf565b6000826001600160a01b0316846001600160a01b03161115610181579192915b60006101a4856001600160a01b0316856001600160a01b0316600160601b610214565b90506101c46101bf84838888036001600160a01b0316610214565b6102c3565b9150505b9392505050565b6000826001600160a01b0316846001600160a01b031611156101ef579192915b61020c6101bf83600160601b8787036001600160a01b0316610214565b949350505050565b600080806000198587098686029250828110908390030390508061024a576000841161023f57600080fd5b5082900490506101c8565b80841161025657600080fd5b6000848688096000868103871696879004966002600389028118808a02820302808a02820302808a02820302808a02820302808a02820302808a02909103029181900381900460010186841190950394909402919094039290920491909117919091029150509392505050565b806001600160801b03811681146102d957600080fd5b91905056fea2646970667358221220758654a028282c81590dfe45add2a5707d8d4b5e7710a3a9c0dea2e0d14e7ccc64736f6c63430007060033",
    "linkReferences": {}
  },
  "methodIdentifiers": {
    "getLiquidityForAmounts(uint160,uint160,uint160,uint256,uint256)": "6098fd4a"
  },
  "id": 31
}