{
  "abi": [
    {
      "inputs": [],
      "stateMutability": "nonpayable",
      "type": "constructor"
    },
    {
      "anonymous": false,
      "inputs": [
        {
          "indexed": true,
          "internalType": "address",
          "name": "oldOwner",
          "type": "address"
        },
        {
          "indexed": true,
          "internalType": "address",
          "name": "newOwner",
          "type": "address"
        }
      ],
      "name": "OwnerChanged",
      "type": "event"
    },
    {
      "anonymous": false,
      "inputs": [
        {
          "indexed": true,
          "internalType": "address",
          "name": "sender",
          "type": "address"
        },
        {
          "indexed": false,
          "internalType": "bool",
          "name": "switchToHttpLink",
          "type": "bool"
        },
        {
          "indexed": false,
          "internalType": "string",
          "name": "NFTDomain",
          "type": "string"
        }
      ],
      "name": "ToggleSwitchAndUpdateNFTDomain",
      "type": "event"
    },
    {
      "inputs": [
        {
          "components": [
            {
              "internalType": "uint256",
              "name": "tokenId",
              "type": "uint256"
            },
            {
              "internalType": "address",
              "name": "quoteTokenAddress",
              "type": "address"
            },
            {
              "internalType": "address",
              "name": "baseTokenAddress",
              "type": "address"
            },
            {
              "internalType": "string",
              "name": "quoteTokenSymbol",
              "type": "string"
            },
            {
              "internalType": "string",
              "name": "baseTokenSymbol",
              "type": "string"
            },
            {
              "internalType": "uint8",
              "name": "quoteTokenDecimals",
              "type": "uint8"
            },
            {
              "internalType": "uint8",
              "name": "baseTokenDecimals",
              "type": "uint8"
            },
            {
              "internalType": "bool",
              "name": "flipRatio",
              "type": "bool"
            },
            {
              "internalType": "int24",
              "name": "tickLower",
              "type": "int24"
            },
            {
              "internalType": "int24",
              "name": "tickUpper",
              "type": "int24"
            },
            {
              "internalType": "int24",
              "name": "tickCurrent",
              "type": "int24"
            },
            {
              "internalType": "int24",
              "name": "tickSpacing",
              "type": "int24"
            },
            {
              "internalType": "uint24",
              "name": "fee",
              "type": "uint24"
            },
            {
              "internalType": "address",
              "name": "poolAddress",
              "type": "address"
            }
          ],
          "internalType": "struct NFTDescriptorEx.ConstructTokenURIParams",
          "name": "params",
          "type": "tuple"
        }
      ],
      "name": "constructTokenURI",
      "outputs": [
        {
          "internalType": "string",
          "name": "",
          "type": "string"
        }
      ],
      "stateMutability": "view",
      "type": "function"
    },
    {
      "inputs": [],
      "name": "owner",
      "outputs": [
        {
          "internalType": "address",
          "name": "",
          "type": "address"
        }
      ],
      "stateMutability": "view",
      "type": "function"
    },
    {
      "inputs": [
        {
          "internalType": "address",
          "name": "_owner",
          "type": "address"
        }
      ],
      "name": "setOwner",
      "outputs": [],
      "stateMutability": "nonpayable",
      "type": "function"
    },
    {
      "inputs": [
        {
          "internalType": "bool",
          "name": "_switchToHttpLink",
          "type": "bool"
        },
        {
          "internalType": "string",
          "name": "_NFTDomain",
          "type": "string"
        }
      ],
      "name": "toggleSwitchAndUpdateNFTDomain",
      "outputs": [],
      "stateMutability": "nonpayable",
      "type": "function"
    }
  ],
  "bytecode": {
    "object": "0x608060405234801561001057600080fd5b506000805460ff60a01b196001600160a01b0319909116331716600160a01b179055615f02806100416000396000f3fe608060405234801561001057600080fd5b506004361061004c5760003560e01c806313af40351461005157806365f2fb3a146100665780638da5cb5b14610079578063f93a791114610097575b600080fd5b61006461005f366004613da3565b6100b7565b005b610064610074366004613dbd565b610138565b6100816101d4565b60405161008e919061450c565b60405180910390f35b6100aa6100a5366004613e09565b6101e3565b60405161008e9190614543565b6000546001600160a01b031633146100ea5760405162461bcd60e51b81526004016100e190614556565b60405180910390fd5b600080546001600160a01b0319166001600160a01b0383811691821780845560405192939116917fb532073b38c83145e3e5135377a08bf9aab55bc0fd7c1179cd4fb995d2a5159c9190a350565b6000546001600160a01b031633146101625760405162461bcd60e51b81526004016100e190614556565b6000805460ff60a01b1916600160a01b84151502179055805161018c906001906020840190613c00565b50336001600160a01b03167fb66bd08d260c968739bfc68d59dcf7ef6291a6d1f765e818583bbba512cfa21f83836040516101c8929190614520565b60405180910390a25050565b6000546001600160a01b031681565b606060006101fe836101f9856101800151610332565b61056d565b905060006102326102128560600151610628565b61021f8660800151610628565b61022d876101a00151610794565b6107aa565b9050600061028061024686600001516107dc565b6102538760800151610628565b6102608860200151610794565b61026d8960400151610794565b61027b8a6101800151610332565b6108b7565b90506000610295610290876108ed565b610b28565b905060006102c7858585856040516020016102b39493929190614119565b604051602081830303815290604052610b28565b6040516020016102d79190614393565b60408051808303601f19018152919052600054909150600160a01b900460ff166103015780610325565b60018160405160200161031592919061408d565b6040516020818303038152906040525b955050505050505b919050565b606062ffffff821661035d5750604080518082019091526002815261302560f01b602082015261032d565b816000805b62ffffff8316156103ad5760ff81161561037e57600101610397565b600a62ffffff84160662ffffff16600014610397576001015b600190910190600a62ffffff8416049250610362565b6103b5613c88565b6000600584106104aa57600060046103d08660ff8716610c74565b10156103dd5760016103e0565b60005b60ff90811691506103f49085166001610c74565b6103ff866005610c74565b1061042b5761042661041560ff86166001610c74565b610420876005610c74565b90610c74565b61042e565b60005b60ff85166080850181905290925061044d906001906104209085610cd1565b60ff90811660a0850152608084015161047491839161046e91166001610c74565b90610cd1565b60ff908116604085015261049c90829061046e906104959088166001610cd1565b8590610cd1565b60ff1660208401525061051a565b6104b5600585610c74565b6002608084018190529091506104d390600190610420908490610cd1565b60ff90811660a08401526104f5906104ee9085166002610cd1565b8290610cd1565b60ff166020830181905261050a906002610c74565b60ff166040830152600160c08301525b61053961052a8560ff8616610c74565b62ffffff891690600a0a610d2b565b8252600160e08301526004841161055157600061055c565b61055c846004610c74565b60ff16606083015261032582610d92565b60608161057d8460600151610628565b61058a8560800151610628565b6105c38660e00151156105a2578661012001516105a9565b8661010001515b8761016001518860c001518960a001518a60e00151610fa2565b6105fc8760e00151156105db578761010001516105e2565b8761012001515b8861016001518960c001518a60a001518b60e00151610fa2565b6040516020016106109594939291906141f7565b60405160208183030381529060405290505b92915050565b6060816000805b82518160ff16101561067457828160ff168151811061064a57fe5b6020910101516001600160f81b031916601160f91b141561066c576001909101905b60010161062f565b5060ff81161561078c5760008160ff1683510167ffffffffffffffff8111801561069d57600080fd5b506040519080825280601f01601f1916602001820160405280156106c8576020820181803683370190505b5090506000805b84518160ff16101561077f57848160ff16815181106106ea57fe5b6020910101516001600160f81b031916601160f91b141561073457601760fa1b83838060010194508151811061071c57fe5b60200101906001600160f81b031916908160001a9053505b848160ff168151811061074357fe5b602001015160f81c60f81b83838060010194508151811061076057fe5b60200101906001600160f81b031916908160001a9053506001016106cf565b508194505050505061032d565b509192915050565b60606106226001600160a01b03831660146110b7565b6060838383866040516020016107c394939291906143d8565b60405160208183030381529060405290505b9392505050565b60608161080157506040805180820190915260018152600360fc1b602082015261032d565b8160005b811561081957600101600a82049150610805565b60008167ffffffffffffffff8111801561083257600080fd5b506040519080825280601f01601f19166020018201604052801561085d576020820181803683370190505b50859350905060001982015b83156108ae57600a840660300160f81b8282806001900393508151811061088c57fe5b60200101906001600160f81b031916908160001a905350600a84049350610869565b50949350505050565b606083858484896040516020016108d29594939291906142b0565b60405160208183030381529060405290505b95945050505050565b60606000604051806102a0016040528061090a8560200151610794565b815260200161091c8560400151610794565b8152602001846101a001516001600160a01b031681526020018460600151815260200184608001518152602001610957856101800151610332565b815260200184610100015160020b815260200184610120015160020b815260200184610160015160020b81526020016109a0856101000151866101200151876101400151611216565b60000b8152602001846000015181526020016109ca85602001516001600160a01b0316608861124d565b81526020016109e785604001516001600160a01b0316608861124d565b8152602001610a0485602001516001600160a01b0316600061124d565b8152602001610a2185604001516001600160a01b0316600061124d565b8152602001610a54610a4686602001516001600160a01b03166010886000015161125c565b600060ff601061011261127c565b8152602001610a87610a7986604001516001600160a01b03166010886000015161125c565b600060ff60646101e461127c565b8152602001610aac610a4686602001516001600160a01b03166020886000015161125c565b8152602001610ad1610a7986604001516001600160a01b03166020886000015161125c565b8152602001610af6610a4686602001516001600160a01b03166030886000015161125c565b8152602001610b1b610a7986604001516001600160a01b03166030886000015161125c565b905290506107d5816112c4565b6060815160001415610b49575060408051602081019091526000815261032d565b600060405180606001604052806040815260200161516760409139905060006003845160020181610b7657fe5b04600402905060008160200167ffffffffffffffff81118015610b9857600080fd5b506040519080825280601f01601f191660200182016040528015610bc3576020820181803683370190505b509050818152600183018586518101602084015b81831015610c2f576003830192508251603f8160121c168501518253600182019150603f81600c1c168501518253600182019150603f8160061c168501518253600182019150603f8116850151825350600101610bd7565b600389510660018114610c495760028114610c5a57610c66565b613d3d60f01b600119830152610c66565b603d60f81b6000198301525b509398975050505050505050565b600082821115610ccb576040805162461bcd60e51b815260206004820152601e60248201527f536166654d6174683a207375627472616374696f6e206f766572666c6f770000604482015290519081900360640190fd5b50900390565b6000828201838110156107d5576040805162461bcd60e51b815260206004820152601b60248201527f536166654d6174683a206164646974696f6e206f766572666c6f770000000000604482015290519081900360640190fd5b6000808211610d81576040805162461bcd60e51b815260206004820152601a60248201527f536166654d6174683a206469766973696f6e206279207a65726f000000000000604482015290519081900360640190fd5b818381610d8a57fe5b049392505050565b60606000826020015160ff1667ffffffffffffffff81118015610db457600080fd5b506040519080825280601f01601f191660200182016040528015610ddf576020820181803683370190505b5090508260e0015115610e1957602560f81b81600183510381518110610e0157fe5b60200101906001600160f81b031916908160001a9053505b8260c0015115610e7657600360fc1b81600081518110610e3557fe5b60200101906001600160f81b031916908160001a905350601760f91b81600181518110610e5e57fe5b60200101906001600160f81b031916908160001a9053505b608083015160ff165b60a0840151610e929060ff166001610cd1565b811015610ec957603060f81b828281518110610eaa57fe5b60200101906001600160f81b031916908160001a905350600101610e7f565b505b825115610622576000836060015160ff16118015610ef65750826060015160ff16836040015160ff16145b15610f395760408301805160ff600019820181169092528251601760f91b92849216908110610f2157fe5b60200101906001600160f81b031916908160001a9053505b8251610f4b90603090600a9006610cd1565b60f81b818460400180518091906001900360ff1660ff1681525060ff1681518110610f7257fe5b60200101906001600160f81b031916908160001a905350600a8360000181815181610f9957fe5b04905250610ecb565b606084600281900b620d89e71981610fb657fe5b050260020b8660020b1415611010578115610fec576040518060400160405280600381526020016209a82b60eb1b815250611009565b6040518060400160405280600381526020016226a4a760e91b8152505b90506108e4565b84600281900b620d89e88161102157fe5b050260020b8660020b1415611077578115611057576040518060400160405280600381526020016226a4a760e91b815250611009565b5060408051808201909152600381526209a82b60eb1b60208201526108e4565b60006110828761153c565b905082156110a4576110a1600160c01b6001600160a01b038316610d2b565b90505b6110af81868661186e565b9150506108e4565b606060008260020260020167ffffffffffffffff811180156110d857600080fd5b506040519080825280601f01601f191660200182016040528015611103576020820181803683370190505b509050600360fc1b8160008151811061111857fe5b60200101906001600160f81b031916908160001a905350600f60fb1b8160018151811061114157fe5b60200101906001600160f81b031916908160001a905350600160028402015b60018111156111c2576f181899199a1a9b1b9c1cb0b131b232b360811b85600f166010811061118b57fe5b1a60f81b82828151811061119b57fe5b60200101906001600160f81b031916908160001a90535060049490941c9360001901611160565b5083156107d5576040805162461bcd60e51b815260206004820181905260248201527f537472696e67733a20686578206c656e67746820696e73756666696369656e74604482015290519081900360640190fd5b60008360020b8260020b121561122f57506000196107d5565b8260020b8260020b1315611245575060016107d5565b5060006107d5565b60606107d583831c6003611a2e565b600060ff8261126b8686611ae8565b028161127357fe5b06949350505050565b60606112ba6112b58461046e611292888a610c74565b6112af61129f888a610c74565b6112a98d8d610c74565b90611aef565b90610d2b565b6107dc565b9695505050505050565b60606112cf82611b48565b6112eb83600001518460200151856060015186608001516121a7565b611302846060015185608001518660a001516124d2565b6113208560c001518660e00151876101000151886101200151612622565b6113406113318761014001516107dc565b8760c001518860e00151612905565b6113538761014001518860400151612d1d565b6040516020018087805190602001908083835b602083106113855780518252601f199092019160209182019101611366565b51815160209384036101000a600019018019909216911617905289519190930192890191508083835b602083106113cd5780518252601f1990920191602091820191016113ae565b51815160209384036101000a600019018019909216911617905288519190930192880191508083835b602083106114155780518252601f1990920191602091820191016113f6565b51815160209384036101000a600019018019909216911617905287519190930192870191508083835b6020831061145d5780518252601f19909201916020918201910161143e565b51815160209384036101000a600019018019909216911617905286519190930192860191508083835b602083106114a55780518252601f199092019160209182019101611486565b51815160209384036101000a600019018019909216911617905285519190930192850191508083835b602083106114ed5780518252601f1990920191602091820191016114ce565b5181516020939093036101000a6000190180199091169216919091179052651e17b9bb339f60d11b92019182525060408051808303601919018152600690920190529998505050505050505050565b60008060008360020b12611553578260020b61155b565b8260020b6000035b9050620d89e8811115611599576040805162461bcd60e51b81526020600482015260016024820152601560fa1b604482015290519081900360640190fd5b6000600182166115ad57600160801b6115bf565b6ffffcb933bd6fad37aa2d162d1a5940015b70ffffffffffffffffffffffffffffffffff16905060028216156115f3576ffff97272373d413259a46990580e213a0260801c5b6004821615611612576ffff2e50f5f656932ef12357cf3c7fdcc0260801c5b6008821615611631576fffe5caca7e10e4e61c3624eaa0941cd00260801c5b6010821615611650576fffcb9843d60f6159c9db58835c9266440260801c5b602082161561166f576fff973b41fa98c081472e6896dfb254c00260801c5b604082161561168e576fff2ea16466c96a3843ec78b326b528610260801c5b60808216156116ad576ffe5dee046a99a2a811c461f1969c30530260801c5b6101008216156116cd576ffcbe86c7900a88aedcffc83b479aa3a40260801c5b6102008216156116ed576ff987a7253ac413176f2b074cf7815e540260801c5b61040082161561170d576ff3392b0822b70005940c7a398e4b70f30260801c5b61080082161561172d576fe7159475a2c29b7443b29c7fa6e889d90260801c5b61100082161561174d576fd097f3bdfd2022b8845ad8f792aa58250260801c5b61200082161561176d576fa9f746462d870fdf8a65dc1f90e061e50260801c5b61400082161561178d576f70d869a156d2a1b890bb3df62baf32f70260801c5b6180008216156117ad576f31be135f97d08fd981231505542fcfa60260801c5b620100008216156117ce576f09aa508b5b7a84e1c677de54f3e99bc90260801c5b620200008216156117ee576e5d6af8dedb81196699c329225ee6040260801c5b6204000082161561180d576d2216e584f5fa1ea926041bedfe980260801c5b6208000082161561182a576b048a170391f7dc42444e8fa20260801c5b60008460020b131561184557806000198161184157fe5b0490505b64010000000081061561185957600161185c565b60005b60ff16602082901c0192505050919050565b6060600061187d858585612d95565b905060006118908283600160401b612e97565b9050600160601b821080156118c8576118c18272047bf19673df52e37f2410011d100000000000600160801b612e97565b91506118dd565b6118da82620186a0600160801b612e97565b91505b8160005b81156118f557600101600a820491506118e1565b600019016000806119068684612f46565b915091508015611917576001909201915b61191f613c88565b851561198c5761193e611936602b60ff8716610c74565b600790610cd1565b60ff9081166020830152600260808301526119649060019061046e90602b908816610c74565b60ff90811660a0830152602082015161197f91166001610c74565b60ff166040820152611a03565b60098460ff16106119d5576119a560ff85166004610c74565b60ff1660208201819052600560808301526119c1906001610c74565b60ff1660a082015260046040820152611a03565b600660208201526005604082018190526119fa9060019061046e9060ff881690610c74565b60ff1660608201525b82815285151560c0820152600060e0820152611a1e81610d92565b9c9b505050505050505050505050565b606060008260020267ffffffffffffffff81118015611a4c57600080fd5b506040519080825280601f01601f191660200182016040528015611a77576020820181803683370190505b5080519091505b8015611ae0576f181899199a1a9b1b9c1cb0b131b232b360811b85600f1660108110611aa657fe5b1a60f81b826001830381518110611ab957fe5b60200101906001600160f81b031916908160001a90535060049490941c9360001901611a7e565b509392505050565b1c60ff1690565b600082611afe57506000610622565b82820282848281611b0b57fe5b04146107d55760405162461bcd60e51b81526004018080602001828103825260218152602001806153866021913960400191505060405180910390fd5b6060611bdd8261016001516040516020018080614f406081913960810182805190602001908083835b60208310611b905780518252601f199092019160209182019101611b71565b6001836020036101000a038019825116818451168082178552505050505050905001806813979f1e17b9bb339f60b91b815250600901915050604051602081830303815290604052610b28565b611d3f836101e001518461020001518561018001516040516020018080614a7d6063913960630184805190602001908083835b60208310611c2f5780518252601f199092019160209182019101611c10565b51815160209384036101000a600019018019909216911617905265272063793d2760d01b919093019081528551600690910192860191508083835b60208310611c895780518252601f199092019160209182019101611c6a565b51815160209384036101000a6000190180199092169116179052722720723d273132307078272066696c6c3d272360681b919093019081528451601390910192850191508083835b60208310611cf05780518252601f199092019160209182019101611cd1565b6001836020036101000a038019825116818451168082178552505050505050905001806813979f1e17b9bb339f60b91b8152506009019350505050604051602081830303815290604052610b28565b611d90846102200151856102400151866101a001516040516020018080614a7d60639139606301848051906020019080838360208310611c2f5780518252601f199092019160209182019101611c10565b611ea5856102600151866102800151876101c001516040516020018080614a7d6063913960630184805190602001908083835b60208310611de25780518252601f199092019160209182019101611dc3565b51815160209384036101000a600019018019909216911617905265272063793d2760d01b919093019081528551600690910192860191508083835b60208310611e3c5780518252601f199092019160209182019101611e1d565b51815160001960209485036101000a01908116901991909116179052722720723d273130307078272066696c6c3d272360681b939091019283528451601390930192908501915080838360208310611cf05780518252601f199092019160209182019101611cd1565b6101608601516040516020018060566147f88239605601602c6151a78239651e3232b3399f60d11b602c820152603201604b614ef58239604b0186805190602001908083835b60208310611f0a5780518252601f199092019160209182019101611eeb565b6001836020036101000a03801982511681845116808217855250505050505090500180615a2d603e9139603e0185805190602001908083835b60208310611f625780518252601f199092019160209182019101611f43565b6001836020036101000a03801982511681845116808217855250505050505090500180614fc1603e9139603e0184805190602001908083835b60208310611fba5780518252601f199092019160209182019101611f9b565b5181516020939093036101000a6000190180199091169216919091179052631110179f60e11b920191825250600401603b6146f08239603b0183805190602001908083835b6020831061201e5780518252601f199092019160209182019101611fff565b6001836020036101000a03801982511681845116808217855250505050505090500180614b3d60999139609901607f6155de8239607f0160886159a582396088016041614bd68239604101605d615b658239605d01607261568a82396072016049614659823960490160be614e37823960be0160716149098239607101607561552182396075016066614c17823960660160a46151d3823960a4016085615a6b82397f3c6720636c69702d706174683d2275726c2823636f726e65727329223e00000060858201526b1e3932b1ba103334b6361e9160a11b60a2820152825160ae9091019060208401908083835b6020831061212b5780518252601f19909201916020918201910161210c565b6001836020036101000a03801982511681845116808217855250505050505090500180614c7d60319139603101604e6146a28239604e01605d614ae08239605d01604161512682396041016052614fff82396052016075615af08239607501955050505050506040516020818303038152906040529050919050565b60608382858488878a896040516020018080615c4860259139602501607d614dba8239607d0189805190602001908083835b602083106121f85780518252601f1990920191602091820191016121d9565b51815160209384036101000a600019018019909216911617905264010714051160dd1b919093019081528a516005909101928b0191508083835b602083106122515780518252601f199092019160209182019101612232565b6001836020036101000a03801982511681845116808217855250505050505090500180614cae607991396079016086615bc2823960860187805190602001908083835b602083106122b35780518252601f199092019160209182019101612294565b51815160209384036101000a600019018019909216911617905264010714051160dd1b919093019081528851600590910192890191508083835b6020831061230c5780518252601f1990920191602091820191016122ed565b6001836020036101000a0380198251168184511680821785525050505050509050018061488460859139608501607b6158138239607b0185805190602001908083835b6020831061236e5780518252601f19909201916020918201910161234f565b51815160209384036101000a600019018019909216911617905264010714051160dd1b919093019081528651600590910192870191508083835b602083106123c75780518252601f1990920191602091820191016123a8565b6001836020036101000a038019825116818451168082178552505050505050905001806149ce605d9139605d0160a361547e823960a30183805190602001908083835b602083106124295780518252601f19909201916020918201910161240a565b51815160209384036101000a600019018019909216911617905264010714051160dd1b919093019081528451600590910192850191508083835b602083106124825780518252601f199092019160209182019101612463565b6001836020036101000a038019825116818451168082178552505050505050905001806145ce608b9139608b01985050505050505050506040516020818303038152906040529050949350505050565b6060838383604051602001808061472b60cd913960cd0184805190602001908083835b602083106125145780518252601f1990920191602091820191016124f5565b6001836020036101000a03801982511681845116808217855250505050505090500180602f60f81b81525060010183805190602001908083835b6020831061256d5780518252601f19909201916020918201910161254e565b6001836020036101000a03801982511681845116808217855250505050505090500180615df16077913960770182805190602001908083835b602083106125c55780518252601f1990920191602091820191016125a6565b5181516020939093036101000a60001901801990911692169190911790526a1e17ba32bc3a1f1e17b39f60a91b920191825250600b016073615c918239607301935050505060405160208183030381529060405290509392505050565b606060008260000b600114612689578260000b600019146126605760405180604001604052806005815260200164236e6f6e6560d81b815250612684565b6040518060400160405280600a81526020016911b330b23296b237bbb760b11b8152505b6126ab565b60405180604001604052806008815260200167023666164652d75760c41b8152505b905060006126ba878787612fb7565b9050818183836126c988613205565b60405160200180806c078ce40dac2e6d67a44eae4d85609b1b815250600d0186805190602001908083835b602083106127135780518252601f1990920191602091820191016126f4565b5181516020939093036101000a600019018019909116921691909117905261149160f11b9201918252506002016077615277823960770185805190602001908083835b602083106127755780518252601f199092019160209182019101612756565b6001836020036101000a0380198251168184511680821785525050505050509050018061497a6054913960540180700785ece7c78ce40dac2e6d67a44eae4d85607b1b81525060110184805190602001908083835b602083106127e95780518252601f1990920191602091820191016127ca565b5181516020939093036101000a600019018019909116921691909117905261149160f11b92019182525060020160296152ee82396029016045615341823960450180681e3830ba3410321e9160b91b81525060090183805190602001908083835b602083106128695780518252601f19909201916020918201910161284a565b6001836020036101000a038019825116818451168082178552505050505050905001806155966048913960480182805190602001908083835b602083106128c15780518252601f1990920191602091820191016128a2565b6001836020036101000a0380198251168184511680821785525050505050509050019550505050505060405160208183030381529060405292505050949350505050565b6060600061291284613670565b9050600061291f84613670565b865183518251929350600490910191600a91820191016000806129428a8a61377a565b91509150612955856004016007026107dc565b8b612965866004016007026107dc565b89612975876004016007026107dc565b8a8787604051602001808061565d602d9139602d01806c1e3932b1ba103bb4b23a341e9160991b815250600d0189805190602001908083835b602083106129cd5780518252601f1990920191602091820191016129ae565b6001836020036101000a03801982511681845116808217855250505050505090500180615051603d9139603d01608d615d048239608d0188805190602001908083835b60208310612a2f5780518252601f199092019160209182019101612a10565b5181516020939093036101000a60001901801990911692169190911790526a1e17ba32bc3a1f1e17b39f60a91b920191825250600b01602d615ea08239602d01806c1e3932b1ba103bb4b23a341e9160991b815250600d0187805190602001908083835b60208310612ab25780518252601f199092019160209182019101612a93565b6001836020036101000a03801982511681845116808217855250505050505090500180615051603d9139603d016093614d27823960930186805190602001908083835b60208310612b145780518252601f199092019160209182019101612af5565b5181516020939093036101000a60001901801990911692169190911790526a1e17ba32bc3a1f1e17b39f60a91b920191825250600b01602d614a2b8239602d01806c1e3932b1ba103bb4b23a341e9160991b815250600d0185805190602001908083835b60208310612b975780518252601f199092019160209182019101612b78565b6001836020036101000a03801982511681845116808217855250505050505090500180615051603d9139603d01609361588e823960930184805190602001908083835b60208310612bf95780518252601f199092019160209182019101612bda565b6001836020036101000a03801982511681845116808217855250505050505090500180615e68603891396038016060615d918239606001606461541a82396064016025614a58823960250183805190602001908083835b60208310612c6f5780518252601f199092019160209182019101612c50565b51815160209384036101000a6000190180199092169116179052630383c16160e51b919093019081528451600490910192850191508083835b60208310612cc75780518252601f199092019160209182019101612ca8565b6001836020036101000a0380198251168184511680821785525050505050509050018061484e60369139603601985050505050505050506040516020818303038152906040529750505050505050509392505050565b6060612d298383613a86565b15612d7f5760405160200180608d6157868239608d0160736153a7823960730160716150b58239607101608a6156fc8239608a016084615921823960840190506040516020818303038152906040529050610622565b5060408051602081019091526000815292915050565b600080612db0612dab60ff868116908616613ae9565b613b4e565b9050600081118015612dc3575060128111155b15612e84578260ff168460ff161115612e2d57612df7612de4826002610d2b565b6001600160a01b03871690600a0a611aef565b91506002810660011415612e2857612e25827003298b075b4b6a5240945790619b37fd4a600160801b612e97565b91505b612e7f565b612e4e612e3b826002610d2b565b6001600160a01b03871690600a0a610d2b565b91506002810660011415612e7f57612e7c82600160801b7003298b075b4b6a5240945790619b37fd4a612e97565b91505b611ae0565b50506001600160a01b0390921692915050565b6000808060001985870986860292508281109083900303905080612ecd5760008411612ec257600080fd5b5082900490506107d5565b808411612ed957600080fd5b6000848688096000868103871696879004966002600389028118808a02820302808a02820302808a02820302808a02820302808a02820302808a02909103029181900381900460010186841190950394909402919094039290920491909117919091029150509392505050565b600080600060058460ff161115612f6e57612f6b8560ff600419870116600a0a610d2b565b94505b60006004600a8706119050612f8486600a610d2b565b95508015612f93578560010195505b85620186a01415612fa957600a86049550600191505b5084925090505b9250929050565b606060008260020b85850360020b81612fcc57fe5b05905060048160020b13613017576040518060400160405280601a81526020017f4d312031433431203431203130352031303520313435203134350000000000008152509150611ae0565b60088160020b1361305f576040518060400160405280601981526020017f4d312031433333203439203937203131332031343520313435000000000000008152509150611ae0565b60108160020b136130a7576040518060400160405280601981526020017f4d312031433333203537203839203131332031343520313435000000000000008152509150611ae0565b60208160020b136130ef576040518060400160405280601981526020017f4d312031433235203635203831203132312031343520313435000000000000008152509150611ae0565b60408160020b13613137576040518060400160405280601981526020017f4d312031433137203733203733203132392031343520313435000000000000008152509150611ae0565b60808160020b1361317f576040518060400160405280601881526020017f4d312031433920383120363520313337203134352031343500000000000000008152509150611ae0565b6101008160020b136131c8576040518060400160405280601a81526020017f4d31203143312038392035372e352031343520313435203134350000000000008152509150611ae0565b505060408051808201909152601881527f4d3120314331203937203439203134352031343520313435000000000000000060208201529392505050565b6040805180820182526002815261373360f01b6020808301919091528251808401845260038082526203139360ec1b82840152845180860186528181526232313760e81b818501528551808701909652908552620ccccd60ea1b928501929092526060939091906001600087900b148061328357508560000b600019145b1561347a578560000b6000191461329a578161329c565b835b8660000b600019146132ae57816132b0565b835b8760000b600019146132c257836132c4565b855b8860000b600019146132d657836132d8565b855b60405160200180806b1e31b4b931b6329031bc1e9160a11b815250600c0185805190602001908083835b602083106133215780518252601f199092019160209182019101613302565b51815160209384036101000a600019018019909216911617905267383c111031bc9e9160c11b919093019081528651600890910192870191508083835b6020831061337d5780518252601f19909201916020918201910161335e565b6001836020036101000a0380198251168184511680821785525050505050509050018061508e6027913960270183805190602001908083835b602083106133d55780518252601f1990920191602091820191016133b6565b51815160209384036101000a600019018019909216911617905267383c111031bc9e9160c11b919093019081528451600890910192850191508083835b602083106134315780518252601f199092019160209182019101613412565b6001836020036101000a03801982511681845116808217855250505050505090500180615317602a9139602a019450505050506040516020818303038152906040529450613667565b8383838360405160200180806b1e31b4b931b6329031bc1e9160a11b815250600c0185805190602001908083835b602083106134c75780518252601f1990920191602091820191016134a8565b51815160209384036101000a600019018019909216911617905267383c111031bc9e9160c11b919093019081528651600890910192870191508083835b602083106135235780518252601f199092019160209182019101613504565b51815160209384036101000a60001901801990921691161790527f70782220723d22347078222066696c6c3d22776869746522202f3e0000000000919093019081526b1e31b4b931b6329031bc1e9160a11b601b8201528551602790910192860191508083835b602083106135a95780518252601f19909201916020918201910161358a565b51815160209384036101000a600019018019909216911617905267383c111031bc9e9160c11b919093019081528451600890910192850191508083835b602083106136055780518252601f1990920191602091820191016135e6565b6001836020036101000a038019825116818451168082178552505050505050905001807f70782220723d22347078222066696c6c3d22776869746522202f3e0000000000815250601b0194505050505060405160208183030381529060405294505b50505050919050565b6060600060405180602001604052806000815250905060008360020b12156136b65782600019029250604051806040016040528060018152602001602d60f81b81525090505b806136c38460020b6107dc565b6040516020018083805190602001908083835b602083106136f55780518252601f1990920191602091820191016136d6565b51815160209384036101000a600019018019909216911617905285519190930192850191508083835b6020831061373d5780518252601f19909201916020918201910161371e565b6001836020036101000a03801982511681845116808217855250505050505090500192505050604051602081830303815290604052915050919050565b60608060006002858501810b0590506201e847198160020b12156137d657604051806040016040528060018152602001600760fb1b815250604051806040016040528060018152602001603760f81b8152509250925050612fb0565b620124f7198160020b121561382657604051806040016040528060018152602001600760fb1b8152506040518060400160405280600481526020016331302e3560e01b8152509250925050612fb0565b6161a7198160020b121561387657604051806040016040528060018152602001600760fb1b8152506040518060400160405280600581526020016431342e323560d81b8152509250925050612fb0565b611387198160020b12156138c45760405180604001604052806002815260200161031360f41b81525060405180604001604052806002815260200161062760f31b8152509250925050612fb0565b60008160020b12156139105760405180604001604052806002815260200161313160f01b81525060405180604001604052806002815260200161323160f01b8152509250925050612fb0565b6113888160020b121561395d5760405180604001604052806002815260200161313360f01b81525060405180604001604052806002815260200161323360f01b8152509250925050612fb0565b6161a88160020b12156139aa5760405180604001604052806002815260200161313560f01b81525060405180604001604052806002815260200161323560f01b8152509250925050612fb0565b620124f88160020b12156139f85760405180604001604052806002815260200161062760f31b81525060405180604001604052806002815260200161191b60f11b8152509250925050612fb0565b6201e8488160020b1215613a465760405180604001604052806002815260200161323160f01b81525060405180604001604052806002815260200161323760f01b8152509250925050612fb0565b604051806040016040528060028152602001610c8d60f21b81525060405180604001604052806002815260200161323760f01b8152509250925050612fb0565b6040805160208082018590526bffffffffffffffffffffffff19606085901b16828401528251603481840301815260549092019092528051910120600090613acd84613b65565b60020260010160ff1660001981613ae057fe5b04119392505050565b6000818303818312801590613afe5750838113155b80613b135750600083128015613b1357508381135b6107d55760405162461bcd60e51b8152600401808060200182810382526024815260200180615c6d6024913960400191505060405180910390fd5b600080821215613b615781600003610622565b5090565b6000808211613b7357600080fd5b600160801b8210613b8657608091821c91015b600160401b8210613b9957604091821c91015b6401000000008210613bad57602091821c91015b620100008210613bbf57601091821c91015b6101008210613bd057600891821c91015b60108210613be057600491821c91015b60048210613bf057600291821c91015b6002821061032d57600101919050565b828054600181600116156101000203166002900490600052602060002090601f016020900481019282613c365760008555613c7c565b82601f10613c4f57805160ff1916838001178555613c7c565b82800160010185558215613c7c579182015b82811115613c7c578251825591602001919060010190613c61565b50613b61929150613ccc565b6040805161010081018252600080825260208201819052918101829052606081018290526080810182905260a0810182905260c0810182905260e081019190915290565b5b80821115613b615760008155600101613ccd565b80356001600160a01b038116811461032d57600080fd5b8035801515811461032d57600080fd5b8035600281900b811461032d57600080fd5b600082601f830112613d2a578081fd5b813567ffffffffffffffff811115613d3e57fe5b613d51601f8201601f1916602001614579565b818152846020838601011115613d65578283fd5b816020850160208301379081016020019190915292915050565b803562ffffff8116811461032d57600080fd5b803560ff8116811461032d57600080fd5b600060208284031215613db4578081fd5b6107d582613ce1565b60008060408385031215613dcf578081fd5b613dd883613cf8565b9150602083013567ffffffffffffffff811115613df3578182fd5b613dff85828601613d1a565b9150509250929050565b600060208284031215613e1a578081fd5b813567ffffffffffffffff80821115613e31578283fd5b81840191506101c0808387031215613e47578384fd5b613e5081614579565b905082358152613e6260208401613ce1565b6020820152613e7360408401613ce1565b6040820152606083013582811115613e89578485fd5b613e9587828601613d1a565b606083015250608083013582811115613eac578485fd5b613eb887828601613d1a565b608083015250613eca60a08401613d92565b60a0820152613edb60c08401613d92565b60c0820152613eec60e08401613cf8565b60e08201526101009150613f01828401613d08565b828201526101209150613f15828401613d08565b828201526101409150613f29828401613d08565b828201526101609150613f3d828401613d08565b828201526101809150613f51828401613d7f565b828201526101a09150613f65828401613ce1565b91810191909152949350505050565b60008151613f8681856020860161459d565b9290920192915050565b60008151808452613fa881602086016020860161459d565b601f01601f19169290920160200192915050565b7fe29aa0efb88f20444953434c41494d45523a204475652064696c6967656e636581527f20697320696d7065726174697665207768656e20617373657373696e6720746860208201527f6973204e46542e204d616b65207375726520746f6b656e20616464726573736560408201527f73206d617463682074686520657870656374656420746f6b656e732c2061732060608201527f746f6b656e2073796d626f6c73206d617920626520696d6974617465642e00006080820152609e0190565b632e372e3760e11b815260040190565b60008084546001808216600081146140ac57600181146140c3576140f2565b60ff198316865260028304607f16860193506140f2565b600283048886526020808720875b838110156140ea5781548a8201529085019082016140d1565b505050860193505b50602f60f81b83528551915061410e828285016020890161459d565b910101949350505050565b683d913730b6b2911d1160b91b8152845160009061413e816009850160208a0161459d565b71111610113232b9b1b934b83a34b7b7111d1160711b600991840191820152855161417081601b840160208a0161459d565b855191019061418681601b84016020890161459d565b6c1116101134b6b0b3b2911d101160991b601b92909101918201527f646174613a696d6167652f7376672b786d6c3b6261736536342c000000000000602882015283516141da81604284016020880161459d565b61227d60f01b604292909101918201526044019695505050505050565b60006902830b731b0b5b29016960b51b8252865161421c81600a850160208b0161459d565b80830190506201016960ed1b80600a830152875161424181600d850160208c0161459d565b602f60f81b600d9390910192830152865161426381600e850160208b0161459d565b600e920191820152845161427e81601184016020890161459d565b611e1f60f11b6011929091019182015283516142a181601384016020880161459d565b01601301979650505050505050565b60006901020b2323932b9b99d160b51b80835287516142d681600a860160208c0161459d565b612e3760f11b600a9185019182015287516142f881600c840160208c0161459d565b01600c810191909152855190614315826016830160208a0161459d565b8181019150506b02e372332b2902a34b2b91d160a51b6016820152845161434381602284016020890161459d565b6b02e372a37b5b2b71024a21d160a51b60229290910191820152835161437081602e84016020880161459d565b614386614381602e8385010161407d565b613fbc565b9998505050505050505050565b60007f646174613a6170706c69636174696f6e2f6a736f6e3b6261736536342c000000825282516143cb81601d85016020870161459d565b91909101601d0192915050565b60007f54686973204e465420726570726573656e74732061206c69717569646974792082527f706f736974696f6e20696e20612050616e63616b65205633200000000000000060208301528551614436816039850160208a0161459d565b602d60f81b603991840191820152855161445781603a840160208a0161459d565b660103837b7b617160cd1b603a92909101918201527f546865206f776e6572206f662074686973204e46542063616e206d6f6469667960418201527f206f722072656465656d2074686520706f736974696f6e2e5c6e00000000000060618201526f02e372837b7b61020b2323932b9b99d160851b607b82015284516144e481608b84016020890161459d565b612e3760f11b608b9290910191820152614501608d820185613f74565b979650505050505050565b6001600160a01b0391909116815260200190565b600083151582526040602083015261453b6040830184613f90565b949350505050565b6000602082526107d56020830184613f90565b6020808252600990820152682737ba1037bbb732b960b91b604082015260600190565b60405181810167ffffffffffffffff8111828210171561459557fe5b604052919050565b60005b838110156145b85781810151838201526020016145a0565b838111156145c7576000848401525b5050505056fe203c616e696d6174652061646469746976653d2273756d22206174747269627574654e616d653d2273746172744f6666736574222066726f6d3d2230252220746f3d22313030252220626567696e3d22307322206475723d223330732220726570656174436f756e743d22696e646566696e69746522202f3e3c2f74657874506174683e3c2f746578743e3c73746f70206f66667365743d222e39222073746f702d636f6c6f723d227768697465222073746f702d6f7061636974793d223022202f3e3c2f6c696e6561724772616469656e743e3c72656374207374796c653d2266696c7465723a2075726c28236631292220783d223070782220793d22307078222077696474683d22323930707822206865696768743d22353030707822202f3e3c6665496d61676520726573756c743d2270332220786c696e6b3a687265663d22646174613a696d6167652f7376672b786d6c3b6261736536342c3c67206d61736b3d2275726c2823666164652d73796d626f6c29223e3c726563742066696c6c3d226e6f6e652220783d223070782220793d22307078222077696474683d22323930707822206865696768743d22323030707822202f3e203c7465787420793d22373070782220783d2233327078222066696c6c3d2277686974652220666f6e742d66616d696c793d2227436f7572696572204e6577272c206d6f6e6f73706163652220666f6e742d7765696768743d223230302220666f6e742d73697a653d2233367078223e3c7376672077696474683d2232393022206865696768743d22353030222076696577426f783d2230203020323930203530302220786d6c6e733d22687474703a2f2f7777772e77332e6f72672f323030302f7376672270782c2030707829222063783d22307078222063793d223070782220723d22347078222066696c6c3d227768697465222f3e3c2f673e203c616e696d6174652061646469746976653d2273756d22206174747269627574654e616d653d2273746172744f6666736574222066726f6d3d2230252220746f3d22313030252220626567696e3d22307322206475723d223330732220726570656174436f756e743d22696e646566696e69746522202f3e203c2f74657874506174683e3c6d61736b2069643d22666164652d757022206d61736b436f6e74656e74556e6974733d226f626a656374426f756e64696e67426f78223e3c726563742077696474683d223122206865696768743d2231222066696c6c3d2275726c2823677261642d75702922202f3e3c2f6d61736b3e22207374726f6b653d227267626128302c302c302c302e332922207374726f6b652d77696474683d2233327078222066696c6c3d226e6f6e6522207374726f6b652d6c696e656361703d22726f756e6422202f3e203c616e696d6174652061646469746976653d2273756d22206174747269627574654e616d653d2273746172744f6666736574222066726f6d3d2230252220746f3d22313030252220626567696e3d22307322206475723d2233307322203c67207374796c653d227472616e73666f726d3a7472616e736c61746528323970782c20343434707829223e3c636972636c65207374796c653d227472616e73666f726d3a7472616e736c6174653364283c7376672077696474683d2732393027206865696768743d27353030272076696577426f783d2730203020323930203530302720786d6c6e733d27687474703a2f2f7777772e77332e6f72672f323030302f737667273e3c636972636c652063783d27203c67207374796c653d2266696c7465723a75726c2823746f702d726567696f6e2d626c7572293b207472616e73666f726d3a7363616c6528312e35293b207472616e73666f726d2d6f726967696e3a63656e74657220746f703b223e22202f3e3c6665426c656e64206d6f64653d226f7665726c61792220696e3d2270302220696e323d22703122202f3e3c6665426c656e64206d6f64653d226578636c7573696f6e2220696e323d22703222202f3e3c6665426c656e64206d6f64653d226f7665726c61792220696e323d2270332220726573756c743d22626c656e644f757422202f3e3c6665476175737369616e426c7572203c706174682069643d226d696e696d61702220643d224d3233342034343443323334203435372e393439203234322e323120343633203235332034363322202f3e3c6d61736b2069643d226e6f6e6522206d61736b436f6e74656e74556e6974733d226f626a656374426f756e64696e67426f78223e3c726563742077696474683d223122206865696768743d2231222066696c6c3d22776869746522202f3e3c2f6d61736b3e2220783d223070782220793d22307078222077696474683d22323930707822206865696768743d22353030707822202f3e203c616e696d6174652061646469746976653d2273756d22206174747269627574654e616d653d2273746172744f6666736574222066726f6d3d2230252220746f3d22313030252220626567696e3d22307322206475723d223330732220726570656174436f756e743d22696e646566696e69746522202f3e3c7465787420783d22313270782220793d22313770782220666f6e742d66616d696c793d2227436f7572696572204e6577272c206d6f6e6f73706163652220666f6e742d73697a653d2231327078222066696c6c3d227768697465223e3c747370616e2066696c6c3d2272676261283235352c3235352c3235352c302e3629223e4d696e205469636b3a203c2f747370616e3e3c74657874506174682073746172744f66667365743d222d31303025222066696c6c3d2277686974652220666f6e742d66616d696c793d2227436f7572696572204e6577272c206d6f6e6f73706163652220666f6e742d73697a653d22313070782220786c696e6b3a687265663d2223746578742d706174682d61223e3c6c696e6561724772616469656e742069643d22677261642d646f776e222078313d2230222078323d2231222079313d2230222079323d2231223e3c73746f70206f66667365743d22302e30222073746f702d636f6c6f723d227768697465222073746f702d6f7061636974793d223122202f3e3c73746f70206f66667365743d22302e39222073746f702d636f6c6f723d227768697465222073746f702d6f7061636974793d223022202f3e3c2f6c696e6561724772616469656e743e3c66696c7465722069643d226631223e3c6665496d61676520726573756c743d2270302220786c696e6b3a687265663d22646174613a696d6167652f7376672b786d6c3b6261736536342c3c7376672077696474683d2732393027206865696768743d27353030272076696577426f783d2730203020323930203530302720786d6c6e733d27687474703a2f2f7777772e77332e6f72672f323030302f737667273e3c726563742077696474683d27323930707827206865696768743d273530307078272066696c6c3d2723222f3e3c6665496d61676520726573756c743d2270322220786c696e6b3a687265663d22646174613a696d6167652f7376672b786d6c3b6261736536342c3c656c6c697073652063783d22353025222063793d22307078222072783d223138307078222072793d223132307078222066696c6c3d222330303022206f7061636974793d22302e383522202f3e3c2f673e707822206865696768743d2232367078222072783d22387078222072793d22387078222066696c6c3d227267626128302c302c302c302e362922202f3e70782220723d22347078222066696c6c3d22776869746522202f3e3c636972636c652063783d2231312e333437384c32342031324c31342e343334312031322e363532324c32322e333932332031384c31332e373831392031332e373831394c31382032322e333932334c31322e363532322031342e343334314c31322032344c31312e333437382031342e343334314c362032322e33393c726563742066696c6c3d226e6f6e652220783d223070782220793d22307078222077696474683d22323930707822206865696768743d22353030707822202f3e4142434445464748494a4b4c4d4e4f505152535455565758595a6162636465666768696a6b6c6d6e6f707172737475767778797a303132333435363738392b2f20786d6c6e733a786c696e6b3d27687474703a2f2f7777772e77332e6f72672f313939392f786c696e6b273e3c6c696e6561724772616469656e742069643d22677261642d73796d626f6c223e3c73746f70206f66667365743d22302e37222073746f702d636f6c6f723d227768697465222073746f702d6f7061636974793d223122202f3e3c73746f70206f66667365743d222e3935222073746f702d636f6c6f723d227768697465222073746f702d6f7061636974793d223022202f3e3c2f6c696e6561724772616469656e743e207374796c653d227472616e73666f726d3a7472616e736c61746528373270782c313839707829223e3c7265637420783d222d313670782220793d222d31367078222077696474683d22313830707822206865696768743d223138307078222066696c6c3d226e6f6e6522202f3e3c7061746820643d22207374796c653d227472616e73666f726d3a7472616e736c61746528373270782c313839707829223e70782220723d2232347078222066696c6c3d226e6f6e6522207374726f6b653d22776869746522202f3e3c7265637420783d222d313670782220793d222d31367078222077696474683d22313830707822206865696768743d223138307078222066696c6c3d226e6f6e6522202f3e536166654d6174683a206d756c7469706c69636174696f6e206f766572666c6f773c673e3c70617468207374796c653d227472616e73666f726d3a7472616e736c617465283670782c367078292220643d224d313220304c31322e3635323220392e35363538374c313820312e363037374c31332e373831392031302e323138314c32322e3339323320364c31342e34333431203c70617468207374726f6b652d6c696e656361703d22726f756e642220643d224d38203943382e30303030342032322e393439342031362e32303939203238203237203238222066696c6c3d226e6f6e6522207374726f6b653d22776869746522202f3e20726570656174436f756e743d22696e646566696e69746522202f3e3c2f74657874506174683e3c74657874506174682073746172744f66667365743d222d353025222066696c6c3d2277686974652220666f6e742d66616d696c793d2227436f7572696572204e6577272c206d6f6e6f73706163652220666f6e742d73697a653d22313070782220786c696e6b3a687265663d2223746578742d706174682d61223e3c6d61736b2069643d22666164652d646f776e22206d61736b436f6e74656e74556e6974733d226f626a656374426f756e64696e67426f78223e3c726563742077696474683d223122206865696768743d2231222066696c6c3d2275726c2823677261642d646f776e2922202f3e3c2f6d61736b3e22207374726f6b653d2272676261283235352c3235352c3235352c3129222066696c6c3d226e6f6e6522207374726f6b652d6c696e656361703d22726f756e6422202f3e3c2f673e696e3d22626c656e644f75742220737464446576696174696f6e3d22343222202f3e3c2f66696c7465723e203c636c6970506174682069643d22636f726e657273223e3c726563742077696474683d2232393022206865696768743d22353030222072783d223432222072793d22343222202f3e3c2f636c6970506174683e203c67207374796c653d227472616e73666f726d3a7472616e736c61746528323970782c20333834707829223e3c6c696e6561724772616469656e742069643d22677261642d7570222078313d2231222078323d2230222079313d2231222079323d2230223e3c73746f70206f66667365743d22302e30222073746f702d636f6c6f723d227768697465222073746f702d6f7061636974793d223122202f3e32334c31302e323138312031332e373831394c312e363037372031384c392e35363538372031322e363532324c302031324c392e35363538372031312e333437384c312e3630373720364c31302e323138312031302e323138314c3620312e363037374c31312e3334373820392e35363538374c313220305a222066696c6c3d22776869746522202f3e3c67207374796c653d227472616e73666f726d3a7472616e736c6174652832323670782c20333932707829223e3c726563742077696474683d223336707822206865696768743d2233367078222072783d22387078222072793d22387078222066696c6c3d226e6f6e6522207374726f6b653d2272676261283235352c3235352c3235352c302e322922202f3e3c74657874506174682073746172744f66667365743d22353025222066696c6c3d2277686974652220666f6e742d66616d696c793d2227436f7572696572204e6577272c206d6f6e6f73706163652220666f6e742d73697a653d22313070782220786c696e6b3a687265663d2223746578742d706174682d61223e3c7465787420783d22313270782220793d22313770782220666f6e742d66616d696c793d2227436f7572696572204e6577272c206d6f6e6f73706163652220666f6e742d73697a653d2231327078222066696c6c3d227768697465223e3c747370616e2066696c6c3d2272676261283235352c3235352c3235352c302e3629223e4d6178205469636b3a203c2f747370616e3e3c616e696d6174655472616e73666f726d206174747269627574654e616d653d227472616e73666f726d2220747970653d22726f74617465222066726f6d3d22302031382031382220746f3d2233363020313820313822206475723d223130732220726570656174436f756e743d22696e646566696e697465222f3e3c2f673e3c2f673e3c706174682069643d22746578742d706174682d612220643d224d34302031322048323530204132382032382030203020312032373820343020563436302041323820323820302030203120323530203438382048343020413238203238203020302031203132203436302056343020413238203238203020302031203430203132207a22202f3e222f3e3c6665496d61676520726573756c743d2270312220786c696e6b3a687265663d22646174613a696d6167652f7376672b786d6c3b6261736536342c3c6d61736b2069643d22666164652d73796d626f6c22206d61736b436f6e74656e74556e6974733d227573657253706163654f6e557365223e3c726563742077696474683d22323930707822206865696768743d223230307078222066696c6c3d2275726c2823677261642d73796d626f6c2922202f3e3c2f6d61736b3e3c2f646566733e3c7265637420783d22302220793d2230222077696474683d2232393022206865696768743d22353030222072783d223432222072793d223432222066696c6c3d227267626128302c302c302c302922207374726f6b653d2272676261283235352c3235352c3235352c302e322922202f3e3c2f673e3c66696c7465722069643d22746f702d726567696f6e2d626c7572223e3c6665476175737369616e426c757220696e3d22536f75726365477261706869632220737464446576696174696f6e3d22323422202f3e3c2f66696c7465723e3c2f74657874506174683e203c74657874506174682073746172744f66667365743d223025222066696c6c3d2277686974652220666f6e742d66616d696c793d2227436f7572696572204e6577272c206d6f6e6f73706163652220666f6e742d73697a653d22313070782220786c696e6b3a687265663d2223746578742d706174682d61223e3c7465787420746578742d72656e646572696e673d226f7074696d697a655370656564223e5369676e6564536166654d6174683a207375627472616374696f6e206f766572666c6f773c7265637420783d2231362220793d223136222077696474683d2232353822206865696768743d22343638222072783d223236222072793d223236222066696c6c3d227267626128302c302c302c302922207374726f6b653d2272676261283235352c3235352c3235352c302e322922202f3e3c7465787420783d22313270782220793d22313770782220666f6e742d66616d696c793d2227436f7572696572204e6577272c206d6f6e6f73706163652220666f6e742d73697a653d2231327078222066696c6c3d227768697465223e3c747370616e2066696c6c3d2272676261283235352c3235352c3235352c302e3629223e49443a203c2f747370616e3e3c726563742077696474683d223336707822206865696768743d2233367078222072783d22387078222072793d22387078222066696c6c3d226e6f6e6522207374726f6b653d2272676261283235352c3235352c3235352c302e322922202f3e3c2f746578743e3c7465787420793d2231313570782220783d2233327078222066696c6c3d2277686974652220666f6e742d66616d696c793d2227436f7572696572204e6577272c206d6f6e6f73706163652220666f6e742d7765696768743d223230302220666f6e742d73697a653d2233367078223e3c2f746578743e3c2f673e3c67207374796c653d227472616e73666f726d3a7472616e736c6174652832323670782c20343333707829223e203c67207374796c653d227472616e73666f726d3a7472616e736c61746528323970782c20343134707829223ea26469706673582212200b7d169bba6c5fb21849ac23207136f8358c8a6c0350463f04b5684363b6728d64736f6c63430007060033",
    "linkReferences": {}
  },
  "methodIdentifiers": {
    "constructTokenURI((uint256,address,address,string,string,uint8,uint8,bool,int24,int24,int24,int24,uint24,address))": "f93a7911",
    "owner()": "8da5cb5b",
    "setOwner(address)": "13af4035",
    "toggleSwitchAndUpdateNFTDomain(bool,string)": "65f2fb3a"
  },
  "id": 132
}