{
  "abi": [
    {
      "inputs": [
        {
          "internalType": "address",
          "name": "_deployer",
          "type": "address"
        },
        {
          "internalType": "address",
          "name": "_factory",
          "type": "address"
        },
        {
          "internalType": "address",
          "name": "_WETH9",
          "type": "address"
        }
      ],
      "stateMutability": "nonpayable",
      "type": "constructor"
    },
    {
      "inputs": [],
      "name": "WETH9",
      "outputs": [
        {
          "internalType": "address",
          "name": "",
          "type": "address"
        }
      ],
      "stateMutability": "view",
      "type": "function"
    },
    {
      "inputs": [],
      "name": "deployer",
      "outputs": [
        {
          "internalType": "address",
          "name": "",
          "type": "address"
        }
      ],
      "stateMutability": "view",
      "type": "function"
    },
    {
      "inputs": [],
      "name": "factory",
      "outputs": [
        {
          "internalType": "address",
          "name": "",
          "type": "address"
        }
      ],
      "stateMutability": "view",
      "type": "function"
    },
    {
      "inputs": [
        {
          "internalType": "int256",
          "name": "amount0Delta",
          "type": "int256"
        },
        {
          "internalType": "int256",
          "name": "amount1Delta",
          "type": "int256"
        },
        {
          "internalType": "bytes",
          "name": "path",
          "type": "bytes"
        }
      ],
      "name": "pancakeV3SwapCallback",
      "outputs": [],
      "stateMutability": "view",
      "type": "function"
    },
    {
      "inputs": [
        {
          "internalType": "bytes",
          "name": "path",
          "type": "bytes"
        },
        {
          "internalType": "uint256",
          "name": "amountIn",
          "type": "uint256"
        }
      ],
      "name": "quoteExactInput",
      "outputs": [
        {
          "internalType": "uint256",
          "name": "amountOut",
          "type": "uint256"
        }
      ],
      "stateMutability": "nonpayable",
      "type": "function"
    },
    {
      "inputs": [
        {
          "internalType": "address",
          "name": "tokenIn",
          "type": "address"
        },
        {
          "internalType": "address",
          "name": "tokenOut",
          "type": "address"
        },
        {
          "internalType": "uint24",
          "name": "fee",
          "type": "uint24"
        },
        {
          "internalType": "uint256",
          "name": "amountIn",
          "type": "uint256"
        },
        {
          "internalType": "uint160",
          "name": "sqrtPriceLimitX96",
          "type": "uint160"
        }
      ],
      "name": "quoteExactInputSingle",
      "outputs": [
        {
          "internalType": "uint256",
          "name": "amountOut",
          "type": "uint256"
        }
      ],
      "stateMutability": "nonpayable",
      "type": "function"
    },
    {
      "inputs": [
        {
          "internalType": "bytes",
          "name": "path",
          "type": "bytes"
        },
        {
          "internalType": "uint256",
          "name": "amountOut",
          "type": "uint256"
        }
      ],
      "name": "quoteExactOutput",
      "outputs": [
        {
          "internalType": "uint256",
          "name": "amountIn",
          "type": "uint256"
        }
      ],
      "stateMutability": "nonpayable",
      "type": "function"
    },
    {
      "inputs": [
        {
          "internalType": "address",
          "name": "tokenIn",
          "type": "address"
        },
        {
          "internalType": "address",
          "name": "tokenOut",
          "type": "address"
        },
        {
          "internalType": "uint24",
          "name": "fee",
          "type": "uint24"
        },
        {
          "internalType": "uint256",
          "name": "amountOut",
          "type": "uint256"
        },
        {
          "internalType": "uint160",
          "name": "sqrtPriceLimitX96",
          "type": "uint160"
        }
      ],
      "name": "quoteExactOutputSingle",
      "outputs": [
        {
          "internalType": "uint256",
          "name": "amountIn",
          "type": "uint256"
        }
      ],
      "stateMutability": "nonpayable",
      "type": "function"
    }
  ],
  "bytecode": {
    "object": "0x60e060405234801561001057600080fd5b50604051610fe2380380610fe283398101604081905261002f91610072565b6001600160601b0319606093841b811660805291831b821660a05290911b1660c0526100b4565b80516001600160a01b038116811461006d57600080fd5b919050565b600080600060608486031215610086578283fd5b61008f84610056565b925061009d60208501610056565b91506100ab60408501610056565b90509250925092565b60805160601c60a05160601c60c05160601c610eef6100f3600039806103da5250806103fe52508061015a528061047052806106395250610eef6000f3fe608060405234801561001057600080fd5b50600436106100885760003560e01c8063c45a01551161005b578063c45a0155146100f3578063cdca1753146100fb578063d5f394881461010e578063f7729d431461011657610088565b806323a69e751461008d5780632f80bb1d146100a257806330d07f21146100cb5780634aa4a4fc146100de575b600080fd5b6100a061009b366004610c4d565b610129565b005b6100b56100b0366004610be7565b610200565b6040516100c29190610e22565b60405180910390f35b6100b56100d9366004610b79565b610265565b6100e66103d8565b6040516100c29190610d84565b6100e66103fc565b6100b5610109366004610be7565b610420565b6100e661046e565b6100b5610124366004610b79565b610492565b60008313806101385750600082135b61014157600080fd5b600080600061014f846105cc565b9250925092506101817f00000000000000000000000000000000000000000000000000000000000000008484846105fd565b5060008060008089136101ad57856001600160a01b0316856001600160a01b031610888a6000036101c8565b846001600160a01b0316866001600160a01b03161089896000035b92509250925082156101df57604051818152602081fd5b600054156101f55760005481146101f557600080fd5b604051828152602081fd5b60005b600061020e84610613565b9050600080600061021e876105cc565b925092509250610232828483896000610265565b9550831561024a576102438761061b565b9650610256565b8594505050505061025f565b50505050610203565b92915050565b60006001600160a01b03808616878216109083166102835760008490555b61028e878787610632565b6001600160a01b031663128acb0830836102a788610670565b6000036001600160a01b038816156102bf57876102e5565b856102de5773fffd8963efd1fc6a506488495d951d5263988d256102e5565b6401000276a45b8b8b8e6040516020016102fa93929190610d49565b6040516020818303038152906040526040518663ffffffff1660e01b8152600401610329959493929190610d98565b6040805180830381600087803b15801561034257600080fd5b505af1925050508015610372575060408051601f3d908101601f1916820190925261036f91810190610c2a565b60015b6103cb573d8080156103a0576040519150601f19603f3d011682016040523d82523d6000602084013e6103a5565b606091505b506001600160a01b0384166103b957600080555b6103c281610686565b925050506103cf565b5050505b95945050505050565b7f000000000000000000000000000000000000000000000000000000000000000081565b7f000000000000000000000000000000000000000000000000000000000000000081565b60005b600061042e84610613565b9050600080600061043e876105cc565b925092509250610452838383896000610492565b9550831561024a576104638761061b565b965050505050610423565b7f000000000000000000000000000000000000000000000000000000000000000081565b60006001600160a01b03808616908716106104ae878787610632565b6001600160a01b031663128acb0830836104c788610670565b6001600160a01b038816156104dc5787610502565b856104fb5773fffd8963efd1fc6a506488495d951d5263988d25610502565b6401000276a45b8c8b8d60405160200161051793929190610d49565b6040516020818303038152906040526040518663ffffffff1660e01b8152600401610546959493929190610d98565b6040805180830381600087803b15801561055f57600080fd5b505af192505050801561058f575060408051601f3d908101601f1916820190925261058c91810190610c2a565b60015b6103cb573d8080156105bd576040519150601f19603f3d011682016040523d82523d6000602084013e6105c2565b606091505b506103c281610686565b600080806105da8482610703565b92506105e78460146107b3565b90506105f4846017610703565b91509193909250565b60006103cf8561060e86868661085a565b6108b0565b516042111590565b805160609061025f908390601790601619016108d3565b60006106687f000000000000000000000000000000000000000000000000000000000000000061066386868661085a565b610a24565b949350505050565b6000600160ff1b821061068257600080fd5b5090565b600081516020146106ef576044825110156106bc5760405162461bcd60e51b81526004016106b390610df8565b60405180910390fd5b600482019150818060200190518101906106d69190610c9b565b60405162461bcd60e51b81526004016106b39190610dde565b8180602001905181019061025f9190610d05565b600081826014011015610752576040805162461bcd60e51b8152602060048201526012602482015271746f416464726573735f6f766572666c6f7760701b604482015290519081900360640190fd5b81601401835110156107a3576040805162461bcd60e51b8152602060048201526015602482015274746f416464726573735f6f75744f66426f756e647360581b604482015290519081900360640190fd5b500160200151600160601b900490565b600081826003011015610801576040805162461bcd60e51b8152602060048201526011602482015270746f55696e7432345f6f766572666c6f7760781b604482015290519081900360640190fd5b8160030183511015610851576040805162461bcd60e51b8152602060048201526014602482015273746f55696e7432345f6f75744f66426f756e647360601b604482015290519081900360640190fd5b50016003015190565b610862610b08565b826001600160a01b0316846001600160a01b03161115610880579192915b50604080516060810182526001600160a01b03948516815292909316602083015262ffffff169181019190915290565b60006108bc8383610a24565b9050336001600160a01b0382161461025f57600080fd5b60608182601f01101561091e576040805162461bcd60e51b815260206004820152600e60248201526d736c6963655f6f766572666c6f7760901b604482015290519081900360640190fd5b828284011015610966576040805162461bcd60e51b815260206004820152600e60248201526d736c6963655f6f766572666c6f7760901b604482015290519081900360640190fd5b818301845110156109b2576040805162461bcd60e51b8152602060048201526011602482015270736c6963655f6f75744f66426f756e647360781b604482015290519081900360640190fd5b6060821580156109d15760405191506000825260208201604052610a1b565b6040519150601f8416801560200281840101858101878315602002848b0101015b81831015610a0a5780518352602092830192016109f2565b5050858452601f01601f1916604052505b50949350505050565b600081602001516001600160a01b031682600001516001600160a01b031610610a4c57600080fd5b50805160208083015160409384015184516001600160a01b0394851681850152939091168385015262ffffff166060808401919091528351808403820181526080840185528051908301206001600160f81b031960a085015294901b6bffffffffffffffffffffffff191660a183015260b58201939093527f5d227b1224d702ed5c29b93295d4c56c96d9ba453960e291d2fc046c48fe5c7260d5808301919091528251808303909101815260f5909101909152805191012090565b604080516060810182526000808252602082018190529181019190915290565b600082601f830112610b38578081fd5b8135610b4b610b4682610e4f565b610e2b565b818152846020838601011115610b5f578283fd5b816020850160208301379081016020019190915292915050565b600080600080600060a08688031215610b90578081fd5b8535610b9b81610ea1565b94506020860135610bab81610ea1565b9350604086013562ffffff81168114610bc2578182fd5b9250606086013591506080860135610bd981610ea1565b809150509295509295909350565b60008060408385031215610bf9578182fd5b823567ffffffffffffffff811115610c0f578283fd5b610c1b85828601610b28565b95602094909401359450505050565b60008060408385031215610c3c578182fd5b505080516020909101519092909150565b600080600060608486031215610c61578283fd5b8335925060208401359150604084013567ffffffffffffffff811115610c85578182fd5b610c9186828701610b28565b9150509250925092565b600060208284031215610cac578081fd5b815167ffffffffffffffff811115610cc2578182fd5b8201601f81018413610cd2578182fd5b8051610ce0610b4682610e4f565b818152856020838501011115610cf4578384fd5b6103cf826020830160208601610e71565b600060208284031215610d16578081fd5b5051919050565b60008151808452610d35816020860160208601610e71565b601f01601f19169290920160200192915050565b606093841b6bffffffffffffffffffffffff19908116825260e89390931b6001600160e81b0319166014820152921b166017820152602b0190565b6001600160a01b0391909116815260200190565b6001600160a01b0386811682528515156020830152604082018590528316606082015260a060808201819052600090610dd390830184610d1d565b979650505050505050565b600060208252610df16020830184610d1d565b9392505050565b60208082526010908201526f2ab732bc3832b1ba32b21032b93937b960811b604082015260600190565b90815260200190565b60405181810167ffffffffffffffff81118282101715610e4757fe5b604052919050565b600067ffffffffffffffff821115610e6357fe5b50601f01601f191660200190565b60005b83811015610e8c578181015183820152602001610e74565b83811115610e9b576000848401525b50505050565b6001600160a01b0381168114610eb657600080fd5b5056fea2646970667358221220754dd5fb71a089c6eef6af3f31d00423c2b9a286c59e95a2c472eddfcbf0b1a864736f6c63430007060033",
    "linkReferences": {}
  },
  "methodIdentifiers": {
    "WETH9()": "4aa4a4fc",
    "deployer()": "d5f39488",
    "factory()": "c45a0155",
    "pancakeV3SwapCallback(int256,int256,bytes)": "23a69e75",
    "quoteExactInput(bytes,uint256)": "cdca1753",
    "quoteExactInputSingle(address,address,uint24,uint256,uint160)": "f7729d43",
    "quoteExactOutput(bytes,uint256)": "2f80bb1d",
    "quoteExactOutputSingle(address,address,uint24,uint256,uint160)": "30d07f21"
  },
  "id": 168
}