{
  "abi": [
    {
      "inputs": [
        {
          "internalType": "address",
          "name": "pool",
          "type": "address"
        },
        {
          "internalType": "int16",
          "name": "tickBitmapIndex",
          "type": "int16"
        }
      ],
      "name": "getGasCostOfGetPopulatedTicksInWord",
      "outputs": [
        {
          "internalType": "uint256",
          "name": "",
          "type": "uint256"
        }
      ],
      "stateMutability": "view",
      "type": "function"
    },
    {
      "inputs": [
        {
          "internalType": "address",
          "name": "pool",
          "type": "address"
        },
        {
          "internalType": "int16",
          "name": "tickBitmapIndex",
          "type": "int16"
        }
      ],
      "name": "getPopulatedTicksInWord",
      "outputs": [
        {
          "components": [
            {
              "internalType": "int24",
              "name": "tick",
              "type": "int24"
            },
            {
              "internalType": "int128",
              "name": "liquidityNet",
              "type": "int128"
            },
            {
              "internalType": "uint128",
              "name": "liquidityGross",
              "type": "uint128"
            }
          ],
          "internalType": "struct ITickLens.PopulatedTick[]",
          "name": "populatedTicks",
          "type": "tuple[]"
        }
      ],
      "stateMutability": "view",
      "type": "function"
    }
  ],
  "bytecode": {
    "object": "0x608060405234801561001057600080fd5b50610637806100206000396000f3fe608060405234801561001057600080fd5b50600436106100365760003560e01c8063351fb4781461003b578063f0c2e7bc14610064575b600080fd5b61004e610049366004610366565b610085565b60405161005b91906103a6565b60405180910390f35b610077610072366004610366565b610328565b60405190815260200161005b565b60405163299ce14b60e11b8152600182900b60048201526060906000906001600160a01b03851690635339c29690602401602060405180830381865afa1580156100d3573d6000803e3d6000fd5b505050506040513d601f19601f820116820180604052508101906100f7919061040e565b90506000805b610100811015610132576001811b831615610120578161011c8161043d565b9250505b8061012a8161043d565b9150506100fd565b506000856001600160a01b031663d0c93a7c6040518163ffffffff1660e01b8152600401602060405180830381865afa158015610173573d6000803e3d6000fd5b505050506040513d601f19601f820116820180604052508101906101979190610456565b90508167ffffffffffffffff8111156101b2576101b2610480565b6040519080825280602002602001820160405280156101fd57816020015b60408051606081018252600080825260208083018290529282015282526000199092019101816101d05790505b50935060005b61010081101561031e576001811b84161561030c5760008261022c8360088a901b60020b610496565b61023691906104bb565b60405163f30dba9360e01b8152600282900b600482015290915060009081906001600160a01b038b169063f30dba939060240161010060405180830381865afa158015610287573d6000803e3d6000fd5b505050506040513d601f19601f820116820180604052508101906102ab9190610516565b5050505050509150915060405180606001604052808460020b815260200182600f0b8152602001836001600160801b031681525088876102ea906105c1565b975087815181106102fd576102fd6105d8565b60200260200101819052505050505b806103168161043d565b915050610203565b5050505092915050565b6000805a90506103388484610085565b505a61034490826105ee565b9150505b92915050565b6001600160a01b038116811461036357600080fd5b50565b6000806040838503121561037957600080fd5b82356103848161034e565b91506020830135600181900b811461039b57600080fd5b809150509250929050565b602080825282518282018190526000919060409081850190868401855b82811015610401578151805160020b855286810151600f0b878601528501516001600160801b031685850152606090930192908501906001016103c3565b5091979650505050505050565b60006020828403121561042057600080fd5b5051919050565b634e487b7160e01b600052601160045260246000fd5b60006001820161044f5761044f610427565b5060010190565b60006020828403121561046857600080fd5b81518060020b811461047957600080fd5b9392505050565b634e487b7160e01b600052604160045260246000fd5b600281810b9083900b01627fffff8113627fffff198212171561034857610348610427565b60008260020b8260020b028060020b91508082146104db576104db610427565b5092915050565b80516104ed8161034e565b919050565b805163ffffffff811681146104ed57600080fd5b805180151581146104ed57600080fd5b600080600080600080600080610100898b03121561053357600080fd5b88516001600160801b038116811461054a57600080fd5b80985050602089015180600f0b811461056257600080fd5b80975050604089015195506060890151945060808901518060060b811461058857600080fd5b935061059660a08a016104e2565b92506105a460c08a016104f2565b91506105b260e08a01610506565b90509295985092959890939650565b6000816105d0576105d0610427565b506000190190565b634e487b7160e01b600052603260045260246000fd5b818103818111156103485761034861042756fea26469706673582212204588763fe3fbbac901b65edb60e2d716aa74066266d24de80911f8825124c52364736f6c63430008150033",
    "linkReferences": {}
  },
  "methodIdentifiers": {
    "getGasCostOfGetPopulatedTicksInWord(address,int16)": "f0c2e7bc",
    "getPopulatedTicksInWord(address,int16)": "351fb478"
  },
  "id": 103
}