{
  "abi": [
    {
      "inputs": [
        {
          "internalType": "address",
          "name": "_deployer",
          "type": "address"
        },
        {
          "internalType": "address",
          "name": "_factory",
          "type": "address"
        },
        {
          "internalType": "address",
          "name": "_WETH9",
          "type": "address"
        }
      ],
      "stateMutability": "nonpayable",
      "type": "constructor"
    },
    {
      "inputs": [],
      "name": "WETH9",
      "outputs": [
        {
          "internalType": "address",
          "name": "",
          "type": "address"
        }
      ],
      "stateMutability": "view",
      "type": "function"
    },
    {
      "inputs": [],
      "name": "deployer",
      "outputs": [
        {
          "internalType": "address",
          "name": "",
          "type": "address"
        }
      ],
      "stateMutability": "view",
      "type": "function"
    },
    {
      "inputs": [
        {
          "components": [
            {
              "internalType": "bytes",
              "name": "path",
              "type": "bytes"
            },
            {
              "internalType": "address",
              "name": "recipient",
              "type": "address"
            },
            {
              "internalType": "uint256",
              "name": "deadline",
              "type": "uint256"
            },
            {
              "internalType": "uint256",
              "name": "amountIn",
              "type": "uint256"
            },
            {
              "internalType": "uint256",
              "name": "amountOutMinimum",
              "type": "uint256"
            }
          ],
          "internalType": "struct ISwapRouter.ExactInputParams",
          "name": "params",
          "type": "tuple"
        }
      ],
      "name": "exactInput",
      "outputs": [
        {
          "internalType": "uint256",
          "name": "amountOut",
          "type": "uint256"
        }
      ],
      "stateMutability": "payable",
      "type": "function"
    },
    {
      "inputs": [
        {
          "components": [
            {
              "internalType": "address",
              "name": "tokenIn",
              "type": "address"
            },
            {
              "internalType": "address",
              "name": "tokenOut",
              "type": "address"
            },
            {
              "internalType": "uint24",
              "name": "fee",
              "type": "uint24"
            },
            {
              "internalType": "address",
              "name": "recipient",
              "type": "address"
            },
            {
              "internalType": "uint256",
              "name": "deadline",
              "type": "uint256"
            },
            {
              "internalType": "uint256",
              "name": "amountIn",
              "type": "uint256"
            },
            {
              "internalType": "uint256",
              "name": "amountOutMinimum",
              "type": "uint256"
            },
            {
              "internalType": "uint160",
              "name": "sqrtPriceLimitX96",
              "type": "uint160"
            }
          ],
          "internalType": "struct ISwapRouter.ExactInputSingleParams",
          "name": "params",
          "type": "tuple"
        }
      ],
      "name": "exactInputSingle",
      "outputs": [
        {
          "internalType": "uint256",
          "name": "amountOut",
          "type": "uint256"
        }
      ],
      "stateMutability": "payable",
      "type": "function"
    },
    {
      "inputs": [
        {
          "components": [
            {
              "internalType": "bytes",
              "name": "path",
              "type": "bytes"
            },
            {
              "internalType": "address",
              "name": "recipient",
              "type": "address"
            },
            {
              "internalType": "uint256",
              "name": "deadline",
              "type": "uint256"
            },
            {
              "internalType": "uint256",
              "name": "amountOut",
              "type": "uint256"
            },
            {
              "internalType": "uint256",
              "name": "amountInMaximum",
              "type": "uint256"
            }
          ],
          "internalType": "struct ISwapRouter.ExactOutputParams",
          "name": "params",
          "type": "tuple"
        }
      ],
      "name": "exactOutput",
      "outputs": [
        {
          "internalType": "uint256",
          "name": "amountIn",
          "type": "uint256"
        }
      ],
      "stateMutability": "payable",
      "type": "function"
    },
    {
      "inputs": [
        {
          "components": [
            {
              "internalType": "address",
              "name": "tokenIn",
              "type": "address"
            },
            {
              "internalType": "address",
              "name": "tokenOut",
              "type": "address"
            },
            {
              "internalType": "uint24",
              "name": "fee",
              "type": "uint24"
            },
            {
              "internalType": "address",
              "name": "recipient",
              "type": "address"
            },
            {
              "internalType": "uint256",
              "name": "deadline",
              "type": "uint256"
            },
            {
              "internalType": "uint256",
              "name": "amountOut",
              "type": "uint256"
            },
            {
              "internalType": "uint256",
              "name": "amountInMaximum",
              "type": "uint256"
            },
            {
              "internalType": "uint160",
              "name": "sqrtPriceLimitX96",
              "type": "uint160"
            }
          ],
          "internalType": "struct ISwapRouter.ExactOutputSingleParams",
          "name": "params",
          "type": "tuple"
        }
      ],
      "name": "exactOutputSingle",
      "outputs": [
        {
          "internalType": "uint256",
          "name": "amountIn",
          "type": "uint256"
        }
      ],
      "stateMutability": "payable",
      "type": "function"
    },
    {
      "inputs": [],
      "name": "factory",
      "outputs": [
        {
          "internalType": "address",
          "name": "",
          "type": "address"
        }
      ],
      "stateMutability": "view",
      "type": "function"
    },
    {
      "inputs": [
        {
          "internalType": "bytes[]",
          "name": "data",
          "type": "bytes[]"
        }
      ],
      "name": "multicall",
      "outputs": [
        {
          "internalType": "bytes[]",
          "name": "results",
          "type": "bytes[]"
        }
      ],
      "stateMutability": "payable",
      "type": "function"
    },
    {
      "inputs": [
        {
          "internalType": "int256",
          "name": "amount0Delta",
          "type": "int256"
        },
        {
          "internalType": "int256",
          "name": "amount1Delta",
          "type": "int256"
        },
        {
          "internalType": "bytes",
          "name": "_data",
          "type": "bytes"
        }
      ],
      "name": "pancakeV3SwapCallback",
      "outputs": [],
      "stateMutability": "nonpayable",
      "type": "function"
    },
    {
      "inputs": [],
      "name": "refundETH",
      "outputs": [],
      "stateMutability": "payable",
      "type": "function"
    },
    {
      "inputs": [
        {
          "internalType": "address",
          "name": "token",
          "type": "address"
        },
        {
          "internalType": "uint256",
          "name": "value",
          "type": "uint256"
        },
        {
          "internalType": "uint256",
          "name": "deadline",
          "type": "uint256"
        },
        {
          "internalType": "uint8",
          "name": "v",
          "type": "uint8"
        },
        {
          "internalType": "bytes32",
          "name": "r",
          "type": "bytes32"
        },
        {
          "internalType": "bytes32",
          "name": "s",
          "type": "bytes32"
        }
      ],
      "name": "selfPermit",
      "outputs": [],
      "stateMutability": "payable",
      "type": "function"
    },
    {
      "inputs": [
        {
          "internalType": "address",
          "name": "token",
          "type": "address"
        },
        {
          "internalType": "uint256",
          "name": "nonce",
          "type": "uint256"
        },
        {
          "internalType": "uint256",
          "name": "expiry",
          "type": "uint256"
        },
        {
          "internalType": "uint8",
          "name": "v",
          "type": "uint8"
        },
        {
          "internalType": "bytes32",
          "name": "r",
          "type": "bytes32"
        },
        {
          "internalType": "bytes32",
          "name": "s",
          "type": "bytes32"
        }
      ],
      "name": "selfPermitAllowed",
      "outputs": [],
      "stateMutability": "payable",
      "type": "function"
    },
    {
      "inputs": [
        {
          "internalType": "address",
          "name": "token",
          "type": "address"
        },
        {
          "internalType": "uint256",
          "name": "nonce",
          "type": "uint256"
        },
        {
          "internalType": "uint256",
          "name": "expiry",
          "type": "uint256"
        },
        {
          "internalType": "uint8",
          "name": "v",
          "type": "uint8"
        },
        {
          "internalType": "bytes32",
          "name": "r",
          "type": "bytes32"
        },
        {
          "internalType": "bytes32",
          "name": "s",
          "type": "bytes32"
        }
      ],
      "name": "selfPermitAllowedIfNecessary",
      "outputs": [],
      "stateMutability": "payable",
      "type": "function"
    },
    {
      "inputs": [
        {
          "internalType": "address",
          "name": "token",
          "type": "address"
        },
        {
          "internalType": "uint256",
          "name": "value",
          "type": "uint256"
        },
        {
          "internalType": "uint256",
          "name": "deadline",
          "type": "uint256"
        },
        {
          "internalType": "uint8",
          "name": "v",
          "type": "uint8"
        },
        {
          "internalType": "bytes32",
          "name": "r",
          "type": "bytes32"
        },
        {
          "internalType": "bytes32",
          "name": "s",
          "type": "bytes32"
        }
      ],
      "name": "selfPermitIfNecessary",
      "outputs": [],
      "stateMutability": "payable",
      "type": "function"
    },
    {
      "inputs": [
        {
          "internalType": "address",
          "name": "token",
          "type": "address"
        },
        {
          "internalType": "uint256",
          "name": "amountMinimum",
          "type": "uint256"
        },
        {
          "internalType": "address",
          "name": "recipient",
          "type": "address"
        }
      ],
      "name": "sweepToken",
      "outputs": [],
      "stateMutability": "payable",
      "type": "function"
    },
    {
      "inputs": [
        {
          "internalType": "address",
          "name": "token",
          "type": "address"
        },
        {
          "internalType": "uint256",
          "name": "amountMinimum",
          "type": "uint256"
        },
        {
          "internalType": "address",
          "name": "recipient",
          "type": "address"
        },
        {
          "internalType": "uint256",
          "name": "feeBips",
          "type": "uint256"
        },
        {
          "internalType": "address",
          "name": "feeRecipient",
          "type": "address"
        }
      ],
      "name": "sweepTokenWithFee",
      "outputs": [],
      "stateMutability": "payable",
      "type": "function"
    },
    {
      "inputs": [
        {
          "internalType": "uint256",
          "name": "amountMinimum",
          "type": "uint256"
        },
        {
          "internalType": "address",
          "name": "recipient",
          "type": "address"
        }
      ],
      "name": "unwrapWETH9",
      "outputs": [],
      "stateMutability": "payable",
      "type": "function"
    },
    {
      "inputs": [
        {
          "internalType": "uint256",
          "name": "amountMinimum",
          "type": "uint256"
        },
        {
          "internalType": "address",
          "name": "recipient",
          "type": "address"
        },
        {
          "internalType": "uint256",
          "name": "feeBips",
          "type": "uint256"
        },
        {
          "internalType": "address",
          "name": "feeRecipient",
          "type": "address"
        }
      ],
      "name": "unwrapWETH9WithFee",
      "outputs": [],
      "stateMutability": "payable",
      "type": "function"
    },
    {
      "stateMutability": "payable",
      "type": "receive"
    }
  ],
  "bytecode": {
    "object": "0x60e06040526000196000553480156200001757600080fd5b506040516200280c3803806200280c8339810160408190526200003a916200007f565b6001600160601b0319606093841b811660805291831b821660a05290911b1660c052620000c8565b80516001600160a01b03811681146200007a57600080fd5b919050565b60008060006060848603121562000094578283fd5b6200009f8462000062565b9250620000af6020850162000062565b9150620000bf6040850162000062565b90509250925092565b60805160601c60a05160601c60c05160601c6126dc620001306000398061011d52806105fa52806106e5528061077252806107b2528061089d52806112f1528061133752806113ab525080610cd65250806103675280610cfa5280611d6b52506126dc6000f3fe60806040526004361061010d5760003560e01c8063c04b8d5911610095578063db3e219811610064578063db3e2198146102b1578063df2ab5bb146102c4578063e0e189a0146102d7578063f28c0498146102ea578063f3995c67146102fd5761017d565b8063c04b8d5914610261578063c2e3140a14610274578063c45a015514610287578063d5f394881461029c5761017d565b806349404b7c116100dc57806349404b7c146101e65780634aa4a4fc146101f95780639b2c0a371461021b578063a4a78f0c1461022e578063ac9650d8146102415761017d565b806312210e8a1461018257806323a69e751461018a578063414bf389146101aa5780634659a494146101d35761017d565b3661017d57336001600160a01b037f0000000000000000000000000000000000000000000000000000000000000000161461017b576040805162461bcd60e51b81526020600482015260096024820152684e6f7420574554483960b81b604482015290519081900360640190fd5b005b600080fd5b61017b610310565b34801561019657600080fd5b5061017b6101a53660046120de565b610322565b6101bd6101b836600461226e565b610441565b6040516101ca91906125c7565b60405180910390f35b61017b6101e1366004611fec565b610568565b61017b6101f4366004612375565b6105f6565b34801561020557600080fd5b5061020e610770565b6040516101ca9190612464565b61017b6102293660046123a4565b610794565b61017b61023c366004611fec565b610960565b61025461024f36600461204c565b6109f1565b6040516101ca91906124be565b6101bd61026f3660046121c3565b610b31565b61017b610282366004611fec565b610c45565b34801561029357600080fd5b5061020e610cd4565b3480156102a857600080fd5b5061020e610cf8565b6101bd6102bf36600461226e565b610d1c565b61017b6102d2366004611f4d565b610e43565b61017b6102e5366004611f8e565b610f21565b6101bd6102f836600461228a565b611048565b61017b61030b366004611fec565b61113e565b47156103205761032033476111b0565b565b60008413806103315750600083135b61033a57600080fd5b6000610348828401846122c2565b9050600080600061035c846000015161129f565b92509250925061038e7f00000000000000000000000000000000000000000000000000000000000000008484846112d0565b5060008060008a136103b557846001600160a01b0316846001600160a01b031610896103cc565b836001600160a01b0316856001600160a01b0316108a5b9150915081156103eb576103e685876020015133846112ef565b610435565b85516103f69061147f565b1561041b5785516104069061148b565b865261041581336000896114a8565b50610435565b8060008190555083945061043585876020015133846112ef565b50505050505050505050565b6000816080013580610451611623565b111561049a576040805162461bcd60e51b8152602060048201526013602482015272151c985b9cd858dd1a5bdb881d1bdbc81bdb19606a1b604482015290519081900360640190fd5b61053360a08401356104b26080860160608701611f2a565b6104c3610100870160e08801611f2a565b60408051808201909152806104db60208a018a611f2a565b6104eb60608b0160408c01612352565b6104fb60408c0160208d01611f2a565b60405160200161050d93929190612419565b6040516020818303038152906040528152602001336001600160a01b0316815250611627565b91508260c001358210156105625760405162461bcd60e51b81526004016105599061255d565b60405180910390fd5b50919050565b604080516323f2ebc360e21b815233600482015230602482015260448101879052606481018690526001608482015260ff851660a482015260c4810184905260e4810183905290516001600160a01b03881691638fcbaf0c9161010480830192600092919082900301818387803b1580156105e257600080fd5b505af1158015610435573d6000803e3d6000fd5b60007f00000000000000000000000000000000000000000000000000000000000000006001600160a01b03166370a08231306040518263ffffffff1660e01b815260040180826001600160a01b0316815260200191505060206040518083038186803b15801561066557600080fd5b505afa158015610679573d6000803e3d6000fd5b505050506040513d602081101561068f57600080fd5b50519050828110156106dd576040805162461bcd60e51b8152602060048201526012602482015271496e73756666696369656e7420574554483960701b604482015290519081900360640190fd5b801561076b577f00000000000000000000000000000000000000000000000000000000000000006001600160a01b0316632e1a7d4d826040518263ffffffff1660e01b815260040180828152602001915050600060405180830381600087803b15801561074957600080fd5b505af115801561075d573d6000803e3d6000fd5b5050505061076b82826111b0565b505050565b7f000000000000000000000000000000000000000000000000000000000000000081565b6000821180156107a5575060648211155b6107ae57600080fd5b60007f00000000000000000000000000000000000000000000000000000000000000006001600160a01b03166370a08231306040518263ffffffff1660e01b815260040180826001600160a01b0316815260200191505060206040518083038186803b15801561081d57600080fd5b505afa158015610831573d6000803e3d6000fd5b505050506040513d602081101561084757600080fd5b5051905084811015610895576040805162461bcd60e51b8152602060048201526012602482015271496e73756666696369656e7420574554483960701b604482015290519081900360640190fd5b8015610959577f00000000000000000000000000000000000000000000000000000000000000006001600160a01b0316632e1a7d4d826040518263ffffffff1660e01b815260040180828152602001915050600060405180830381600087803b15801561090157600080fd5b505af1158015610915573d6000803e3d6000fd5b505050506000612710610931858461177990919063ffffffff16565b8161093857fe5b049050801561094b5761094b83826111b0565b610957858284036111b0565b505b5050505050565b60408051636eb1769f60e11b81523360048201523060248201529051600019916001600160a01b0389169163dd62ed3e91604480820192602092909190829003018186803b1580156109b157600080fd5b505afa1580156109c5573d6000803e3d6000fd5b505050506040513d60208110156109db57600080fd5b5051101561095757610957868686868686610568565b60608167ffffffffffffffff81118015610a0a57600080fd5b50604051908082528060200260200182016040528015610a3e57816020015b6060815260200190600190039081610a295790505b50905060005b82811015610b2a5760008030868685818110610a5c57fe5b9050602002810190610a6e91906125d0565b604051610a7c929190612454565b600060405180830381855af49150503d8060008114610ab7576040519150601f19603f3d011682016040523d82523d6000602084013e610abc565b606091505b509150915081610b0857604481511015610ad557600080fd5b60048101905080806020019051810190610aef9190612159565b60405162461bcd60e51b8152600401610559919061251e565b80848481518110610b1557fe5b60209081029190910101525050600101610a44565b5092915050565b6000816040015180610b41611623565b1115610b8a576040805162461bcd60e51b8152602060048201526013602482015272151c985b9cd858dd1a5bdb881d1bdbc81bdb19606a1b604482015290519081900360640190fd5b335b6000610b9b856000015161147f565b9050610be7856060015182610bb4578660200151610bb6565b305b60006040518060400160405280610bd08b6000015161179d565b8152602001876001600160a01b0316815250611627565b60608601528015610c07578451309250610c009061148b565b8552610c14565b8460600151935050610c1a565b50610b8c565b8360800151831015610c3e5760405162461bcd60e51b81526004016105599061255d565b5050919050565b60408051636eb1769f60e11b8152336004820152306024820152905186916001600160a01b0389169163dd62ed3e91604480820192602092909190829003018186803b158015610c9457600080fd5b505afa158015610ca8573d6000803e3d6000fd5b505050506040513d6020811015610cbe57600080fd5b505110156109575761095786868686868661113e565b7f000000000000000000000000000000000000000000000000000000000000000081565b7f000000000000000000000000000000000000000000000000000000000000000081565b6000816080013580610d2c611623565b1115610d75576040805162461bcd60e51b8152602060048201526013602482015272151c985b9cd858dd1a5bdb881d1bdbc81bdb19606a1b604482015290519081900360640190fd5b610e1160a0840135610d8d6080860160608701611f2a565b610d9e610100870160e08801611f2a565b6040518060400160405280886020016020810190610dbc9190611f2a565b610dcc60608b0160408c01612352565b610dd960208c018c611f2a565b604051602001610deb93929190612419565b6040516020818303038152906040528152602001336001600160a01b03168152506114a8565b91508260c00135821115610e375760405162461bcd60e51b815260040161055990612531565b50600019600055919050565b6000836001600160a01b03166370a08231306040518263ffffffff1660e01b815260040180826001600160a01b0316815260200191505060206040518083038186803b158015610e9257600080fd5b505afa158015610ea6573d6000803e3d6000fd5b505050506040513d6020811015610ebc57600080fd5b5051905082811015610f0a576040805162461bcd60e51b815260206004820152601260248201527124b739bab33334b1b4b2b73a103a37b5b2b760711b604482015290519081900360640190fd5b8015610f1b57610f1b8483836117ac565b50505050565b600082118015610f32575060648211155b610f3b57600080fd5b6000856001600160a01b03166370a08231306040518263ffffffff1660e01b815260040180826001600160a01b0316815260200191505060206040518083038186803b158015610f8a57600080fd5b505afa158015610f9e573d6000803e3d6000fd5b505050506040513d6020811015610fb457600080fd5b5051905084811015611002576040805162461bcd60e51b815260206004820152601260248201527124b739bab33334b1b4b2b73a103a37b5b2b760711b604482015290519081900360640190fd5b80156109575760006127106110178386611779565b8161101e57fe5b0490508015611032576110328784836117ac565b61103f87868385036117ac565b50505050505050565b6000816040013580611058611623565b11156110a1576040805162461bcd60e51b8152602060048201526013602482015272151c985b9cd858dd1a5bdb881d1bdbc81bdb19606a1b604482015290519081900360640190fd5b61111460608401356110b96040860160208701611f2a565b60408051808201909152600090806110d189806125d0565b8080601f016020809104026020016040519081016040528093929190818152602001838380828437600092019190915250505090825250336020909101526114a8565b5060005491508260800135821115610e375760405162461bcd60e51b815260040161055990612531565b6040805163d505accf60e01b8152336004820152306024820152604481018790526064810186905260ff8516608482015260a4810184905260c4810183905290516001600160a01b0388169163d505accf9160e480830192600092919082900301818387803b1580156105e257600080fd5b604080516000808252602082019092526001600160a01b0384169083906040518082805190602001908083835b602083106111fc5780518252601f1990920191602091820191016111dd565b6001836020036101000a03801982511681845116808217855250505050505090500191505060006040518083038185875af1925050503d806000811461125e576040519150601f19603f3d011682016040523d82523d6000602084013e611263565b606091505b505090508061076b576040805162461bcd60e51b815260206004820152600360248201526253544560e81b604482015290519081900360640190fd5b600080806112ad84826118f3565b92506112ba8460146119a3565b90506112c78460176118f3565b91509193909250565b60006112e6856112e1868686611a4a565b611aa0565b95945050505050565b7f00000000000000000000000000000000000000000000000000000000000000006001600160a01b0316846001600160a01b03161480156113305750804710155b15611452577f00000000000000000000000000000000000000000000000000000000000000006001600160a01b031663d0e30db0826040518263ffffffff1660e01b81526004016000604051808303818588803b15801561139057600080fd5b505af11580156113a4573d6000803e3d6000fd5b50505050507f00000000000000000000000000000000000000000000000000000000000000006001600160a01b031663a9059cbb83836040518363ffffffff1660e01b815260040180836001600160a01b0316815260200182815260200192505050602060405180830381600087803b15801561142057600080fd5b505af1158015611434573d6000803e3d6000fd5b505050506040513d602081101561144a57600080fd5b50610f1b9050565b6001600160a01b0383163014156114735761146e8483836117ac565b610f1b565b610f1b84848484611ac3565b8051604211155b919050565b80516060906114a290839060179060161901611c13565b92915050565b60006001600160a01b0384166114bc573093505b60008060006114ce856000015161129f565b919450925090506001600160a01b03808416908316106000806114f2858786611d64565b6001600160a01b031663128acb088b8561150b8f611da2565b6000036001600160a01b038e1615611523578d611549565b876115425773fffd8963efd1fc6a506488495d951d5263988d25611549565b6401000276a45b8d60405160200161155a919061258a565b6040516020818303038152906040526040518663ffffffff1660e01b8152600401611589959493929190612478565b6040805180830381600087803b1580156115a257600080fd5b505af11580156115b6573d6000803e3d6000fd5b505050506040513d601f19601f820116820180604052508101906115da91906120bb565b915091506000836115ef5781836000036115f5565b82826000035b90985090506001600160a01b038a16611614578b811461161457600080fd5b50505050505050949350505050565b4290565b60006001600160a01b03841661163b573093505b600080600061164d856000015161129f565b919450925090506001600160a01b0380831690841610600080611671868686611d64565b6001600160a01b031663128acb088b8561168a8f611da2565b6001600160a01b038e161561169f578d6116c5565b876116be5773fffd8963efd1fc6a506488495d951d5263988d256116c5565b6401000276a45b8d6040516020016116d6919061258a565b6040516020818303038152906040526040518663ffffffff1660e01b8152600401611705959493929190612478565b6040805180830381600087803b15801561171e57600080fd5b505af1158015611732573d6000803e3d6000fd5b505050506040513d601f19601f8201168201806040525081019061175691906120bb565b91509150826117655781611767565b805b6000039b9a5050505050505050505050565b60008215806117945750508181028183828161179157fe5b04145b6114a257600080fd5b60606114a2826000602b611c13565b604080516001600160a01b038481166024830152604480830185905283518084039091018152606490920183526020820180516001600160e01b031663a9059cbb60e01b1781529251825160009485949389169392918291908083835b602083106118285780518252601f199092019160209182019101611809565b6001836020036101000a0380198251168184511680821785525050505050509050019150506000604051808303816000865af19150503d806000811461188a576040519150601f19603f3d011682016040523d82523d6000602084013e61188f565b606091505b50915091508180156118bd5750805115806118bd57508080602001905160208110156118ba57600080fd5b50515b610959576040805162461bcd60e51b815260206004820152600260248201526114d560f21b604482015290519081900360640190fd5b600081826014011015611942576040805162461bcd60e51b8152602060048201526012602482015271746f416464726573735f6f766572666c6f7760701b604482015290519081900360640190fd5b8160140183511015611993576040805162461bcd60e51b8152602060048201526015602482015274746f416464726573735f6f75744f66426f756e647360581b604482015290519081900360640190fd5b500160200151600160601b900490565b6000818260030110156119f1576040805162461bcd60e51b8152602060048201526011602482015270746f55696e7432345f6f766572666c6f7760781b604482015290519081900360640190fd5b8160030183511015611a41576040805162461bcd60e51b8152602060048201526014602482015273746f55696e7432345f6f75744f66426f756e647360601b604482015290519081900360640190fd5b50016003015190565b611a52611e9c565b826001600160a01b0316846001600160a01b03161115611a70579192915b50604080516060810182526001600160a01b03948516815292909316602083015262ffffff169181019190915290565b6000611aac8383611db8565b9050336001600160a01b038216146114a257600080fd5b604080516001600160a01b0385811660248301528481166044830152606480830185905283518084039091018152608490920183526020820180516001600160e01b03166323b872dd60e01b178152925182516000948594938a169392918291908083835b60208310611b475780518252601f199092019160209182019101611b28565b6001836020036101000a0380198251168184511680821785525050505050509050019150506000604051808303816000865af19150503d8060008114611ba9576040519150601f19603f3d011682016040523d82523d6000602084013e611bae565b606091505b5091509150818015611bdc575080511580611bdc5750808060200190516020811015611bd957600080fd5b50515b610957576040805162461bcd60e51b815260206004820152600360248201526229aa2360e91b604482015290519081900360640190fd5b60608182601f011015611c5e576040805162461bcd60e51b815260206004820152600e60248201526d736c6963655f6f766572666c6f7760901b604482015290519081900360640190fd5b828284011015611ca6576040805162461bcd60e51b815260206004820152600e60248201526d736c6963655f6f766572666c6f7760901b604482015290519081900360640190fd5b81830184511015611cf2576040805162461bcd60e51b8152602060048201526011602482015270736c6963655f6f75744f66426f756e647360781b604482015290519081900360640190fd5b606082158015611d115760405191506000825260208201604052611d5b565b6040519150601f8416801560200281840101858101878315602002848b0101015b81831015611d4a578051835260209283019201611d32565b5050858452601f01601f1916604052505b50949350505050565b6000611d9a7f0000000000000000000000000000000000000000000000000000000000000000611d95868686611a4a565b611db8565b949350505050565b6000600160ff1b8210611db457600080fd5b5090565b600081602001516001600160a01b031682600001516001600160a01b031610611de057600080fd5b50805160208083015160409384015184516001600160a01b0394851681850152939091168385015262ffffff166060808401919091528351808403820181526080840185528051908301206001600160f81b031960a085015294901b6bffffffffffffffffffffffff191660a183015260b58201939093527f5d227b1224d702ed5c29b93295d4c56c96d9ba453960e291d2fc046c48fe5c7260d5808301919091528251808303909101815260f5909101909152805191012090565b604080516060810182526000808252602082018190529181019190915290565b80356114868161268e565b600082601f830112611ed7578081fd5b8135611eea611ee582612640565b61261c565b818152846020838601011115611efe578283fd5b816020850160208301379081016020019190915292915050565b60006101008284031215610562578081fd5b600060208284031215611f3b578081fd5b8135611f468161268e565b9392505050565b600080600060608486031215611f61578182fd5b8335611f6c8161268e565b9250602084013591506040840135611f838161268e565b809150509250925092565b600080600080600060a08688031215611fa5578081fd5b8535611fb08161268e565b9450602086013593506040860135611fc78161268e565b9250606086013591506080860135611fde8161268e565b809150509295509295909350565b60008060008060008060c08789031215612004578081fd5b863561200f8161268e565b95506020870135945060408701359350606087013560ff81168114612032578182fd5b9598949750929560808101359460a0909101359350915050565b6000806020838503121561205e578182fd5b823567ffffffffffffffff80821115612075578384fd5b818501915085601f830112612088578384fd5b813581811115612096578485fd5b86602080830285010111156120a9578485fd5b60209290920196919550909350505050565b600080604083850312156120cd578182fd5b505080516020909101519092909150565b600080600080606085870312156120f3578182fd5b8435935060208501359250604085013567ffffffffffffffff80821115612118578384fd5b818701915087601f83011261212b578384fd5b813581811115612139578485fd5b88602082850101111561214a578485fd5b95989497505060200194505050565b60006020828403121561216a578081fd5b815167ffffffffffffffff811115612180578182fd5b8201601f81018413612190578182fd5b805161219e611ee582612640565b8181528560208385010111156121b2578384fd5b6112e6826020830160208601612662565b6000602082840312156121d4578081fd5b813567ffffffffffffffff808211156121eb578283fd5b9083019060a082860312156121fe578283fd5b60405160a08101818110838211171561221357fe5b604052823582811115612224578485fd5b61223087828601611ec7565b82525061223f60208401611ebc565b602082015260408301356040820152606083013560608201526080830135608082015280935050505092915050565b60006101008284031215612280578081fd5b611f468383611f18565b60006020828403121561229b578081fd5b813567ffffffffffffffff8111156122b1578182fd5b820160a08185031215611f46578182fd5b6000602082840312156122d3578081fd5b813567ffffffffffffffff808211156122ea578283fd5b90830190604082860312156122fd578283fd5b60405160408101818110838211171561231257fe5b604052823582811115612323578485fd5b61232f87828601611ec7565b825250602083013592506123428361268e565b6020810192909252509392505050565b600060208284031215612363578081fd5b813562ffffff81168114611f46578182fd5b60008060408385031215612387578182fd5b8235915060208301356123998161268e565b809150509250929050565b600080600080608085870312156123b9578182fd5b8435935060208501356123cb8161268e565b92506040850135915060608501356123e28161268e565b939692955090935050565b60008151808452612405816020860160208601612662565b601f01601f19169290920160200192915050565b606093841b6bffffffffffffffffffffffff19908116825260e89390931b6001600160e81b0319166014820152921b166017820152602b0190565b6000828483379101908152919050565b6001600160a01b0391909116815260200190565b6001600160a01b0386811682528515156020830152604082018590528316606082015260a0608082018190526000906124b3908301846123ed565b979650505050505050565b6000602080830181845280855180835260408601915060408482028701019250838701855b8281101561251157603f198886030184526124ff8583516123ed565b945092850192908501906001016124e3565b5092979650505050505050565b600060208252611f4660208301846123ed565b602080825260129082015271151bdbc81b5d58da081c995c5d595cdd195960721b604082015260600190565b602080825260139082015272151bdbc81b1a5d1d1b19481c9958d95a5d9959606a1b604082015260600190565b6000602082528251604060208401526125a660608401826123ed565b602094909401516001600160a01b0316604093909301929092525090919050565b90815260200190565b6000808335601e198436030181126125e6578283fd5b83018035915067ffffffffffffffff821115612600578283fd5b60200191503681900382131561261557600080fd5b9250929050565b60405181810167ffffffffffffffff8111828210171561263857fe5b604052919050565b600067ffffffffffffffff82111561265457fe5b50601f01601f191660200190565b60005b8381101561267d578181015183820152602001612665565b83811115610f1b5750506000910152565b6001600160a01b03811681146126a357600080fd5b5056fea2646970667358221220229b0a22f4cd3af590426822fc35413a924a45f738ede930111fbe8140d7fa0464736f6c63430007060033",
    "linkReferences": {}
  },
  "methodIdentifiers": {
    "WETH9()": "4aa4a4fc",
    "deployer()": "d5f39488",
    "exactInput((bytes,address,uint256,uint256,uint256))": "c04b8d59",
    "exactInputSingle((address,address,uint24,address,uint256,uint256,uint256,uint160))": "414bf389",
    "exactOutput((bytes,address,uint256,uint256,uint256))": "f28c0498",
    "exactOutputSingle((address,address,uint24,address,uint256,uint256,uint256,uint160))": "db3e2198",
    "factory()": "c45a0155",
    "multicall(bytes[])": "ac9650d8",
    "pancakeV3SwapCallback(int256,int256,bytes)": "23a69e75",
    "refundETH()": "12210e8a",
    "selfPermit(address,uint256,uint256,uint8,bytes32,bytes32)": "f3995c67",
    "selfPermitAllowed(address,uint256,uint256,uint8,bytes32,bytes32)": "4659a494",
    "selfPermitAllowedIfNecessary(address,uint256,uint256,uint8,bytes32,bytes32)": "a4a78f0c",
    "selfPermitIfNecessary(address,uint256,uint256,uint8,bytes32,bytes32)": "c2e3140a",
    "sweepToken(address,uint256,address)": "df2ab5bb",
    "sweepTokenWithFee(address,uint256,address,uint256,address)": "e0e189a0",
    "unwrapWETH9(uint256,address)": "49404b7c",
    "unwrapWETH9WithFee(uint256,address,uint256,address)": "9b2c0a37"
  },
  "id": 137
}