{
  "abi": [
    {
      "inputs": [
        {
          "internalType": "contract IMasterChefV3",
          "name": "_v3",
          "type": "address"
        },
        {
          "internalType": "contract IERC20",
          "name": "_cake",
          "type": "address"
        }
      ],
      "stateMutability": "nonpayable",
      "type": "constructor"
    },
    {
      "inputs": [],
      "name": "NoBalance",
      "type": "error"
    },
    {
      "inputs": [],
      "name": "NotOwnerOrOperator",
      "type": "error"
    },
    {
      "inputs": [],
      "name": "ZeroAddress",
      "type": "error"
    },
    {
      "anonymous": false,
      "inputs": [
        {
          "indexed": true,
          "internalType": "address",
          "name": "operatorAddress",
          "type": "address"
        }
      ],
      "name": "NewOperator",
      "type": "event"
    },
    {
      "anonymous": false,
      "inputs": [
        {
          "indexed": true,
          "internalType": "address",
          "name": "previousOwner",
          "type": "address"
        },
        {
          "indexed": true,
          "internalType": "address",
          "name": "newOwner",
          "type": "address"
        }
      ],
      "name": "OwnershipTransferred",
      "type": "event"
    },
    {
      "anonymous": false,
      "inputs": [
        {
          "indexed": true,
          "internalType": "address",
          "name": "to",
          "type": "address"
        },
        {
          "indexed": false,
          "internalType": "uint256",
          "name": "amount",
          "type": "uint256"
        },
        {
          "indexed": false,
          "internalType": "bool",
          "name": "withUpdate",
          "type": "bool"
        }
      ],
      "name": "Upkeep",
      "type": "event"
    },
    {
      "anonymous": false,
      "inputs": [
        {
          "indexed": true,
          "internalType": "address",
          "name": "token",
          "type": "address"
        },
        {
          "indexed": true,
          "internalType": "address",
          "name": "to",
          "type": "address"
        },
        {
          "indexed": false,
          "internalType": "uint256",
          "name": "amount",
          "type": "uint256"
        }
      ],
      "name": "Withdraw",
      "type": "event"
    },
    {
      "inputs": [],
      "name": "Cake",
      "outputs": [
        {
          "internalType": "contract IERC20",
          "name": "",
          "type": "address"
        }
      ],
      "stateMutability": "view",
      "type": "function"
    },
    {
      "inputs": [],
      "name": "MasterChefV3",
      "outputs": [
        {
          "internalType": "contract IMasterChefV3",
          "name": "",
          "type": "address"
        }
      ],
      "stateMutability": "view",
      "type": "function"
    },
    {
      "inputs": [],
      "name": "operatorAddress",
      "outputs": [
        {
          "internalType": "address",
          "name": "",
          "type": "address"
        }
      ],
      "stateMutability": "view",
      "type": "function"
    },
    {
      "inputs": [],
      "name": "owner",
      "outputs": [
        {
          "internalType": "address",
          "name": "",
          "type": "address"
        }
      ],
      "stateMutability": "view",
      "type": "function"
    },
    {
      "inputs": [],
      "name": "renounceOwnership",
      "outputs": [],
      "stateMutability": "nonpayable",
      "type": "function"
    },
    {
      "inputs": [
        {
          "internalType": "address",
          "name": "_operatorAddress",
          "type": "address"
        }
      ],
      "name": "setOperator",
      "outputs": [],
      "stateMutability": "nonpayable",
      "type": "function"
    },
    {
      "inputs": [
        {
          "internalType": "address",
          "name": "newOwner",
          "type": "address"
        }
      ],
      "name": "transferOwnership",
      "outputs": [],
      "stateMutability": "nonpayable",
      "type": "function"
    },
    {
      "inputs": [
        {
          "internalType": "uint256",
          "name": "_amount",
          "type": "uint256"
        },
        {
          "internalType": "uint256",
          "name": "_duration",
          "type": "uint256"
        },
        {
          "internalType": "bool",
          "name": "_withUpdate",
          "type": "bool"
        }
      ],
      "name": "upkeep",
      "outputs": [],
      "stateMutability": "nonpayable",
      "type": "function"
    },
    {
      "inputs": [
        {
          "internalType": "contract IERC20",
          "name": "_token",
          "type": "address"
        }
      ],
      "name": "withdraw",
      "outputs": [],
      "stateMutability": "nonpayable",
      "type": "function"
    }
  ],
  "bytecode": {
    "object": "0x60c06040523480156200001157600080fd5b5060405162000fc638038062000fc683398101604081905262000034916200049c565b6200003f336200006b565b6001600160a01b0380831660a05281166080819052620000639083600019620000bb565b505062000599565b600080546001600160a01b038381166001600160a01b0319831681178455604051919092169283917f8be0079c531659141344cd1fd0a4f28419497f9722a3daafe3b4186f6b6457e09190a35050565b801580620001395750604051636eb1769f60e11b81523060048201526001600160a01b03838116602483015284169063dd62ed3e90604401602060405180830381865afa15801562000111573d6000803e3d6000fd5b505050506040513d601f19601f82011682018060405250810190620001379190620004db565b155b620001b15760405162461bcd60e51b815260206004820152603660248201527f5361666545524332303a20617070726f76652066726f6d206e6f6e2d7a65726f60448201527f20746f206e6f6e2d7a65726f20616c6c6f77616e63650000000000000000000060648201526084015b60405180910390fd5b604080516001600160a01b038416602482015260448082018490528251808303909101815260649091019091526020810180516001600160e01b0390811663095ea7b360e01b17909152620002099185916200020e16565b505050565b6040805180820190915260208082527f5361666545524332303a206c6f772d6c6576656c2063616c6c206661696c6564908201526000906200025d906001600160a01b038516908490620002df565b8051909150156200020957808060200190518101906200027e9190620004f5565b620002095760405162461bcd60e51b815260206004820152602a60248201527f5361666545524332303a204552433230206f7065726174696f6e20646964206e6044820152691bdd081cdd58d8d9595960b21b6064820152608401620001a8565b6060620002f08484600085620002f8565b949350505050565b6060824710156200035b5760405162461bcd60e51b815260206004820152602660248201527f416464726573733a20696e73756666696369656e742062616c616e636520666f6044820152651c8818d85b1b60d21b6064820152608401620001a8565b600080866001600160a01b0316858760405162000379919062000546565b60006040518083038185875af1925050503d8060008114620003b8576040519150601f19603f3d011682016040523d82523d6000602084013e620003bd565b606091505b509092509050620003d187838387620003dc565b979650505050505050565b606083156200045057825160000362000448576001600160a01b0385163b620004485760405162461bcd60e51b815260206004820152601d60248201527f416464726573733a2063616c6c20746f206e6f6e2d636f6e74726163740000006044820152606401620001a8565b5081620002f0565b620002f08383815115620004675781518083602001fd5b8060405162461bcd60e51b8152600401620001a8919062000564565b6001600160a01b03811681146200049957600080fd5b50565b60008060408385031215620004b057600080fd5b8251620004bd8162000483565b6020840151909250620004d08162000483565b809150509250929050565b600060208284031215620004ee57600080fd5b5051919050565b6000602082840312156200050857600080fd5b815180151581146200051957600080fd5b9392505050565b60005b838110156200053d57818101518382015260200162000523565b50506000910152565b600082516200055a81846020870162000520565b9190910192915050565b60208152600082518060208401526200058581604085016020870162000520565b601f01601f19169190910160400192915050565b60805160a0516109f3620005d36000396000818160e101528181610289015261030401526000818161011b01526101da01526109f36000f3fe608060405234801561001057600080fd5b50600436106100935760003560e01c806360911f2a1161006657806360911f2a14610116578063715018a61461013d5780638da5cb5b14610145578063b3ab15fb14610156578063f2fde38b1461016957600080fd5b80630ce5d4cc14610098578063127effb2146100ad5780631ad8c1e4146100dc57806351cff8d914610103575b600080fd5b6100ab6100a63660046108a2565b61017c565b005b6001546100c0906001600160a01b031681565b6040516001600160a01b03909116815260200160405180910390f35b6100c07f000000000000000000000000000000000000000000000000000000000000000081565b6100ab6101113660046108f0565b610359565b6100c07f000000000000000000000000000000000000000000000000000000000000000081565b6100ab610426565b6000546001600160a01b03166100c0565b6100ab6101643660046108f0565b61043a565b6100ab6101773660046108f0565b6104b3565b6001546001600160a01b031633148015906101a257506000546001600160a01b03163314155b156101c057604051634c7bb68760e11b815260040160405180910390fd5b6040516370a0823160e01b815230600482015283906000907f00000000000000000000000000000000000000000000000000000000000000006001600160a01b0316906370a0823190602401602060405180830381865afa158015610229573d6000803e3d6000fd5b505050506040513d601f19601f8201168201806040525081019061024d9190610914565b905084158061025b57508085115b15610264578091505b604051630339753360e21b8152600481018390526024810185905283151560448201527f00000000000000000000000000000000000000000000000000000000000000006001600160a01b031690630ce5d4cc90606401600060405180830381600087803b1580156102d557600080fd5b505af11580156102e9573d6000803e3d6000fd5b50506040805185815286151560208201526001600160a01b037f00000000000000000000000000000000000000000000000000000000000000001693507f9bc0a7d1ea34f5c0b59023cff769f5d2cc8860bf24be25254ce420e658d48a7c92500160405180910390a25050505050565b610361610531565b6040516370a0823160e01b81523060048201526000906001600160a01b038316906370a0823190602401602060405180830381865afa1580156103a8573d6000803e3d6000fd5b505050506040513d601f19601f820116820180604052508101906103cc9190610914565b90506103e26001600160a01b038316338361058b565b60405181815233906001600160a01b038416907f9b1bfa7fa9ee420a16e124f794c35ac9f90472acc99140eb2f6447c714cad8eb9060200160405180910390a35050565b61042e610531565b61043860006105e2565b565b610442610531565b6001600160a01b0381166104695760405163d92e233d60e01b815260040160405180910390fd5b600180546001600160a01b0319166001600160a01b0383169081179091556040517fda12ee837e6978172aaf54b16145ffe08414fd8710092ef033c71b8eb6ec189a90600090a250565b6104bb610531565b6001600160a01b0381166105255760405162461bcd60e51b815260206004820152602660248201527f4f776e61626c653a206e6577206f776e657220697320746865207a65726f206160448201526564647265737360d01b60648201526084015b60405180910390fd5b61052e816105e2565b50565b6000546001600160a01b031633146104385760405162461bcd60e51b815260206004820181905260248201527f4f776e61626c653a2063616c6c6572206973206e6f7420746865206f776e6572604482015260640161051c565b604080516001600160a01b038416602482015260448082018490528251808303909101815260649091019091526020810180516001600160e01b031663a9059cbb60e01b1790526105dd908490610632565b505050565b600080546001600160a01b038381166001600160a01b0319831681178455604051919092169283917f8be0079c531659141344cd1fd0a4f28419497f9722a3daafe3b4186f6b6457e09190a35050565b6000610687826040518060400160405280602081526020017f5361666545524332303a206c6f772d6c6576656c2063616c6c206661696c6564815250856001600160a01b03166107049092919063ffffffff16565b8051909150156105dd57808060200190518101906106a5919061092d565b6105dd5760405162461bcd60e51b815260206004820152602a60248201527f5361666545524332303a204552433230206f7065726174696f6e20646964206e6044820152691bdd081cdd58d8d9595960b21b606482015260840161051c565b6060610713848460008561071b565b949350505050565b60608247101561077c5760405162461bcd60e51b815260206004820152602660248201527f416464726573733a20696e73756666696369656e742062616c616e636520666f6044820152651c8818d85b1b60d21b606482015260840161051c565b600080866001600160a01b03168587604051610798919061096e565b60006040518083038185875af1925050503d80600081146107d5576040519150601f19603f3d011682016040523d82523d6000602084013e6107da565b606091505b50915091506107eb878383876107f6565b979650505050505050565b6060831561086557825160000361085e576001600160a01b0385163b61085e5760405162461bcd60e51b815260206004820152601d60248201527f416464726573733a2063616c6c20746f206e6f6e2d636f6e7472616374000000604482015260640161051c565b5081610713565b610713838381511561087a5781518083602001fd5b8060405162461bcd60e51b815260040161051c919061098a565b801515811461052e57600080fd5b6000806000606084860312156108b757600080fd5b833592506020840135915060408401356108d081610894565b809150509250925092565b6001600160a01b038116811461052e57600080fd5b60006020828403121561090257600080fd5b813561090d816108db565b9392505050565b60006020828403121561092657600080fd5b5051919050565b60006020828403121561093f57600080fd5b815161090d81610894565b60005b8381101561096557818101518382015260200161094d565b50506000910152565b6000825161098081846020870161094a565b9190910192915050565b60208152600082518060208401526109a981604085016020870161094a565b601f01601f1916919091016040019291505056fea2646970667358221220e25f8feb3aee415763c555025170b2e09851d2ed30d59f0a5c7164abf092c00564736f6c63430008150033",
    "linkReferences": {}
  },
  "methodIdentifiers": {
    "Cake()": "60911f2a",
    "MasterChefV3()": "1ad8c1e4",
    "operatorAddress()": "127effb2",
    "owner()": "8da5cb5b",
    "renounceOwnership()": "715018a6",
    "setOperator(address)": "b3ab15fb",
    "transferOwnership(address)": "f2fde38b",
    "upkeep(uint256,uint256,bool)": "0ce5d4cc",
    "withdraw(address)": "51cff8d9"
  },
  "id": 46
}