{
  "abi": [
    {
      "inputs": [
        {
          "internalType": "address",
          "name": "_deployer",
          "type": "address"
        },
        {
          "internalType": "address",
          "name": "_factory",
          "type": "address"
        },
        {
          "internalType": "address",
          "name": "_WETH9",
          "type": "address"
        }
      ],
      "stateMutability": "nonpayable",
      "type": "constructor"
    },
    {
      "inputs": [],
      "name": "WETH9",
      "outputs": [
        {
          "internalType": "address",
          "name": "",
          "type": "address"
        }
      ],
      "stateMutability": "view",
      "type": "function"
    },
    {
      "inputs": [],
      "name": "deployer",
      "outputs": [
        {
          "internalType": "address",
          "name": "",
          "type": "address"
        }
      ],
      "stateMutability": "view",
      "type": "function"
    },
    {
      "inputs": [],
      "name": "factory",
      "outputs": [
        {
          "internalType": "address",
          "name": "",
          "type": "address"
        }
      ],
      "stateMutability": "view",
      "type": "function"
    }
  ],
  "bytecode": {
    "object": "0x60e060405234801561001057600080fd5b506040516101a53803806101a58339818101604052606081101561003357600080fd5b50805160208201516040909201516001600160601b0319606092831b811660805292821b831660a052901b1660c05260805160601c60a05160601c60c05160601c610111610094600039806071525080609552508060b952506101116000f3fe6080604052348015600f57600080fd5b5060043610603c5760003560e01c80634aa4a4fc146041578063c45a0155146063578063d5f39488146069575b600080fd5b6047606f565b604080516001600160a01b039092168252519081900360200190f35b60476093565b604760b7565b7f000000000000000000000000000000000000000000000000000000000000000081565b7f000000000000000000000000000000000000000000000000000000000000000081565b7f00000000000000000000000000000000000000000000000000000000000000008156fea26469706673582212208c9c4c2f670dfbc466228832903394e193b4fd1fb24b77e911e7eee3a107d02064736f6c63430007060033",
    "linkReferences": {}
  },
  "methodIdentifiers": {
    "WETH9()": "4aa4a4fc",
    "deployer()": "d5f39488",
    "factory()": "c45a0155"
  },
  "id": 196
}